:100000000C94AC000C94CD000C94CD000C94CD005D
:100010000C94CD000C94CD000C94CD000C94CD002C
:100020000C94CD000C94CD000C94CD000C94CD001C
:100030000C94CD000C94CD000C94CD000C94CD000C
:100040000C94CD000C94CD000C94CD000C94CD00FC
:100050000C94CD000C94CD000C94CD000C94CD00EC
:100060000C94CD000C94CD000C94CD000C94CD00DC
:100070000C94CD000C94CD000C94CD000C94CD00CC
:100080000C94CD000C94CD000C94CD000C94CD00BC
:100090000C94A80B0C948C0B0C94CD000C94CD00FC
:1000A0000C94CD000C94CD000C94F8000C94090134
:1000B0000C94CD000C94CD000C94CD000C94CD008C
:1000C0000C94CD000C94CD000C94CD000C94CD007C
:1000D0000C94CD000C94CD000C94CD000C94CD006C
:1000E0000C94CD000C94CD000C94CD000C94CD005C
:1000F0000C94DA010C94CD000C94CD000C94BC014E
:100100000C94CD000C94CD000C94CD000C94CD003B
:100110000C94CD000C94CD000C94CD000C94CD002B
:100120000C94CD000C94CD000C94CD000C94CD001B
:100130000C94CD000C94510C0C941A080C94490C9E
:100140000C944C0C0C94A6050C94D1020C949305C1
:100150000C94EB070C949A0C11241FBECFEFD1E83E
:10016000DEBFCDBF00E00CBF12E0A0E0B2E0EEEFDA
:10017000FBE100E00BBF02C007900D92A430B10775
:10018000D9F72AE0A4E0B2E001C01D92A032B20784
:10019000E1F70E94D60C0C94FD0D0C94000014BEE7
:1001A00088E10FB6F89480936000109260000FBE53
:1001B000E1E6F0E080E88083108278940E94E3001A
:1001C000249A2C9A08951092F90980E197E290936D
:1001D000A9008093A800E1EAF0E088E080838081B4
:1001E00082608083E2E7F0E080818260808308950E
:1001F0001F920F920FB60F9211248F938091F909DD
:100200008F5F8093F9098F910F900FBE0F901F9011
:1002100018951F920F920FB60F9211248F9381E0C1
:10022000809304028F910F900FBE0F901F9018952E
:1002300093E090934201909141019F719830D9F7DA
:1002400080934201909141019F718913FBCF0895E2
:1002500080919102882311F086E101C088E00C941E
:100260001801E9E3F1E080818160808388E00E94E9
:1002700018018FEF80935601EEE6F1E090819062D5
:10028000908390819F7E908380934F01EEE4F1E014
:10029000808188608083808180648083ECE4F1E0E9
:1002A00080818068808381E180936D011092890252
:1002B0001092910210928B0281E08093880208953F
:1002C000E9E8F2E090819061908380939102089533
:1002D000E9E8F2E090819160908380938A0208952A
:1002E000E9E8F2E020812260208390938D028093E0
:1002F0008C020895E9E8F2E0208124602083909345
:100300008F0280938E02089580918802813031F4AB
:1003100090918902911103C080E001C081E0817059
:1003200008951F93CF93DF931F921F92CDB7DEB72F
:10033000182F89E169839A830E941801698182E0FC
:10034000860F80938001212FE12F9A81F92FA1E858
:10035000B1E08E2F821B861718F481918D93F9CF0F
:1003600082E08093420183E0809388020F900F9097
:10037000DF91CF911F9108951F920F920FB60F92A8
:1003800011248F93809141018F71893169F480919B
:1003900042018295869587708093870289E08093D9
:1003A000420184E0809388028F910F900FBE0F90DE
:1003B0001F9018951F920F920FB60F9211248F93D2
:1003C00089E0809342018091470180938602809169
:1003D0007B018093850285E0809388028F910F9046
:1003E0000FBE0F901F9018951F93CF93DF9300D0EF
:1003F0001F921F92CDB7DEB780918802843009F436
:1004000055C0853021F0813009F08DC002C040E038
:1004100057C010918902112309F485C088E00E9419
:10042000180110FF19C090918B02292F2F70809115
:100430005401807F822B8093540180918A02911114
:1004400009C0982F9F7180914801807E892B8093ED
:10045000480102C0809353018091890281FF08C046
:1004600080918C028093620180918D028093630160
:100470008091890282FF08C080918E028093600182
:1004800080918F02809361018091890283FF09C06E
:10049000909190029F7080914501807F892B80937D
:1004A00045010E942801109289023DC08091870277
:1004B0000E943009809141018F718930D9F72EC097
:1004C00020918502842F90E030E02817390754F0FE
:1004D000FC01E058FE4F2081FC01EB5FFD4F2083C3
:1004E0004F5FEECF85E092E09A8389838091850209
:1004F00082508B83E0918502F0E0EB5FFD4F8081BD
:100500008C83809186028A558D83CE0101960E944C
:10051000D905809141018F718930D9F781E08093AD
:1005200088020E9428010F900F900F900F900F905B
:10053000DF91CF911F9108951092FE091092FF094B
:100540001092FB091092FA09E0E0FAE01192119280
:100550008AE0E032F807D1F70E9451080E94B805FE
:100560000E9499030E94ED020C94F9039093FB09F9
:100570008093FA090C947A019093FD098093FC0909
:100580000C947001E82FF0E0EE0FFF1FE050F64FE3
:100590007183608308950E9404060E944C090C94A4
:1005A0000703E0919202F09193023097A1F022812B
:1005B00033812817390759F4DC01AD57BF4F2C910F
:1005C000278713962C91208B22E0248304C001906E
:1005D000F081E02DEACF0C94CE031092930210929A
:1005E00092020895FC011482178613821282809170
:1005F000920290919302009719F41182108202C026
:1006000091838083F0939302E093920208950F9375
:100610001F93CF93DF93E0919202F0919302EF0149
:10062000209709F481C08C81882321F0823009F45D
:100630005AC076C00E94A0038C01009721F482E08A
:100640008C838F8771C09B838A8381E08C83F801C0
:10065000E957FF4F81ED92E091838083319789853F
:1006600082FB882780F980839985F801838590FB38
:1006700080F98387998593FB992790F990FB82F9FC
:1006800083878091FE098F5F8093FE098487809124
:10069000FA099091FB09968785878D819E81908BC1
:1006A000878798859F708189807F892B818B9F8127
:1006B0009295907F8F70892B818BEF57FF4F4C85E0
:1006C00050E06A857B85808191810E94C20DF8018E
:1006D00081819C85890F8183C801DF91CF911F9112
:1006E0000F910C947E08EC17FD0739F488819981ED
:1006F00090939302809392020BC0808191818C171A
:100700009D0711F0FC01F9CF888199819183808345
:10071000ED85FE85CE01DF91CF911F910F91199448
:100720000990D881C02D7CCFDF91CF911F910F917F
:1007300008951092940210921D031092A60308953A
:1007400080919402882359F080911D03882351F0F1
:100750008091A60381111FC082E090E005C080E077
:1007600090E002C081E090E049E8489F9001499FF5
:10077000300D1124C9018C569D4FFC0111924A95F0
:10078000E9F740E1FC014183EF57FF4F2A553D4F08
:1007900031832083089580E090E00895FC01108269
:1007A0000895009721F0FC01E757FF4F02C0E4E9EC
:1007B000F2E08081811109C0E757FF4F84E0EF32FA
:1007C000F807B9F780E090E00895CF010895FC01A3
:1007D000ED57FF4F1082EEEFF9E020812F5F20836D
:1007E000FC0124872091FA093091FB09368725877F
:1007F0000895E4E3F4E080E090E02FEF3FEF57E06E
:10080000DF0114972D933C93589FD001599FB00D51
:100810001124A15DBB4F4C914E7F4C9310820196E9
:1008200037968436910561F70895CF93DF93A0E35F
:10083000B4E020E030E0C7E070E0ED91FC9111976A
:10084000E817F90789F4C29FF001C39FF00D112446
:10085000E15DFB4FD081D1FB442740F950E04617C2
:10086000570711F4CF0108C02F5F3F4F179624366A
:10087000310519F780E090E0DF91CF910895E0E035
:10088000F0E0AFE2B4E08C9180FD0BC015968C9146
:100890001597882361F0309719F09581891708F42E
:1008A000FD01179686E0AB3EB80769F701C0FD0170
:1008B00080818D708063808380E88583CF01089577
:1008C000FC01808180FD05C08FEF9FEF92838183C3
:1008D000158208950E941504009721F0FC01838180
:1008E000948108958FEF9FEF08950E94150400975B
:1008F00011F00C9460040895EF92FF920F931F93F0
:10090000CF93DF93EC0109851A8517FF06C08D850B
:100910009E850817190709F044C08D819E810196B4
:1009200009F43FC060E08D859E850E941504FC019E
:10093000CE018D579F4F7C01309729F18F8198858B
:10094000019669F441E02091FA093091FB098F8505
:1009500098892817390709F040E0242F01C020E0CA
:10096000838194818017910729F0D7019C9186811A
:10097000891710F020FF12C01483038380818F70C9
:10098000806380830BC00E943F04FC018D859E859F
:100990009283818389859A8594838383D7018C91FF
:1009A0008683DF91CF911F910F91FF90EF90089573
:1009B000CF93DF93EC018F8598898F3F2FEF9207BC
:1009C000B1F16B8563FB662760F90E941504FC0199
:1009D000009769F1808180FD2AC0CD57DF4F988153
:1009E000282F2F70911113C02063208385818F5F82
:1009F00085838F3FE1F4E4E3F4E0808186958F5FA7
:100A00008083379686E0E03FF807B9F710C08295FB
:100A10008F70815F8F70982F9295907F922B90832B
:100A2000811105C0CF01DF91CF910C946004DF915B
:100A3000CF910895CF93DF93EC018F8598898F3FF5
:100A40002FEF920741F06B8562FD05C063FB6627BF
:100A500060F90E946A0498878F83DF91CF9108958F
:100A6000BF92CF92DF92EF92FF920F931F93CF939B
:100A7000DF938C01FC01B384B3FABB24B0F8C784C4
:100A8000D0886B2DC6010E946A040196A1F0F8017E
:100A9000E957FF4F11821082319782E08083C801AD
:100AA000DF91CF911F910F91FF90EF90DF90CF904A
:100AB000BF900C947E08F801E584F6840E94A003A0
:100AC000EC010097D1F00E94E70389818A5F898356
:100AD000FE01E957FF4F11821082F88AEF863697A0
:100AE0000190F081E02D81E08083F282E182D48266
:100AF000C382B582CE010E947E08C801DF91CF91EA
:100B00001F910F91FF90EF90DF90CF90BF900C94CA
:100B1000CE03DC011796ED91FC91189765818381D6
:100B200094810C947504DC011796ED91FC91189753
:100B30002081222329F0213039F40E94890502C046
:100B40000E94140981E0089580E00895EDEFF6E039
:100B500020E03081332319F03150308321E0359685
:100B600037E0EF32F307A9F721110C94810A0895B9
:100B7000EDEFF6E01082359687E0EF32F807D1F717
:100B800084E690E0A0E0B0E08093F1069093F20656
:100B9000A093F306B093F4061092F50686EA95E06A
:100BA0009093F7068093F60663E975E080E00C9475
:100BB000C202CF93DF93EC01E881F981818188380B
:100BC00001F580818F7D8134E1F48A818031C8F024
:100BD0000E94A0030097A9F020E2FC0120832A8153
:100BE00021832B81ED57FF4F20832C813196208369
:100BF0004A8150E0688179810296DF91CF910C940F
:100C0000C20DDF91CF9108956F927F929F92AF9224
:100C1000BF92CF92DF92EF92FF920F931F93CF93E9
:100C2000DF93CDB7DEB72C970FB6F894DEBF0FBEBB
:100C3000CDBF00E010E094E2D92EEE24E394F12C35
:100C400032E2932E43E2B42EAA24A3945FE1C52E90
:100C5000C8010E94D1038C01009709F4A8C1D801F2
:100C60008C91823209F49AC018F4803251F0F0CF9E
:100C7000833209F45CC1843259F7C8010E94CE0363
:100C8000E7CFF801D08287859089019629F4D801B1
:100C90001B968C9180FDDCCF2091FA093091FB09E5
:100CA000F801858596852817390791F283858A7022
:100CB00079F6C8010E947C04E9EFF6E040E050E0DC
:100CC0008481882309F44AC0D8011D962D913C9156
:100CD0001E97808191812817390709F040C01C9622
:100CE0009C911C974281491B8381483060F5282FD5
:100CF00030E0042E02C0359527950A94E2F720FFD4
:100D000019C02091FA093091FB0917968D919C9199
:100D100018972817390709F09BCF1B966C911B97E2
:100D200063FB662760F91F968D919C9150970E94F6
:100D300075048ECF9701042E01C0220F0A94EAF7A2
:100D4000822B8383F8C092834195042E01C0880FC3
:100D50000A94EAF781608383C482EDC0AF013596BF
:100D6000B7E0EB32FB0709F0ABCF4115510509F4B1
:100D70006FCFF80185859685DA0111969C938E9345
:100D8000848512968C9312971396AC9213971496AF
:100D9000CC928BEE96E00E94810ACDC01092F806AC
:100DA000F8013189232F22952F70E22FF0E0EE0F0A
:100DB000FF1FE050F64F0190F081E02D309709F4CD
:100DC0005EC0D8011D968D919C911E979A83898350
:100DD0001F964D915C9150975C834B833F703D8390
:100DE0002E83AF57BF4F6D917C91798768879801AB
:100DF0002E5F3F4F261B370BD80111963C91119760
:100E0000320F3A87AD57BF4F2C912B8711962C91FB
:100E10002C87D8011B962C91622F637022FF02C091
:100E200030E201C030E0632B23FF02C030E401C098
:100E300030E0362B4F3F5F4F11F424E001C020E03B
:100E4000432F422BD80119962D913C911A97821766
:100E5000930711F498E001C090E0242F292BD801CA
:100E600015968D919C911697019611F480E101C021
:100E700080E0822B8F83CE010196199501C080E01E
:100E8000F801278130852F3F3F4F69F491E0409171
:100E9000FA095091FB09D8011F962D913C9150976A
:100EA0004217530709F090E09170F801238520FF65
:100EB00002C0811102C09923B9F10E94A0033C0134
:100EC000009791F10E94E703D30111968C9111973D
:100ED0008D5F11968C931197F301E957FF4F1182A3
:100EE0001082F8019385969591701B968C911B97B3
:100EF00090FB81F91B968C931B9785859685509660
:100F00009C938E931F97F301EF57FF4F0190F08151
:100F1000E02D10828091F8068283D8011C968C9176
:100F20008183C3010E947E08F801D08291CEC8015E
:100F30000E9430058DCED80117968D919C911897FF
:100F40000196B1F42091FA093091FB09F8018785E7
:100F500090892817390761F085819681019641F0C3
:100F6000D8011B968C9182FD03C0C8010E94CC0859
:100F70008091FA099091FB09F80127853089821741
:100F8000930719F02F3F3F4F19F4D8019C9260CE80
:100F9000F801278130858217930709F059CE8581A2
:100FA0009681019609F454CED801BC9251CE2C966C
:100FB0000FB6F894DEBF0FBECDBFDF91CF911F916A
:100FC0000F91FF90EF90DF90CF90BF90AF909F90E8
:100FD0007F906F9008950F931F93CF93DF93EC0151
:100FE00010E0E0E0F0E003E1CF010E94D103FC015A
:100FF000009791F080818131B9F7DF01AC57BF4F85
:101000002D913C911197215031092D933C93232B25
:1010100009F4008311E0E8CF112339F0CE01DF910C
:10102000CF911F910F910C94810ADF91CF911F9165
:101030000F910895FF920F931F93CF93DF93EC01CD
:1010400010E0E0E0F0E007E180E1F82ECF010E943F
:10105000D103FC010097A9F080818631B9F7DF0147
:10106000AC57BF4F2D913C911197215031091196EA
:101070003C932E93232B19F400831197FC9211E0DB
:10108000E5CF112341F0CE01DF91CF911F910F9158
:10109000FF900C94810ADF91CF911F910F91FF90E7
:1010A0000895109246071092450782E390E0A0E071
:1010B000B0E080933E0790933F07A0934007B09322
:1010C0004107109242078AE198E090934407809389
:1010D00043078AE090E0A0E0B0E08093310790936E
:1010E0003207A0933307B0933407109235078BEE85
:1010F00097E0909337078093360708950F931F93D7
:10110000CF93DF93EC01FC01EA57FF4F208182E18E
:1011100088833397108220FF03C08FEF9FEF04C0B6
:101120008091FC099091FD099E838D83257021F4A7
:10113000CE010E941A0504C08F85988998878F83F5
:101140008091FA099091FB099A8789878091FF091C
:101150008F5F8093FF098C838F8198858E010C5758
:101160001F4F019669F481E498E89B838A830E946B
:10117000B30D877099270196F8019183808307C08A
:1011800081E698E89B838A83F80111821082DF91BF
:10119000CF911F910F9108950F931F93CF93DF93DA
:1011A0008C010E94A003EC010097C9F182E18883C1
:1011B000F80181818983FE01ED57FF4F10820E9463
:1011C000B30DFE01EC57FF4F87709927019691836D
:1011D0008083339611821082F801418150E0B8017A
:1011E0006E5F7F4FCE0102960E94C20D81E498E8A7
:1011F0009B838A838FEF9FEF98878F83F801858188
:1012000096819E838D838091FA099091FB099A873C
:1012100089878091FF098F5F8093FF098C83DF911D
:10122000CF911F910F910895CF93DF93FC01C78158
:10123000D08580E090E00E94D103009771F0FC011E
:1012400020812631C1F7348529813213F4CF27E17B
:1012500020832A81EA57FF4F2083DF91CF910895A1
:10126000E0914507F0914607833030F0833031F04C
:10127000853031F481E205C080E003C080E201C026
:1012800081E0DF01AD57BF4F8C9385E180831092E1
:101290004607109245070895BF92CF92DF92EF92D2
:1012A000FF920F931F93CF93DF93C0E0D0E094E1C0
:1012B000E92E27E1F22E36E1D32E05E110E043E1DD
:1012C000C42E51E1B52ECE010E94D103EC0100974E
:1012D00009F456C088818331B1F018F4823131F0BD
:1012E000F2CF8531F9F08731D1F1EDCFFE01EC5726
:1012F000FF4F80819181892B21F0B8828BE297E0AA
:1013000029C0C882E0CF0E9484018111DCCFD09334
:101310004607C0934507E8826981CE0102960E9484
:101320009101D1CFFE01ED57FF4F8081811115C092
:101330002D853E858091FA099091FB092817390780
:1013400061F48B8580FF09C0D882319611830083B8
:1013500088E397E00E94810AB6CFF882B4CFCE012D
:101360000E94D804FE01E957FF4F0190F081E02D63
:10137000CE01309719F40E94CE03A5CF1995A3CFC3
:10138000DF91CF911F910F91FF90EF90DF90CF9061
:10139000BF9008950E94CF000E94340A0E9431013C
:1013A0000C949C020E94F4010E94CB020C94900ABF
:1013B0000F931F93CF93DF93FC0180914707909188
:1013C0004807B681A781308521850097F1F14B2F21
:1013D0005A2F632F722FDC01D0E0C0E012960D91DE
:1013E0001D912D913C911597401751076207730786
:1013F00068F4041B150B260B370B12960D931D93E7
:101400002D933C931597AD2FBC2F0EC0401B510B55
:10141000620B730B2D913C9111972115310521F031
:10142000DA2FCB2FD901DACF4283538364837583BC
:10143000109741F08D919C91119791838083ED934A
:10144000FC930DC09183808306C011821082B28309
:10145000A38334832583F0934807E0934707DF9104
:10146000CF911F910F91089510924807109247074E
:101470000895CF93DF93E0914707F0914807A0E0EC
:10148000B0E0309751F1E817F90711F5208131816B
:10149000109719F02D933C9304C030934807209384
:1014A00047070190F081E02D3097B9F042815381D8
:1014B00064817581EC018A819B81AC81BD81480F7B
:1014C000591F6A1F7B1F428353836483758305C042
:1014D000DF010190F081E02DD4CFDF91CF9108950D
:1014E000E0914707F0914807309739F0E817F9077E
:1014F00031F00190F081E02DF7CF80E0089581E098
:101500000895CF93DF93EC010E94700A811105C00A
:10151000CE01DF91CF910C94D809DF91CF9108953E
:10152000CF92DF92EF92FF92CF93DF938091F909F0
:101530008823D1F18FB7F8942091F9091092F90915
:101540008FBF30E0AAE0B0E00E94570D6B017C0134
:10155000C0914707D0914807209731F14A815B81BC
:101560006C817D81C416D506E606F706A8F0C41A7C
:10157000D50AE60AF70A88819981909348078093F3
:1015800047078A85813019F4CE010E94D809EB857E
:10159000FC85CE011995DCCF4C195D096E097F09D8
:1015A0004A835B836C837D83DF91CF91FF90EF90C3
:1015B000DF90CF9008959B01AC0184E0220F331F90
:1015C000441F551F8A95D1F760E074E284EF90E0E4
:1015D0000E94350D2150310941095109BB27A52F22
:1015E000942F832F8093CD002093CC00E8ECF0E083
:1015F00082E0808388E98093C90086E08093CA00F6
:101600008EE198E09093F0088093EF08F093EC0857
:10161000E093EB081092EE081092ED081092E808A3
:101620001092E7081092EA081092E9088BE497E01C
:1016300090931D0880931C08F0931908E0931808F4
:1016400010921B0810921A08109215081092140894
:10165000109217081092160881E080934A071092A2
:10166000490708952091ED083091EE084091EB086C
:101670005091EC0824173507F9F0E091EF08F0914C
:10168000F008A091E908B091EA08BD016F5F7F4FB3
:101690007093EA086093E908EA0FFB1F80836417E0
:1016A000750721F41092EA081092E9082F5F3F4F66
:1016B0003093EE082093ED0808956FB7F894E09109
:1016C0001C08F0911D0880911408909115089C0148
:1016D0002F5F3F4F3093150820931408E80FF91F30
:1016E000808140911408509115082091180830917C
:1016F00019084217530721F4109215081092140884
:1017000020911A0830911B082150310930931B0891
:1017100020931A086FBF08951F920F920FB60F9271
:1017200011240BB60F928F93EF93FF9381E0809378
:101730004A07E9ECF0E080818F7D8083FF91EF9193
:101740008F910F900BBE0F900FBE0F901F901895AA
:101750001F920F920FB60F9211240BB60F922F9378
:101760003F934F938F939F93EF93FF938091C80084
:101770004091CE008C71C1F520911A0830911B0860
:1017800080911808909119082817390769F1E0919C
:101790001C08F0911D0880911608909117089C0173
:1017A0002F5F3F4F3093170820931608E80FF91F5B
:1017B0004083209116083091170880911808909165
:1017C00019082817390721F41092170810921608E3
:1017D00080911A0890911B08019690931B088093A2
:1017E0001A0881E080934907FF91EF919F918F91B3
:1017F0004F913F912F910F900BBE0F900FBE0F9006
:101800001F9018958091ED089091EE08009791F146
:1018100020914A07222371F1E091EF08F091F0083E
:101820004091E7085091E8089A012F5F3F4F3093AD
:10183000E8082093E708E40FF51F60814091EB086A
:101840005091EC082417350721F41092E808109203
:10185000E70801979093EE088093ED089FB7F894FE
:101860006093CE008091C90080628093C90010927D
:101870004A079FBF3FB7F894209149071092490744
:1018800080911A0890911B083FBF21110C94A10C64
:1018900008951092CC09089585B190E1892785B902
:1018A00008951F93CF93DF93EC0110E089851817FB
:1018B00048F4EF81F885E10FF11D80810E94320B21
:1018C0001F5FF4CF81E0DF91CF911F910895CF93F7
:1018D000DF93C091F108CC2351F14C2F50E062EF1F
:1018E00078E08FE599E00E94C20D1092D309109222
:1018F000D209D1E0D093D409D093D50983E0809365
:10190000D6098FE599E09093D8098093D709C093C1
:10191000D90989E49CE09093DB098093DA098DEC86
:1019200099E00E94F2021092F108D093CC09DF9165
:10193000CF9108958091CC09811102C00C94670C5D
:101940000895FF920F931F93CF93DF938C01C0E014
:10195000D0E0C017D107E9F00E945D0BF82E0E947D
:10196000320B8091F1088D3631F48091CC098111D0
:1019700002C00E94670CE091F108ED3640F481E06E
:101980008E0F8093F108F0E0EE50F74FF082219631
:10199000E0CF8EED99E00E94390A8EED99E0DF915B
:1019A000CF911F910F91FF900C94810A0E94CA0958
:1019B00060E076E980E090E00E94DB0A82E0582E49
:1019C00094E0792E24E1822E912CA12CB12C0AE9ED
:1019D0001CE038EEC32E33E0D32EE12CF12CCCE406
:1019E000DCE00E94D2090E94020C8091F80981116A
:1019F000F8CF81E090E00E94B60287E695E40E946D
:101A0000BC028FE00E94680181E00E94600161E5F4
:101A10007CE081E00E94C20253BA14BA70BA71BA73
:101A20008092E4099092E509A092E609B092E70954
:101A30001092E8091093EA090093E909C092F109AC
:101A4000D092F209E092F309F092F40966246394CB
:101A50006092F509D093F709C093F6098BEE99E0EF
:101A60000E94810A6092F809BCCFA1E21A2EAA1B3B
:101A7000BB1BFD010DC0AA1FBB1FEE1FFF1FA2173E
:101A8000B307E407F50720F0A21BB30BE40BF50B3B
:101A9000661F771F881F991F1A9469F760957095C4
:101AA000809590959B01AC01BD01CF010895A29F47
:101AB000B001B39FC001A39F700D811D1124911D22
:101AC000B29F700D811D1124911D08958F929F92D8
:101AD000AF92BF92CF92DF92EF92FF92CF93DF93BC
:101AE000EC01688179818A819B816115710581058D
:101AF000910521F464E279ED8BE597E02DE133EF78
:101B000041E050E00E94CB0D49015A019B01AC011C
:101B1000A7EAB1E40E94EA0D6B017C01ACEEB4EFE0
:101B2000A50194010E94F80DC60ED71EE81EF91EED
:101B3000F7FE06C081E0C81AD108E10880E8F80A7B
:101B4000C882D982EA82FB82C6019F77DF91CF915A
:101B5000FF90EF90DF90CF90BF90AF909F908F90CD
:101B600008950C94660D80E092E00C94660DA0E060
:101B7000B0E08093000290930102A0930202B09320
:101B800003020895FB01DC0102C001900D92415057
:101B90005040D8F70895052E97FB1EF400940E943C
:101BA000E20D57FD07D00E94350D07FC03D04EF41F
:101BB0000C94E20D50954095309521953F4F4F4F35
:101BC0005F4F089590958095709561957F4F8F4FE9
:101BD0009F4F08950E94570DA59F900DB49F900DA3
:101BE000A49F800D911D11240895B7FF0C94EA0D58
:0E1BF0000E94EA0D821B930B0895F894FFCF1C
:041BFE0001000000E2
:00000001FF
