:1000000099C00000B8C00000B6C00000B4C0000035
:10001000B2C00000B0C00000AEC00000ACC0000024
:10002000AAC00000A8C00000A6C00000A4C0000034
:10003000A2C00000D7C000009EC000009CC000000D
:100040009AC0000098C0000096C0000094C0000054
:1000500092C0000090C000008EC000008CC0000064
:100060008AC0000088C0000086C0000084C0000074
:1000700082C0000080C000007EC000007CC0000084
:100080007AC0000078C0000076C0000074C0000094
:1000900072C0000070C000006EC000006CC00000A4
:1000A0006AC0000068C0000066C0000064C00000B4
:1000B00062C0000060C000005EC000005CC00000C4
:1000C0005AC0000058C0000056C0000054C00000D4
:1000D00052C0000050C000004EC000004CC00000E4
:1000E0004AC0000048C0000046C0000044C00000F4
:1000F00042C0000040C000003EC000003CC0000004
:100100003AC0000038C0000036C0000034C0000013
:1001100032C0000030C000002EC000002CC0000023
:100120002AC0000028C0000026C0000024C0000033
:1001300022C0000011241FBECFEFD1E8DEBFCDBF2B
:1001400000E00CBF1EE0A0E0B2E0EEE1FFE300E063
:100150000BBF02C007900D92A833B107D9F727E172
:10016000A8E3BEE001C01D92A837B207E1F70E94E4
:10017000C70C0C948D1F44CF14BE0FB6F894A895ED
:1001800080916000886180936000109260000FBED3
:10019000E1E6F0E080E880831082789409D08FEF68
:1001A00082B985B988B98BB98EB981BB84BB0895F2
:1001B0001092791584EA8093B30080E28093B600B0
:1001C0008091B60080FDFCCF8091B000826080936A
:1001D000B00081E08093B1008091700082608093D4
:1001E000700008951F920F920FB60F9211248F93F3
:1001F000809179158F5F809379158F910F900FBE45
:100200000F901F9018958091380E982F9F708091B5
:100210005401807F892B809354019091380E8091F6
:10022000390E992319F08093530108958F7190919D
:100230004801907E892B80934801089593E0909324
:100240004201909141019F719830D9F7809342010A
:10025000909141019F718913FBCF089588E0EEDFF3
:100260008FEF80934F0180913A0E882311F086E141
:10027000E5CF0895E9E3F1E0808181608083109209
:100280003A0E1092380E81E08093BB0E88E0D6DFE4
:100290008BEE80935601ECE4F1E0808180688083EE
:1002A000089580933A0EDACF8093390EACCFCF9376
:1002B000DF931F921F92CDB7DEB79A838983809315
:1002C00062018A81809363010F900F90DF91CF913B
:1002D0000895CF93DF931F921F92CDB7DEB79A8315
:1002E0008983809360018A81809361019A818981E9
:1002F000890F80936D010F900F90DF91CF9108953A
:1003000088E09CDFE9E3F1E080818260808382E025
:100310008093BB0E0895E9E3F1E080818D7F8083B7
:100320009DDF81E08093BB0E08951F93CF93DF93F1
:100330001F921F92CDB7DEB7182F89E169839A8388
:100340007DDF8FEF80934F01698182E0860F80937C
:100350008001212FE12F9A81F92FA1E8B1E08E2FA2
:10036000821B861718F481918D93F9CF83E08093D7
:10037000BB0E82E0809342010F900F90DF91CF91EE
:100380001F910895CF93DF9300D000D0CDB7DEB793
:100390008091BB0E823009F463C080914F0183FFCE
:1003A0003BC040917B0150E0242F30E0852F90E04E
:1003B0002817390754F0FC01E058FE4F6081FC011A
:1003C000E55CF14F60835F5FF1CF8BE39EE09A8342
:1003D000898342504B83F901E55CF14F80818C8326
:1003E000809147018A558D83CE010196ABD38091D0
:1003F00041018F718631D9F780914F0188608093D8
:100400004F0180914C018F7780934C0180914C017A
:10041000806880934C0124C080914F0186FF20C0EA
:10042000809141018F718931B1F4809142018295AF
:100430008695877049F0833021F0853021F083E084
:1004400003C081E001C082E08E8308DF91E09093D9
:10045000BB0E8E81DAD680914F01806480934F016C
:1004600026960FB6F894DEBF0FBECDBFDF91CF91B9
:10047000089510927E1510927F1510927B151092A0
:100480007A151092A1151092A015E0E8F5E11192ED
:10049000119285E1E03AF807D1F7DFD531D3FBD0EF
:1004A0003DD06BC190937B1580937A1512CF9093BA
:1004B0007D1580937C15FBCEE82FF0E0EE0FFF1F3B
:1004C000E058FA4E71836083089581E02091A01571
:1004D0003091A115232B09F480E0089511CF1BCF93
:1004E0005BD3B4D63EC0E091BC0EF091BD0E309708
:1004F000A1F0228133812817390759F4DC01AD5767
:10050000BF4F2C91278713962C91208B22E02483B8
:1005100004C00190F081E02DEACFFCC01092BD0E26
:100520001092BC0E0895FC01148217861382128269
:100530008091A0159091A11501969093A11580939B
:10054000A0158091BC0E9091BD0E009719F41182F8
:10055000108202C091838083F093BD0EE093BC0EA5
:1005600008950F931F93CF93DF93E091BC0EF0910A
:10057000BD0EEF01209709F489C08C81882321F0FA
:10058000823009F459C07EC08DD08C01009721F4CF
:1005900082E08C838F877AC09B838A8381E08C83FF
:1005A000F801E957FF4F83E792E091838083319709
:1005B000898582FB882780F98083F8018385998566
:1005C00090FB80F98387998593FB992790F990FB9D
:1005D00082F9838780917E158F5F80937E15848753
:1005E00080917A1590917B15968785878D819E8164
:1005F000908B87878885982F9F708189807F892B32
:10060000818B9F819295907F8F70892B818BEF5783
:10061000FF4F4C8550E06A857B85808191810E94E7
:10062000011FF80191818C85890F8183C801DF91B9
:10063000CF911F910F9134C5EC17FD0739F48881D4
:1006400099819093BD0E8093BC0E0BC080819181E7
:100650008C179D0711F0FC01F9CF88819981918356
:1006600080838091A0159091A11501979093A11579
:100670008093A015ED85FE85CE01DF91CF911F916E
:100680000F9119940990D881C02D74CFDF91CF912B
:100690001F910F9108951092BE0E1092470F109265
:1006A000D00F08958091BE0E882359F08091470F96
:1006B000882351F08091D00F811129C082E090E011
:1006C00005C080E090E002C081E090E049E8489FEA
:1006D0009001499F300D1124C9018254914FFC01B2
:1006E00011924A95E9F740E1FC014183EF57FF4F32
:1006F0002053314F318320832091A0153091A115D3
:100700002F5F3F4F3093A1152093A015089580E0EF
:1007100090E00895FC011082EAE7F5E186A197A137
:10072000019797A386A30895009711F0FC0103C0D9
:10073000EEEBFEE002C0E757FF4F80E1E935F80736
:1007400028F480818823B9F3CF01089580E090E0F8
:100750000895FC01DC01AD57BF4F1C92AAE7B5E13B
:1007600014969C9114979F5F14969C93149794876A
:100770008D919C91968785870895E9E5F0E180E069
:1007800090E04FEF5FEF37E052834183389FD00115
:10079000399FB00D1124A75ABF4E2C912E7F2C9358
:1007A0001582019637968436910571F70895CF9397
:1007B000DF93A9E5B0E120E030E0C7E070E01196FA
:1007C000ED91FC911297E817F90789F4C29FF001A7
:1007D000C39FF00D1124E75AFF4ED081D1FB44276F
:1007E00040F950E04617570711F4CF0108C02F5FBA
:1007F0003F4F17962436310511F780E090E0DF91E6
:10080000CF91089580E090E0E0E0F0E0DC01A75AAD
:10081000BF4E2C9120FD0BC015962C9115972223CD
:1008200061F0309719F03581231708F4FD01079620
:100830008C3B22E0920751F701C0FD0180818D7051
:100840008063808380E88583CF010895FC018081E7
:1008500080FD05C08FEF9FEF9283818315820895FD
:10086000A6DF009721F0FC018381948108958FEF2A
:100870009FEF08959CDF009709F0E8CF0895EF926D
:10088000FF920F931F93CF93DF93EC0109851A8595
:1008900017FF06C08D859E850817190709F045C00A
:1008A0008D819E81019609F440C060E08D859E8512
:1008B0007EDFFC01CE018D579F4F7C01309741F1C7
:1008C0008F819885019679F491E080E040917A15C6
:1008D00050917B152F8538894217530709F090E016
:1008E000292F382F02C020E030E0838194818017C7
:1008F000910729F0D7019C918681891710F0232B4D
:1009000089F01483038390819F70906390830AC061
:1009100079DFFC018D859E859283818389859A8507
:1009200094838383D7018C918683DF91CF911F912C
:100930000F91FF90EF900895CF93DF93EC018F8597
:1009400098898F3F2FEF9207A1F16B8563FB662794
:1009500060F92DDFFC01892B61F1908190FD29C0A8
:10096000CD57DF4F2881892F8F70211113C08063ED
:10097000808385818F5F85838F3FD9F4EEE5F0E139
:10098000808186958F5F8083379683E1EA31F8070F
:10099000B9F70FC092959F70915F9F70292F229594
:1009A000207F822B8083911104C0CF01DF91CF91F2
:1009B0004DCFDF91CF910895CF93DF93FC018785D1
:1009C00090898F3F2FEF920719F0638562FF03C074
:1009D0009087878307C0EF0163FB662760F940DFDC
:1009E00098878F83DF91CF910895AF92BF92CF9276
:1009F000DF92FF920F931F93CF93DF938C01FC0143
:100A0000F384F3FAFF24F0F8A784B0886F2DC501B2
:100A100027DF019699F0F801E957FF4F1182108204
:100A2000319782E08083C801DF91CF911F910F91B0
:100A3000FF90DF90CF90BF90AF9032C3F801C58494
:100A4000D68430DEEC010097C1F083DE99819A5F95
:100A50009983FE01E957FF4F11821082D88ACF8611
:100A600036970190F081E02D81E08083D282C182AF
:100A7000B482A382F582CE0113D3C801DF91CF9156
:100A80001F910F91FF90DF90CF90BF90AF9042CE1B
:100A9000DC011796ED91FC91189719968C91863090
:100AA00031F4658183819481E5DE81E0089580E001
:100AB0000895AC01E7E2F3E120E09081992319F079
:100AC0009150908321E0359683E1E935F807A9F745
:100AD000222311F0CA01F3C40895DC0119962C9168
:100AE0001997222359F01796ED91FC9118972081C0
:100AF000222319F0213011F4CBCF66C380E0089592
:100B000080E090E0FC01ED5DFC4E1482059682339E
:100B10009105C1F784E690E0A0E0B0E080931B135C
:100B200090931C13A0931D13B0931E1310921F13C8
:100B300089E595E090932113809320136DE675E08D
:100B400080E0BACCCF93DF93EC01E881F981818119
:100B50008838F9F480818F7D8134D9F48A8180319D
:100B6000C0F0A0DD0097A9F020E2FC0120832A81DB
:100B700021832B81ED57FF4F20832C8131962083D9
:100B80004A8150E0688179810296DF91CF910C947F
:100B9000011FDF91CF9108956F927F928F929F9264
:100BA000AF92BF92CF92DF92EF92FF920F931F937B
:100BB000CF93DF93CDB7DEB72C970FB6F894DEBF97
:100BC0000FBECDBF00E010E094E2D92E88248394BC
:100BD00022E2C22E33E2932E4FE1B42E55E0A52E31
:100BE000EE24E394F12CC8019FDD8C01892B09F4DC
:100BF000BDC1D8018C91823209F4D2C018F4803280
:100C000049F0F1CF833209F49AC1843261F7C80107
:100C100081DDE9CFF801D0822385822F8A7019F710
:100C200045815681878590894F3F5F4F59F42091C8
:100C30007A1530917B152817390709F4AEC0019653
:100C400091F6ABC0019611F420FDCDCF20917A151D
:100C500030917B15F801858596852817390709F4A9
:100C6000C2CFC8010CDEA3E2B3E180E090E060E017
:100C700070E014962C911497222309F453C0F801C4
:100C8000458556852D913C9111974217530709F0E0
:100C90004AC02485A89EF001A99EF00D1124ED5DA7
:100CA000FC4E8281821B883070F54381242F30E016
:100CB000082E02C0359527950A94E2F720FF19C047
:100CC00020917A1530917B15D80117968D919C91C2
:100CD00018972817390709F086CF1B966C911B9738
:100CE00063FB662760F91F968D919C915097C2DD3A
:100CF0007ACF970102C0220F331F8A95E2F7C9010C
:100D0000842B83832BC02283238130E08195A9012A
:100D100002C0440F551F8A95E2F7CA0181608383A0
:100D2000B4821CC0BD010196159653E1A535B507E7
:100D300009F09FCF6115710509F455CFD8011D96B3
:100D40008D919C911E97FB01918380831C968C91C1
:100D500082838382B48285E193E1B1D3D80117966F
:100D60008D919C911897019669F420917A15309194
:100D70007B15D8011F968D919C91509728173907A4
:100D800009F0E0C080917A1590917B15F8012785D4
:100D900030898217930709F0DCC0D801CC9223CFA9
:100DA00010922213D80151962C915197322F3295DF
:100DB0003F70E32FF0E0EE0FFF1FE058FA4E019076
:100DC000F081E02D309709F45CC01D968D919C91C7
:100DD0001E979A8389831F964D915C9150975C83EF
:100DE0004B832F702D833E83AF57BF4F6D917C9106
:100DF0007987688798012E5F3F4F261B370BD801F4
:100E000011963C911197230F2A87AD57BF4F2C9114
:100E10002B8711962C912C87D8011B966C91262F2D
:100E2000237062FD02C030E001C030E2232B63FD7D
:100E300002C030E001C030E4322B4F3F5F4F11F071
:100E400020E001C024E0232BD80119964D915C913C
:100E50001A978417950711F090E001C098E0922B43
:100E6000D80115962D913C9116972F3F3F4F11F0C9
:100E700080E001C080E1892B8F83CE010196199516
:100E800001C080E0F801938590FF80E0D8011796BB
:100E90004D915C91189720917A1530917B154F3FB9
:100EA0005F4F41F4F801478550892417350711F445
:100EB00093FF81E0D80115964D915C9116974F3FB5
:100EC0005F4F09F480E02F3F3F4FB1F18823A1F13C
:100ED000E9DB3C01009781F13CDCD30111968C9158
:100EE00011978D5F11968C931197F301E957FF4F7E
:100EF00011821082F8018385869581701B969C91E2
:100F00001B9780FB91F91B969C931B978585968573
:100F100050969C938E931F97F301EF57FF4F0190CC
:100F2000F081E02D1082809122138283D8011C96DB
:100F30008C918183C301B4D0F801D08254CEC80112
:100F400054DD51CE1B968C9182FD1CCFC801F5D08B
:100F500019CF2F3F3F4F09F420CFF801278130856B
:100F60008217930709F03FCE90823DCE2C960FB6A4
:100F7000F894DEBF0FBECDBFDF91CF911F910F91CF
:100F8000FF90EF90DF90CF90BF90AF909F908F90A9
:100F90007F906F9008950F931F93CF93DF938C01F1
:100FA000C0E0E0E0F0E0D3E1CF01BEDBFC01892B43
:100FB00091F080818131C1F7DF01AC57BF4F2D9196
:100FC0003C911197215031092D933C93232B09F427
:100FD000D083C1E0E9CFCC2331F0C801DF91CF91BC
:100FE0001F910F916CC2DF91CF911F910F910895C6
:100FF000FF920F931F93CF93DF938C01C0E0E0E04B
:10100000F0E0D7E180E1F82ECF018EDBFC01892BE7
:10101000A9F080818631C1F7DF01AC57BF4F2D9118
:101020003C9111972150310911963C932E93232B1B
:1010300019F4D0831197FC92C1E0E6CFCC2339F0AC
:10104000C801DF91CF911F910F91FF9038C2DF91BE
:10105000CF911F910F91FF900895109270131092ED
:101060006F13E2E6F3E182E390E0A0E0B0E0868374
:101070009783A087B187128688EF97E0948783874C
:10108000E5E5F3E18AE090E0A0E0B0E086839783B5
:10109000A087B18712868BEC97E0948783870895A9
:1010A0000F931F93CF93DF93EC01FC01EA57FF4F9F
:1010B000808192E198833397108280FF03C02FEFE5
:1010C0003FEF04C020917C1530917D153E832D8328
:1010D000857019F4CE0170DC04C08F8598899887DB
:1010E0008F8380917A1590917B159A87898780915B
:1010F0007F158F5F80937F158C838F8198858E01FC
:101100000C571F4F019669F481E498E89B838A830A
:101110000E94E61E877099270196F80191838083CB
:1011200007C081E698E89B838A83F80111821082C8
:10113000DF91CF911F910F9108950F931F93CF933C
:10114000DF938C01AFDAEC01892BC9F182E188834E
:10115000F80181818983FE01ED57FF4F10820E94C3
:10116000E61EFE01EC57FF4F877099270196918389
:101170008083339611821082F801418150E0B801DA
:101180006E5F7F4FCE0102960E94011F81E498E8B6
:101190009B838A838FEF9FEF98878F83F8018581E8
:1011A00096819E838D8380917A1590917B159A8785
:1011B000898780917F158F5F80937F158C83DF9166
:1011C000CF911F910F910895CF93DF93FC01C781B9
:1011D000D0858185833011F080E014C080E090E0FC
:1011E000A3DA0097C9F3FC0120812631C9F73485C1
:1011F00029813213F5CF27E120832A81EA57FF4F57
:10120000208381E0DF91CF910895A0916F13B09179
:101210007013833030F4E82FF0E0EC5CF14F808104
:1012200001C081E0FD01ED57FF4F808385E18C9384
:101230001092701310926F138091A0159091A115C8
:1012400001979093A1158093A0150895BF92CF9216
:10125000DF92EF92FF920F931F93CF93DF93C0E043
:10126000D0E004E117E186E1D82E95E1E92EF12CDA
:1012700023E1C22E31E1B32ECE0156DAEC01892BE7
:1012800009F45EC088818331B9F018F4823139F0F5
:10129000F3CF853151F1873109F443C0EDCFFE0121
:1012A000EC57FF4F80819181892B21F0B88285E531
:1012B00093E133C0C882E0CF80916F139091701397
:1012C000892BD1F6D0937013C0936F130883698173
:1012D000CE0102962AD88091A0159091A115019671
:1012E0009093A1158093A015C7CFFE01ED57FF4F36
:1012F0008081811114C02D853E8580917A15909151
:101300007B152817390759F48B8580FF08C0D882D0
:101310003196F182E08282E693E1D1D0ADCF18839D
:10132000ABCFCE0109DBFE01E957FF4F0190F08101
:10133000E02DCE01309711F4EDD99ECF19959CCFB9
:10134000DF91CF911F910F91FF90EF90DF90CF90A1
:10135000BF9008950E94BC0062D00E943A0189C8E3
:1013600011D8BED8B9C00F931F93CF93DF93FC0160
:101370008091711390917213B681A7813085218578
:101380000097F1F14B2F5A2F632F722FDC01D0E021
:10139000C0E012960D911D912D913C91159740172B
:1013A00051076207730768F4041B150B260B370BF4
:1013B00012960D931D932D933C931597AD2FBC2F33
:1013C0000EC0401B510B620B730B2D913C9111977A
:1013D000DA2FCB2F2115310511F0D901DACF428355
:1013E000538364837583109741F08D919C9111977D
:1013F00091838083ED93FC930DC09183808306C01D
:1014000011821082B283A38334832583F0937213F5
:10141000E0937113DF91CF911F910F910895109276
:101420007213109271130895CF93DF93DC01E09152
:101430007113F0917213C0E0D0E0309761F1EA17B8
:10144000FB0721F58D919C911197209719F09983B5
:10145000888304C09093721380937113ED91FC9173
:1014600011973097C1F04281538164817581129642
:101470008D919D910D90BC91A02D840F951FA61F5D
:10148000B71F82839383A483B58305C0EF010190C6
:10149000F081E02DD2CFDF91CF910895E0917113CB
:1014A000F0917213309739F0E817F90731F0019095
:1014B000F081E02DF7CF80E0089581E00895CF938B
:1014C000DF93EC01EBDF811104C0CE01DF91CF91FE
:1014D0004ACFDF91CF910895CF92DF92EF92FF92A2
:1014E000CF93DF93809179158823C9F18FB7F89452
:1014F00020917915109279158FBF30E0A5E0B0E00A
:101500000E94371C6B017C01C0917113D091721342
:10151000209729F18A819B81AC81BD81C816D906AB
:10152000EA06FB06A0F0C81AD90AEA0AFB0A888173
:10153000998190937213809371138A85813011F48D
:10154000CE0111DFEB85FC85CE011995DDCF8C191D
:101550009D09AE09BF098A839B83AC83BD83DF915C
:10156000CF91FF90EF90DF90CF900895089583E79B
:1015700093E15ADF83E793E1A2CF4FB7F89420912C
:101580006C1430916D148091641490916514BC01B9
:101590006F5F7F4F7093651460936414F901E80FD7
:1015A000F91F808160916414709165142091681412
:1015B000309169146217730721F410926514109228
:1015C000641420916A1430916B14215031093093C6
:1015D0006B1420936A144FBF089540E46BE682EDCC
:1015E000D5C2E4E6F4E18AE993E19187808788EC4B
:1015F00090E0958384831782168211821082138271
:10160000128210926314EDE8F3E182E390E0A0E02F
:10161000B0E086839783A087B18781E082878FEAD5
:101620009BE094878387E0E8F3E18FE090E0A0E01F
:10163000B0E086839783A087B187128627EB3AE0D4
:1016400034872387E3E7F3E186839783A087B18715
:10165000128686EB9AE094878387DFD1BEDF8DE820
:1016600093E12DDF10920E1610920F1610921016A5
:101670001092111608953FB7F894209163141092B8
:10168000631480916A1490916B143FBF21111EC1A5
:10169000089540916A1450916B1420916814309110
:1016A00069144217530771F140916C1450916D14F5
:1016B0002091661430916714B9016F5F7F4F70936A
:1016C000671460936614FA01E20FF31F8083209180
:1016D00066143091671480916814909169142817EA
:1016E000390721F4109267141092661480916A14DD
:1016F00090916B14019690936B1480936A1481E01F
:10170000809363140895CF92DF92EF92FF92CF936C
:10171000DF936B017C018AE0BCDF80910C16813085
:1017200031F481E7B6DF8AE0B4DF10920C162AE0CC
:1017300041E056E1C701B6010E940A1FC1E0D6E1AF
:101740008991882329F0A5DF86E1CC30D807C1F73D
:10175000DF91CF91FF90EF90DF90CF900895CF93DE
:10176000DF9365E670E080E090E0CDDF40910E16FB
:1017700050910F166091101670911116DB01CA017D
:101780000196A11DB11D80930E1690930F16A09384
:101790001016B093111681309105A105B10551F4D1
:1017A00040E86BE682EDF2D140E06BE682EDDF913E
:1017B000CF91ECC182309105A105B10531F48AE0E9
:1017C00090E0DF91CF910C940D1B0397A105B1051B
:1017D000A9F540930E1650930F1660931016709350
:1017E00011160E94801B892B29F48091C4158F5FEC
:1017F0008093C4158091C415823001F51092C415F0
:1018000081E080930C16C4E2D7E1699179918991C6
:10181000999120E034E244E759E40E940F1D0E94B0
:10182000501C71DF87E1C433D80779F780E893E172
:10183000FBDD80E893E1DF91CF9141CEDF91CF9145
:10184000089510924A15089581E00895CF93DF938B
:1018500080916E14813021F40E946F0210926E14F8
:1018600080914A1581112EC0D0916F14DD2351F162
:101870004D2F50E060E774E18DED94E10E94011F6F
:101880001092511510925015C1E0C0935215C0939B
:10189000531583E0809354158DED94E19093561584
:1018A00080935515D093571581E29CE0909359157C
:1018B000809358158BE495E10E94930210926F1467
:1018C000C0934A15DF91CF910895C0CFEF92FF9258
:1018D0000F931F93CF93DF931F92CDB7DEB78C0189
:1018E000E12CF12CE016F106C1F047DE90916F1467
:1018F0009D3619F48983AADF8981E0916F14ED3652
:1019000040F491E09E0F90936F14F0E0E059FB4E8D
:1019100080838FEFE81AF80AE5CF8CE595E184DD46
:101920008CE595E10F90DF91CF911F910F91FF9082
:10193000EF90C5CDCF93DF93A4E6B0E08C918FEF0D
:101940008C93C5E6D0E0888189678883E3E6F0E080
:1019500080818F60808383B7817F866083BF8C9115
:101960008F7B8C938C918F778C9388818F7B8883EE
:1019700080818E7F808380818D7F808380818B7F3B
:1019800080838081877F8083DF91CF910895D2DF2C
:10199000E1DC27DE84E1C82ED12CE12CF12CC5E658
:1019A000DCE0DEDC68DE80916915811128C081E011
:1019B00090E00E94520287E695E40E9457028FE071
:1019C0000E94540181E00E94510164E27CE081E0C8
:1019D0000E945C02829A8A9A999AA198C092621592
:1019E000D0926315E0926415F09265151092661519
:1019F000D0936815C093671581E0809369150E94A4
:101A000065028111CECF80916E148111CACF0E94E0
:101A10006E0281E080936E14C4CF8CE08093B80096
:101A200008951092BC0094EA9093BC009091BC0081
:101A300097FFFCCF9091B900987F983011F081E02A
:101A400008958093BB0084E88093BC008091BC0023
:101A500087FFFCCF8091B900887F883111F08034F6
:101A600071F780E008958093BB0084E88093BC0008
:101A70008091BC0087FFFCCF9091B900987F81E0F6
:101A8000983209F480E0089584EC8093BC00809142
:101A9000BC0087FFFCCF8091BB00089584E8809351
:101AA000BC008091BC0087FFFCCF8091BB000895F3
:101AB000CF92DF92EF92FF920F931F93CF93DF931A
:101AC0001F921F92CDB7DEB7F82E89014A83698332
:101AD000A8DF6981862FC7DF81E08F0DA2DF780143
:101AE0004A8150E06A0181E0C81AD108C701801B11
:101AF000910B8C159D052CF4C7DFF70181937F01B5
:101B0000F5CF0C0D1D1DCADFF801808384E9809399
:101B1000BC0080E00F900F90DF91CF911F910F914B
:101B2000FF90EF90DF90CF900895CF92DF92EF92E9
:101B3000FF920F931F93CF93DF931F921F92CDB706
:101B4000DEB779014A8369836CDF6981862F8BDF79
:101B500087014A81C42ED12CC8018E199F098C158A
:101B60009D052CF4F80181918F017DDFF5CF84E98B
:101B70008093BC0080E00F900F90DF91CF911F9178
:101B80000F91FF90EF90DF90CF900895CF93DF9368
:101B90001F921F92CDB7DEB74A83698342DF698106
:101BA000862F61DF4A81842F5EDF84E98093BC0049
:101BB0000F900F90DF91CF910895CF93DF931F92F5
:101BC000CDB7DEB7E0910417F0910517958D9923F5
:101BD00021F0882339F082E01CC09681992391F08E
:101BE000811113C01982A081B1810280F381E02D9F
:101BF0009E012F5F3F4F41E051966C91808195DFB0
:101C0000882349F08FEF9FEF0EC08485811109C0B2
:101C100081E08983E8CFE0910417F091051789816D
:101C2000848780E090E00F90DF91CF91089582301B
:101C30009105C0F590936B1580936A154EE1489F0E
:101C40009001499F300D11242858394E30931B16AE
:101C500020931A164AE0489F9001499F300D1124A5
:101C6000245E394E309303172093021747E2489FB2
:101C70009001499F300D11242C54394E3093771622
:101C80002093761643E2489F9001499F300D11241E
:101C9000C901805D994E909305178093041780E0E9
:101CA00090E008958FEF9FEF0895EF92FF920F93CA
:101CB0001F93CF93DF93E0911A16F0911B1685E7DF
:101CC000808389E181838AE182838CE083838AE651
:101CD000848383E285838BE186838CE187838FE134
:101CE000828780E2838782E7848784E7858783E42D
:101CF00086878BE3878781E4808B88E3818B89E308
:101D0000828B8AE3838B8BE6858B8CE6868B87E3DD
:101D1000878B8FE6808F86E0818F84E2828F8DE6CD
:101D2000838F8EE6848F80E7858F80916A159091EE
:101D30006B15A0910217B0910317009721F001973E
:101D400021F489E601C082ED8C93E0900217F090B7
:101D5000031780E094E0D70112969C938E9311971D
:101D600086E713968C93139784E591E015969C93E0
:101D70008E93149787EF9DEF17969C938E931697EB
:101D800080E091E019969C938E931897A091761617
:101D9000B091771643E850E060E070E04D935D93BA
:101DA0006D937C93139740E058E060E070E01496E8
:101DB0004D935D936D937C93179718961C9218978B
:101DC00081E019968C9319971A961C921A9788E1BC
:101DD0001B968C931B9782E390E01D969C938E93A9
:101DE0001C9785E01E968C931E9740E050E060E2C1
:101DF00071E41F964D935D936D937C93529740E0F1
:101E000050E062ED72E453964D935D936D937C9335
:101E1000569749E25CE56FE07EE357964D935D93FC
:101E20006D937C935A970AE919E929E93EE35B9699
:101E30000D931D932D933C935E9703E313E323E7E8
:101E40003FE35F960D931D932D933C93929793964A
:101E50004D935D936D937C93969780910417909129
:101E60000517EC01F983E883FB82EA82BAA3A9A3F0
:101E7000DF91CF911F910F91FF90EF900895CF9236
:101E8000DF92EF92FF920F931F93CF93DF9300D0D7
:101E900000D0CDB7DEB7FC01892B19F48FEF9FEF8F
:101EA0009DC080819181892B49F482819381892B06
:101EB00029F484819581892B09F48EC06F01E0910A
:101EC0000417F09105170280F381E02D9E012F5F2A
:101ED0003F4F43E063E08081EBDD8111DFCFF6010E
:101EE00080819181880F991F698162956F7070E080
:101EF000685F7F4F6F707727605C7F4F0E94241C64
:101F00007B0182819381880F991F6A8162956F702E
:101F100070E0685F7F4F6F707727605C7F4F0E9433
:101F2000241C8B0184819581880F991F2B81229518
:101F30002F7030E0285F3F4F2F703327B901605C6E
:101F40007F4F0E94241C6B01E0910417F09105174C
:101F50000280F381E02D9E012F5F3F4F46E066E057
:101F60008081A6DD81119ACF898190E0982F882702
:101F70002A81822BE80EF91E8B8190E0982F88270A
:101F80002C81822B080F191F8D8190E0982F8827B4
:101F90002E81822BB601680F791FF982EA821B839A
:101FA0000C837D836E83E0910417F0910517028006
:101FB000F381E02D9E012F5F3F4F46E066E0808178
:101FC000B4DD21E030E0811102C020E030E088275C
:101FD0009927821B930B02C080E090E026960FB6F3
:101FE000F894DEBF0FBECDBFDF91CF911F910F914F
:101FF000FF90EF90DF90CF900895CF93DF931F92E3
:10200000CDB7DEB7E0910417F091051786818111F5
:1020100003C08FEF9FEF02C11982A081B1810280BE
:10202000F381E02D9E012F5F3F4F41E051966C916F
:1020300080817BDD8111EDCFE0910417F0910517D0
:10204000A081B1810280F381E02D9E012F5F3F4F7F
:1020500041E015966C91808168DD8111DACFE091C5
:102060000417F0910517A081B1810280F381E02D62
:102070009E012F5F3F4F41E014966C91808155DDAA
:102080008111C7CFE0910417F0910517858DA281CA
:10209000B381882309F459C08CE089830190F081D1
:1020A000E02D9E012F5F3F4F41E064818C913DDD2B
:1020B0008111AFCF2FE788E391E02150804090401D
:1020C000E1F700C0000080EC8983E0910417F091F3
:1020D0000517868180FF02C080EE8983A081B181CF
:1020E0000280F381E02D9E012F5F3F4F41E0149667
:1020F0006C9180811ADD81118CCFE0910417F091F1
:1021000005178485882319F082E0898301C019822C
:10211000A081B1810280F381E02D9E012F5F3F4FAE
:1021200041E051966C91808100DD811172CF19825E
:10213000E0910417F0910517A081B1810280F3812D
:10214000E02D9E012F5F3F4F5AC084E089830190AC
:10215000F081E02D9E012F5F3F4F41E064818C9123
:10216000E4DC811156CFE0910417F09105178585C5
:10217000811103C0868180FD02C080E401C080E639
:102180008983A081B1810280F381E02D9E012F5FC0
:102190003F4F41E014966C918081C7DC811139CFAB
:1021A0002FE788E391E0215080409040E1F700C0A4
:1021B0000000E0910417F09105178485882319F039
:1021C00081E0898301C01982A081B1810280F381FD
:1021D000E02D9E012F5F3F4F41E051966C91808131
:1021E000A4DC811116CFE0910417F09105179F012F
:1021F000255F3F4FA081B1810280F381E02D41E056
:1022000015966C91808191DC21E030E0811102C053
:1022100020E030E088279927821B930B0F90DF91F5
:10222000CF910895CF93DF931F92CDB7DEB7E091A2
:102230000417F091051726812223B9F1843F21E08C
:10224000920779F028F48A3F910579F519820DC03B
:10225000883E23E0920739F0803D974031F588E1D0
:1022600003C088E001C080E18983898186958695D5
:10227000869594819817E1F0A081B1810280F38165
:10228000E02D9E012F5F3F4F41E016966C918081BB
:102290004CDC81110AC0E0910417F0910517898187
:1022A000869586958695848303C08FEF9FEF02C045
:1022B00080E090E00F90DF91CF910895CF93DF936E
:1022C0001F92CDB7DEB7E0910417F0910517968104
:1022D000992389F1843059F020F4823061F5198214
:1022E0000AC0883031F0803131F588E103C088E0E0
:1022F00001C080E18983898186958695869595813F
:102300009817E1F0A081B1810280F381E02D9E0158
:102310002F5F3F4F41E017966C91808106DC811161
:102320000AC0E0910417F09105178981869586957A
:102330008695858303C08FEF9FEF02C080E090E019
:102340000F90DF91CF910895CF93DF931F92CDB778
:10235000DEB7E0910417F09105172681211103C023
:102360008FEF9FEF35C08C3B910510F081E014C0DA
:102370008236910510F082E00FC08A32910510F08C
:1023800083E00AC08431910510F084E005C00A970B
:1023900010F085E001C086E08983978189819817D4
:1023A000A9F0A081B1810280F381E02D9E012F5F11
:1023B0003F4F41E012966C918081B7DB8111D0CF05
:1023C000E0910417F09105178981878380E090E000
:1023D0000F90DF91CF9108950F931F93CF93DF93C9
:1023E000E0910417F0910517958D911128C0968101
:1023F000992341F1182F1E7F0385812F892383871D
:10240000C1E0D0E0811302C0C0E0D0E0D195C19519
:10241000D109111103C08785882329F081E0CDDB24
:10242000112391F003C080E0C8DB0EC0E6DD892BEC
:1024300059F0E0910417F0910517038703C0C0E03D
:10244000D0E002C0CFEFDFEFCE01DF91CF911F913F
:102450000F910895E0910417F0910517268122232A
:1024600021F021E0FC01208302C0FC01108280E009
:1024700090E00895AF92BF92CF92DF92EF92FF92D9
:102480000F931F93CF93DF931F921F92CDB7DEB7A9
:102490007C015B016A01E0910417F0910517858DBD
:1024A000882309F45FC08681882309F45EC0A08177
:1024B000B1810280F381E02D9E012F5F3F4F42E00A
:1024C0001C966C918081F4DA811152C0098110E070
:1024D000102F00278A81082B0E151F0528F4F601FE
:1024E000108281E090E04CC0A0910417B0910517D4
:1024F0001296ED91FC911397818192819695879523
:1025000080179107A0F40D90BC91A02D9E012F5F24
:102510003F4F41E053966C918081CADA81112BC004
:10252000898184FF04C069DD82E090E029C0E091E8
:102530000417F0910517A081B1810280F381E02D8D
:1025400095014E2D1D966C918081B2DA811116C0D5
:10255000C801B7010E94101C6150F601608380E041
:1025600090E00EC08FEF9FEF0BC08EEF9FEF08C083
:102570008DEF9FEF05C08BEF9FEF02C089EF9FEFBC
:102580000F900F90DF91CF911F910F91FF90EF90DF
:10259000DF90CF90BF90AF9008951F93CF93DF93BC
:1025A0001F92CDB7DEB7E0910417F091051795851E
:1025B000981709F485C0182FA081B1810280F3819A
:1025C000E02D9E012F5F3F4F41E014966C9180817A
:1025D000112369F16DDA882319F08FEF9FEF72C034
:1025E00089818F7D8983E0910417F0910517A0817F
:1025F000B1810280F381E02D9E012F5F3F4F41E0CA
:1026000014966C91808191DA8111E7CF8FE697E182
:102610000197F1F700C0000082E08983E091041780
:10262000F0910517838D882389F182E82CC040DA68
:102630008111D3CFE0910417F0910517868199811C
:1026400080FF02C0906201C09F7D9983A081B1810B
:102650000280F381E02D9E012F5F3F4F41E01496F1
:102660006C91808162DA8111B8CF8FE697E1019792
:10267000F1F700C00000E0910417F0910517838D79
:10268000882319F080E8898301C01982848D88230A
:1026900019F0898180638983A081B1810280F381EF
:1026A000E02D9E012F5F3F4F41E057966C91808156
:1026B0003CDA811192CFE0910417F091051715874C
:1026C00080E090E00F90DF91CF911F9108951F93CC
:1026D000CF93DF931F92CDB7DEB7E0910417F0914F
:1026E0000517948D981739F1882319F090E3998391
:1026F00001C019829585992319F099819260998377
:10270000938D992319F0998190689983182FA0814E
:10271000B1810280F381E02D9E012F5F3F4F41E0A8
:1027200057966C91808101DA811108C0E0910417FD
:10273000F0910517148F80E090E002C08FEF9FEFBB
:102740000F90DF91CF911F9108951F93CF93DF9347
:102750001F921F92CDB7DEB7893208F064C0182FE0
:1027600081111EC080E0B3DF198287E08A83E09187
:102770000417F0910517A081B1810280F381E02D4B
:102780009E012F5F3F4F42E055966C918081CDD9DD
:10279000811149C0E0910417F0910517178640C0D8
:1027A00081E095DF80E28983113011F41A8204C040
:1027B000163028F481E08A8385E090E00BC0153163
:1027C00028F482E08A838AE090E004C083E08A8370
:1027D00084E190E0B9DD8A8120E4829FC001112468
:1027E00087608A83E0910417F0910517A081B18179
:1027F0000280F381E02D9E012F5F3F4F42E055960E
:102800006C91808192D981110EC0E0910417F091F2
:10281000051788E08683108681E0878780E0DCDD0D
:1028200080E090E002C08FEF9FEF0F900F90DF915C
:10283000CF911F9108950F931F93CF93DF931F9212
:10284000CDB7DEB78C01E0910417F09105178681B2
:10285000811103C08FEF9FEF46C0858D8111FACFA4
:102860008785882349F0C8010197889718F4802F3D
:102870006CDF37C080E069DF0430110538F0B80143
:10288000093E134028F068EE73E002C064E070E097
:1028900008EE13E0C801C4D761506983E0910417C2
:1028A000F0910517A081B1810280F381E02D9E0196
:1028B0002F5F3F4F41E011966C91808136D9811195
:1028C000C9CF698170E06F5F7F4FC801BDD7E091CC
:1028D0000417F091051772876187CB01969587954C
:1028E00033DD80E090E00F90DF91CF911F910F9149
:1028F00008951F93CF93DF931F92CDB7DEB7182FA4
:10290000807711F081E005C0112311F0198202C017
:1029100080E48983E0910417F0910517A081B181CB
:102920000280F381E02D9E012F5F3F4F41E05596DD
:102930006C918081FAD8E0910417F091051781110C
:102940002BC089818F7B808716FF02C0198202C04D
:1029500084E0898315FD03C089818260898314FD29
:1029600003C089818160898313FD03C089818863E5
:102970008983A081B1810280F381E02D9E012F5FC8
:102980003F4F41E056966C918081CFD8882341F02B
:10299000E0910417F091051716828FEF9FEF16C094
:1029A000812F877F11F080E092DEE0910417F09193
:1029B0000517168317862FE788E391E021508040A2
:1029C0009040E1F700C0000080E090E00F90DF91C0
:1029D000CF911F910895EF92FF920F931F93CF9382
:1029E000DF9300D000D0CDB7DEB780E88983E091D7
:1029F0000417F0910517A081B1810280F381E02DC9
:102A00009E012F5F3F4F41E055966C9180818DD89C
:102A10008111B7C02FEF80E792E0215080409040B5
:102A2000E1F700C000001982E0910417F09105174A
:102A3000A081B1810280F381E02D9E012F5F3F4F85
:102A400041E055966C91808170D881119DC0E091D4
:102A50000417F0910517A081B1810280F381E02D68
:102A60009E012F5F3F4F46E059966C91808120D8A0
:102A700081118DC08E8180FBEE24E0F8F12CC7011E
:102A8000880F991F880F991F9C81092F017010E0F2
:102A9000000F111F082B9A819170802F892B79F0DC
:102AA000813029F4E0910417F091051727C0823096
:102AB00009F070C0E0910417F091051721C0E09172
:102AC0000417F0910517A081B1810280F381E02DF8
:102AD0009E012F5F3F4F41E013966C9180810E94D1
:102AE000580D81115AC089818F7009F459C0E09145
:102AF0000417F0910517843019F481E0868701C02E
:102B00001686E0910417F09105178FEF8683848372
:102B1000858387832FEF3FEF3287218783878587E0
:102B200081E08087838F148E108A17869F012F5E25
:102B30003F4F8AE0D9011D928A95E9F7158E168ECE
:102B400010A2178E80ED97E06DDB892B61F582E096
:102B5000B5DB892B59F58AE290E0F6DB892B49F544
:102B600088EC90E068DE892B39F580E035DC892B34
:102B700031F580E012DD8C01892B21F580E0B9DE92
:102B800023C00FEF1FEF20C00EEF1FEF1DC00DEF92
:102B90001FEF1AC00CEF1FEF17C00BEF1FEF14C091
:102BA0000AEF1FEF11C006EF1FEF0EC005EF1FEF7A
:102BB0000BC004EF1FEF08C003EF1FEF05C002EFCB
:102BC0001FEF02C000EF1FEFC80126960FB6F89462
:102BD000DEBF0FBECDBFDF91CF911F910F91FF9050
:102BE000EF900895EF92FF920F931F93CF93DF938F
:102BF0001F921F92CDB7DEB78B017A01452BB9F139
:102C0000E0910417F09105172681222399F1998309
:102C10008A83A281B3819B01280F311D18968D9163
:102C20009C9119978217930740F10190F081E02D54
:102C30009E012F5F3F4F42E0638D8C910E94950D66
:102C400081111EC0E0910417F0910517A081B18198
:102C50000280F381E02D9701402F58966C9180817E
:102C60000E94950D81110FC080E090E00EC08FEFA3
:102C70009FEF0BC08EEF9FEF08C08DEF9FEF05C059
:102C80008CEF9FEF02C08BEF9FEF0F900F90DF91C3
:102C9000CF911F910F91FF90EF900895EF92FF92C7
:102CA0000F931F93CF93DF931F921F92CDB7DEB781
:102CB0008B017A01452B19F48FEF9FEF3CC0E09117
:102CC0000417F091051726812223B1F399838A8393
:102CD000A281B3819B01280F311D18968D919C9183
:102CE00019978217930740F30190F081E02D9E0120
:102CF0002F5F3F4F42E0638D8C910E94950D8111B3
:102D0000DBCFE0910417F0910517A081B18102801B
:102D1000F381E02D9701402F58966C9180810E949D
:102D2000580D21E030E0811102C020E030E088271A
:102D30009927821B930B0F900F90DF91CF911F91DA
:102D40000F91FF90EF9008954F925F926F927F9254
:102D50008F929F92AF92BF92CF92DF92EF92FF92AB
:102D60000F931F93CF93DF93CDB7DEB762970FB664
:102D7000F894DEBF0FBECDBFE0910417F0910517A8
:102D8000E68DE11163C06115710509F462C0490166
:102D9000452E542E5B017C0180E190E0A3D66C01AE
:102DA00000E010E00E151F0580F53701601A710A6A
:102DB00081E16816710418F080E1682E712CD5014C
:102DC000A00FB11FF601C601860D971DE817F90780
:102DD00019F02D912193FACFA601B301C80102DFAA
:102DE000892BD1F5AE014F5F5F4FB301C80156DFAC
:102DF000892BA9F5A301BE016F5F7F4FC601F4D7F0
:102E0000892B81F5060D171DCDCF498A5A8AE0918D
:102E10000417F0910517A081B1810280F381E02DA4
:102E20009E012F5E3F4F42E05D966C9180810E9433
:102E3000950D81111AC0E0910417F091051781E0FA
:102E4000868F90A2878E80E090E011C08FEF9FEF79
:102E50000EC08EEF9FEF0BC08DEF9FEF08C08CEF81
:102E60009FEF05C08BEF9FEF02C08AEF9FEF629646
:102E70000FB6F894DEBF0FBECDBFDF91CF911F918B
:102E80000F91FF90EF90DF90CF90BF90AF909F9009
:102E90008F907F906F905F904F900895CF93DF93C6
:102EA0001F92CDB7DEB7E0910417F0910517958D0D
:102EB000981709F445C0882349F1868D882309F4C1
:102EC00042C080E00E94DD0D80E067DBE0910417E6
:102ED000F0910517878D90A1AEDC1982E09104175F
:102EE000F09105170280F381E02D9E012F5F3F4F87
:102EF00041E063E280810E94950DE0910417F0911A
:102F0000051781E0858F0E94DD0D19C080E00E94C9
:102F1000DD0DE0910417F091051783858983028008
:102F2000F381E02D9E012F5F3F4F41E063E28081FE
:102F30000E94950DE0910417F0910517158E5DD84C
:102F400080E090E002C08FEF9FEF0F90DF91CF9174
:102F50000895CF93DF93CDB7DEB729970FB6F894D6
:102F6000DEBF0FBECDBF89E0E0E0FEE0DE011196DE
:102F700001900D928A95E1F7AE014F5F5F4F69E0D6
:102F800070E088EB94E02EDE29960FB6F894DEBF51
:102F90000FBECDBFDF91CF91089582309105A0F48F
:102FA00090936D1580936C154BE0489F9001499F5D
:102FB000300D1124C901885F984E909307178093B4
:102FC000061780E090E008958FEF9FEF0895E0915D
:102FD0000617F09107171182108213821282158250
:102FE000148217821682118610861286089528ECA4
:102FF00030E040E054E06AE072E086EF9BE0A4CE6F
:103000000F931F93CF93DF93CDB7DEB764970FB6BF
:10301000F894DEBF0FBECDBF2CE0E9E0FEE0DE019C
:10302000119601900D922A95E1F7893C910518F0CF
:103030008FEF9FEF23C08C0188EC90E0B801F0D3B4
:10304000615071097D876E87AE01435F5F4F62E01B
:1030500070E086E192E0C6DD892B51F7AE014F5F4B
:103060005F4F6CE070E081EC9AE0BCDD009701F707
:10307000E0910617F09107171187008764960FB645
:10308000F894DEBF0FBECDBFDF91CF911F910F919E
:103090000895CF93DF93CDB7DEB729970FB6F89495
:1030A000DEBF0FBECDBF882311F053DF11C089E012
:1030B000E5E1FEE0DE01119601900D928A95E1F7BF
:1030C000AE014F5F5F4F69E070E088EB94E08ADD0E
:1030D00029960FB6F894DEBF0FBECDBFDF91CF911A
:1030E0000895CF93DF9300D01F92CDB7DEB788232A
:1030F00049F080EC898382EC8A8384EC8B8386ECB4
:103100008C8307C08BE89BE8DC0189839A83AB83BF
:10311000BC83AE014F5F5F4F64E070E088E99AE0E6
:1031200061DD0E94FD0F0F900F900F900F90DF91C7
:10313000CF910895CF93DF9300D01F92CDB7DEB724
:10314000882349F080E2898388E28A8380E38B8345
:1031500088E38C8307C083EA93EADC0189839A833E
:10316000AB83BC83AE014F5F5F4F64E070E08EE9DC
:103170009AE038DD0E94FD0F0F900F900F900F9096
:10318000DF91CF910895AF92BF92CF92DF92EF92ED
:10319000FF920F931F93CF93DF93CDB7DEB72A979C
:1031A0000FB6F894DEBF0FBECDBF8C0182E08983DD
:1031B0008AEC8A8383EE8B8389E08C83AE014F5F38
:1031C0005F4F64E070E088E690E00CDD83EA89837D
:1031D000580190E4A922BB2406FF06C080EC8A8334
:1031E00088EC8B8382EC02C08A838B838C8368019A
:1031F00080E8C82281E0D822C114D10431F084ECE7
:103200008D838CEC8E8386EC03C083EA8D838E8362
:103210008F8383EA888789878A87AE014F5F5F4FF4
:103220006AE070E087EA9AE0DDDC780193E0E92269
:10323000FF24E114F10411F080E201C088ED8983DC
:10324000AE014F5F5F4F61E070E086EB9AE0CADC51
:1032500005FF02C07EDE02C080E01BDFC114D10486
:10326000D1F010FF08C082EB89838BE88A8386EB5C
:103270008B838BE907C080EB898380E88A8384EBAA
:103280008B8380E98C83AE014F5F5F4F64E070E019
:1032900082EA9AE0A7DC02FF02C081E001C080E080
:1032A00020DF04FF02C081E001C080E043DFE09145
:1032B0000617F0910717C8018860978386830E94DC
:1032C000FD0FE0910617F0910717AB2811F4128655
:1032D00002C086E08287CD2819F082858A5F8287C6
:1032E00004711127012B19F08285805F8287EF28F6
:1032F00019F082858C5F828780E090E02A960FB675
:10330000F894DEBF0FBECDBFDF91CF911F910F911B
:10331000FF90EF90DF90CF90BF90AF9008952F92E5
:103320003F924F925F926F927F928F929F92AF9255
:10333000BF92CF92DF92EF92FF920F931F93CF93A2
:10334000DF93CDB7DEB7A6970FB6F894DEBF0FBEFA
:10335000CDBF9AA389A31B015A01A701D8011D92D1
:103360001C92E0910617F09107178285BE016F5FEE
:103370007F4F90E07FD8009709F036C1E0910617A3
:10338000F09107178681978184719927892B09F419
:10339000A5C029816A81862F90E0A0E0B0E0DC0121
:1033A00099278827B22B2C81822B2B81BC01CD0140
:1033B000722BD5016D937D938D939C9313972D81E3
:1033C0004E80512C612C712C320155244424722AD8
:1033D0002885422A2F81522A14964D925D926D9231
:1033E0007C921797A9852A85C22ED12CE12CF12C2D
:1033F0007601DD24CC24FA2AAC85CA2AAB85A70144
:1034000096013A2BD50118962D933D934D935C93DD
:103410001B97AD85CE84D12CE12CF12C7601DD24D7
:10342000CC24FA2AA889CA2AAF85DA2AD5011C96A3
:10343000CD92DD92ED92FC921F97BC01992777FD0A
:103440009095892F2301772457FC7094672C4A01AB
:10345000BB2497FCB094AB2C6701FF24D7FCF094FD
:10346000EF2C9B01AC01CDD16BA37CA38DA39EA3BC
:10347000A3019201C301B201C4D14BA05CA06DA015
:103480007EA0460E571E681E791EA5019401C50137
:10349000B401B7D1460E571E681E791EA7019601CA
:1034A000C701B601AED1DC01CB01840D951DA61D6F
:1034B000B71DBF500197A105B24038F00E94FD0F23
:1034C000D8011D921C9283E08EC0D8018D919C91F1
:1034D000119791608D939C9380E101C080E096816B
:1034E00096FF40C0282F30E0DE01A20FB31F1296D6
:1034F0004C91DE01A20FB31F11969C9150E0592B05
:10350000D1014D935C93DE01A20FB31F13964C9132
:1035100050E0542F4427DE01A20FB31F14969C9154
:10352000492BD10113965C934E931297DE01A20FA3
:10353000B31F15964C9150E0542F4427DE01A20F83
:10354000B31F16969C919A01292BD10115963C9395
:103550002E9314978A5FD8012D913C911197286082
:103560002D933C932681378120783170232BD1F124
:1035700090E0FE01E80FF91F2281FE01E80FF91F1C
:10358000418130E0342BE9A1FAA131832083FE018F
:10359000E80FF91F238130E0322F2227FE01E80FC8
:1035A000F91F4481242BA9A1BAA113963C932E9311
:1035B0001297FE01E80FF91F258130E0322F2227F4
:1035C000FE01E80FF91F8681F901E82BCF0115965E
:1035D0009C938E931497D8018D919C91119780673D
:1035E0008D939C9380E090E0A6960FB6F894DEBF92
:1035F0000FBECDBFDF91CF911F910F91FF90EF9044
:10360000DF90CF90BF90AF909F908F907F906F9002
:103610005F904F903F902F9008950F931F93CF93FB
:10362000DF9300D000D0CDB7DEB78C0180E090E012
:103630000E94170E0E94550E80E090E0CCD9909326
:1036400078158093771588E754D9909378158093EF
:10365000771580ED97E00E94121190937815809372
:10366000771582E00E945E1190937815809377150C
:1036700087E795E10E942A1288E70E94EC11909357
:1036800078158093771580E090E087DCA0DCAFDCD4
:103690009093781580937715C801B2DC90937815D4
:1036A0008093771588E39FEF9A83898388E592E07A
:1036B0009C838B8388EC90E09E838D83CE01019662
:1036C0000E943F0F909378158093771581E0E6DB99
:1036D000909378158093771580E790E054DD909370
:1036E00078158093771580E090E026960FB6F894D1
:1036F000DEBF0FBECDBFDF91CF911F910F91089517
:10370000EF92FF920F931F93CF93DF938EE6E82EF5
:1037100085E1F82E0FE615E120E030E044E657E1C0
:1037200061E775E180E090E0FADDEC0190937815B7
:1037300080937715892B09F05CC080916E158230DB
:1037400028F76091641770916517809166179091C2
:103750006717D9D020E030E040E850E360D16093B3
:10376000241770932517809326179093271760913D
:1037700068177091691780916A1790916B17C3D081
:1037800020E030E040E850E34AD16093281770937E
:10379000291780932A1790932B1760916C177091BB
:1037A0006D1780916E1790916F17ADD020E030E0CB
:1037B00040E850E334D160932C1770932D17809319
:1037C0002E1790932F176091701770917117809139
:1037D00072179091731797D020E030E040E850E3E3
:1037E0001ED16093301770933117809332179093E6
:1037F0003317CE01DF91CF911F910F91FF90EF9082
:103800000895DB018F939F9341D0BF91AF91A29F09
:10381000800D911DA39F900DB29F900D11240895CE
:10382000AA1BBB1B51E107C0AA1FBB1FA617B707E6
:1038300010F0A61BB70B881F991F5A95A9F7809502
:103840009095BC01CD01089597FB072E16F40094C6
:1038500006D077FD08D0E4DF07FC05D03EF4909554
:1038600081959F4F0895709561957F4F0895A29F10
:10387000B001B39FC001A39F700D811D1124911D44
:10388000B29F700D811D1124911D0895F0DFA59F39
:10389000900DB49F900DA49F800D911D112408954B
:1038A00004D06894B111B5C0089598D088F09F579E
:1038B00090F0B92F9927B751A0F0D1F0660F771F7C
:1038C000881F991F1AF0BA95C9F712C0B13081F05C
:1038D0009FD0B1E008959CC0672F782F8827B85FEC
:1038E00039F0B93FCCF3869577956795B395D9F7BD
:1038F0003EF490958095709561957F4F8F4F9F4FC7
:103900000895E89409C097FB3EF4909580957095D2
:1039100061957F4F8F4F9F4F9923A9F0F92F96E91B
:10392000BB279395F695879577956795B795F11190
:10393000F8CFFAF4BB0F11F460FF1BC06F5F7F4F2D
:103940008F4F9F4F16C0882311F096E911C077233F
:1039500021F09EE8872F762F05C0662371F096E848
:10396000862F70E060E02AF09A95660F771F881F17
:10397000DAF7880F9695879597F9089597F99F67D5
:1039800080E870E060E008959FEF80EC08950024E7
:103990000A941616170618060906089500240A94B4
:1039A00012161306140605060895092E0394000C3A
:1039B00011F4882352F0BB0F40F4BF2B11F460FFC9
:1039C00004C06F5F7F4F8F4F9F4F089557FD9058F2
:1039D000440F551F59F05F3F71F04795880F97FBD3
:1039E000991F61F09F3F79F087950895121613068D
:1039F0001406551FF2CF4695F1DF08C016161706BC
:103A00001806991FF1CF86957105610508940895F0
:103A1000E894BB2766277727CB0197F908950BD049
:103A2000C4CFB5DF28F0BADF18F0952309F0A6CF90
:103A3000ABCF1124EECFCADFA0F3959FD1F3950F42
:103A400050E0551F629FF001729FBB27F00DB11D22
:103A5000639FAA27F00DB11DAA1F649F6627B00DB2
:103A6000A11D661F829F2227B00DA11D621F739F9B
:103A7000B00DA11D621F839FA00D611D221F749FA9
:103A80003327A00D611D231F849F600D211D822FF0
:103A9000762F6A2F11249F5750408AF0E1F0882337
:103AA0004AF0EE0FFF1FBB1F661F771F881F915044
:103AB0005040A9F79E3F510570F060CFAACF5F3FFD
:103AC000ECF3983EDCF3869577956795B795F79577
:103AD000E7959F5FC1F7FE2B880F911D96958795FF
:103AE00097F90895CF93DF938230910510F482E027
:103AF00090E0E0917617F091771720E030E0C0E099
:103B0000D0E0309711F14081518148175907C0F03A
:103B10004817590761F482819381209719F09B839C
:103B20008A832BC0909377178093761726C0211530
:103B3000310519F04217530718F49A01BE01DF014D
:103B4000EF010280F381E02DDCCF2115310509F171
:103B5000281B390B2430310590F412968D919C91DD
:103B600013976115710521F0FB019383828304C0D3
:103B70009093771780937617FD01329644C0FD012C
:103B8000E20FF31F81939193225031092D933C93BF
:103B90003AC02091741730917517232B41F420916E
:103BA000020230910302309375172093741720910D
:103BB0000002309101022115310541F42DB73EB7C5
:103BC0004091040250910502241B350BE0917417BB
:103BD000F0917517E217F307A0F42E1B3F0B28177F
:103BE000390778F0AC014E5F5F4F2417350748F076
:103BF0004E0F5F1F509375174093741781939193E5
:103C000002C0E0E0F0E0CF01DF91CF9108950F9383
:103C10001F93CF93DF93009709F48CC0FC01329778
:103C200013821282009176171091771701151105F2
:103C300081F420813181820F931F2091741730917C
:103C400075172817390779F5F0937517E0937417EE
:103C500071C0D80140E050E0AE17BF0750F4129693
:103C60002D913C911397AD012115310509F1D90131
:103C7000F3CF9D01DA013383228360817181860F46
:103C8000971F8217930769F4EC0128813981260F69
:103C9000371F2E5F3F4F318320838A819B8193831F
:103CA0008283452B29F4F0937717E093761742C06F
:103CB0001396FC93EE931297ED01499159919E0151
:103CC000240F351FE217F30771F480819181840F6F
:103CD000951F029611969C938E93828193811396E1
:103CE0009C938E931297E0E0F0E0D80112968D91AC
:103CF0009C911397009719F0F8018C01F6CF8D91E4
:103D00009C9198012E5F3F4F820F931F2091741753
:103D1000309175172817390769F4309729F41092F4
:103D200077171092761702C01382128210937517BC
:103D300000937417DF91CF911F910F9108958F9287
:103D40009F92AF92BF92CF92DF92EF92FF92CF936A
:103D5000DF93EC01688179818A819B81611571050E
:103D60008105910521F464E279ED8BE597E02DE181
:103D700033EF41E050E08DD049015A019B01AC0185
:103D8000A7EAB1E483DD6B017C01ACEEB4EFA501E1
:103D900094019DD0DC01CB018C0D9D1DAE1DBF1D7E
:103DA000B7FF03C00197A109B04888839983AA830C
:103DB000BB839F77DF91CF91FF90EF90DF90CF9003
:103DC000BF90AF909F908F900895B9CF86E092E01A
:103DD000B6CFA0E0B0E08093060290930702A093D4
:103DE0000802B09309020895FB01DC0104C08D9123
:103DF0000190801921F441505040C8F7881B990B5D
:103E00000895FB01DC0102C001900D924150504029
:103E1000D8F70895BB272A3051F4992342F4BDE224
:103E200090958095709561957F4F8F4F9F4F01C002
:103E3000BB27FA01A62F6217710581059105330B87
:103E400030FB66F0AA27660F771F881F991FAA1FED
:103E5000A21710F0A21B63953850A9F7A05DAA33F2
:103E600008F0A95DA19336F7B111B1931082CA0190
:103E700000C0DC01FC01672F71917723E1F73297D5
:103E800004C07C916D9370836291AE17BF07C8F335
:103E90000895052E97FB16F400940FD057FD05D01A
:103EA0001AD007FC02D046F408C0509540953095D2
:103EB00021953F4F4F4F5F4F089590958095709596
:103EC00061957F4F8F4F9F4F0895B7FFDFCCDEDCAA
:103ED000821B930B0895A1E21A2EAA1BBB1BFD01A6
:103EE0000DC0AA1FBB1FEE1FFF1FA217B307E407D9
:103EF000F50720F0A21BB30BE40BF50B661F771F31
:103F0000881F991F1A9469F7609570958095909510
:0E3F10009B01AC01BD01CF010895F894FFCFD5
:103F1E000000781720000100000000007000000073
:103F2E000024000000020003000000650054FFEFB3
:103F3E000000FA80000B12820001030C30C30E8CBD
:103F4E008CE914D5400213710F8E3883F88330003C
:103F5E00F883258EF8833000F883FFFFFFFF0FFEF6
:103F6E00A9D6240004001A8279A10000003CFFFFAC
:103F7E0000000010000038836FA2003E03304000A6
:103F8E00000002CAE3093E8000002000000000008D
:103F9E0000004000000060000000000C0000000C5B
:103FAE00186E000006920A16C0DFFFFF0256FD8C47
:103FBE00D377FFE1C496E0C5BEAA00000000FFFF64
:103FCE000B2B0000165700000359400000000000A4
:103FDE001DFA00026C1D000000003FFFDFEB003EEB
:103FEE00B3B6000D227800002F3C0000000000192F
:103FFE0042B5000039A20000B365D90E9FC91DCF8E
:10400E004C3430000000500000003BB67AE80064EB
:10401E00000000C8000000000000100000001000AA
:10402E00FA921000225E000D229F00010000003265
:10403E000000FF46000063D400001000000004D60C
:10404E00000004CC000004CC000000001072000040
:10405E000040000000000000000000060002000505
:10406E0000070000000000640000000000000000D7
:10407E0000050005006400200000000000000000A4
:10408E000000000040000000030000000032F8981D
:10409E000000FF650000830F0000FF9BFC00000086
:1040AE000000000000000000000000000000000002
:1040BE0000000000000000000000000000000000F2
:1040CE000000000000000000100040000000000092
:1040DE0000060000B26A000200000001FB830068C7
:1040EE00000000D9FC007CF1FF8300000000006599
:1040FE000000006403E800640028000000250000B2
:10410E00000016A000000000100000001000002F9C
:10411E000000000001F40000100000280000FFFF66
:10412E004581FFFFFA72000000000000000000440D
:10413E0000050005BAC6004778A200000001000085
:10414E00000000000600000000140000254D002FA6
:10415E00706D000005AE000C02D0000000000000E3
:10416E0000000000000000000000001B0000000026
:10417E0000000000000000000000006400000008C5
:10418E000000000000000000000000000000000021
:10419E000000000000000000000000000000000011
:1041AE000000000000000000000000000000000001
:1041BE0000000000000000000000000000000000F1
:1041CE0000000000000000000000000000000000E1
:1041DE0000000000000000000000001B00000000B6
:1041EE00000000000000000E000E00000AC70004D0
:1041FE00000000000032FFFFFF9C00000B2B0000B0
:10420E0000020000000100000064FFE50000000055
:10421E00000000000000000000000000000100008F
:10422E0000000001000000000000000180000001FD
:10423E00800000018000002426D300000000000052
:10424E000000000600100096003C00000000000078
:10425E00000000000000000000000C0A4E68CDCFE8
:10426E00770950166759C619CE820000000000006B
:10427E000000000000000000000000000000000030
:10428E00000017D7840003000000000000000000AB
:10429E000000C7938F9D1E1B1C190000000000001C
:1042AE000000000000000000000000000000000000
:1042BE00000002031885000040000000000300000B
:1042CE00000300000000000000004000000000009D
:1042DE0000000000000000000000000000000000D0
:1042EE0000000000000000000000000000000000C0
:1042FE000000000000000000000000000000677DCC
:10430E00DF7E72902E554CF6E6880000000000000D
:10431E0000000000000000000000D8DCB4B8B0D8E7
:10432E00B9ABF3F8FAB3B7BB8E9EAEF132F51BF113
:10433E00B4B8B08097F1A9DFDFDFAADFDFDFF2AA22
:10434E00C5CDC7A90CC92C97F1A989264666B28995
:10435E0099A92D557DB0B08AA896365676F1BAA396
:10436E00B4B280C0B8A89711B28398BAA3F024084B
:10437E0044106418B2B9B49883F1A329557DBAB527
:10438E00B1A38393F0002850F5B2B6AA83932854B4
:10439E007CF1B9A3829361BAA2DADEDFDB819AB92E
:1043AE00AEF5606870F1DABAA2DFD9BAA2FAB9A393
:1043BE008292DB31BAA2D9BAA2F8DF85A4D0C1BBF2
:1043CE00AD83C2C5C7B8A2DFDFDFBAA0DFDFDFD89B
:1043DE00D8F1B8AAB38DB4980D355DB2B6BAAF8C1C
:1043EE0096198F9FA70E161EB49AB8AA872C547CC6
:1043FE00BAA4B08AB691325676B28494A4C808CDC7
:10440E00D8B8B4B0F19982A82D557D98A80E161E75
:10441E00A22C547C92A4F02C5078F184A898C4CD90
:10442E00FCD80DDBA8FC2DF3D9BAA6F8DABAA6DEB5
:10443E00D8BAB2B68696A6D0F3C841DAA6C8F8D8CE
:10444E00B0B4B882A892F52C548898F135D9F418E6
:10445E00D8F1A2D0F8F9A884D9C7DFF8F883C5DA65
:10446E00DF69DF83C1D8F40114F1A8824EA884F36A
:10447E0011D182F5D992289788F109F41C1CD884A1
:10448E00A8F3C0F9D1D99782F129F40DD8F3F9F92F
:10449E00D1D982F4C203D8DEDF1AD8F1A2FAF9A874
:1044AE008498D9C7DFF8F8F883C7DADF69DFF883B5
:1044BE00C3D8F40114F198A8822EA884F311D182E6
:1044CE00F5D992509788F109F41CD884A8F3C0F856
:1044DE00F9D1D99782F149F40DD8F3F9F9D1D982EE
:1044EE00F4C403D8DEDFD8F1AD8898CCA809F9D989
:1044FE008292A8F57CF1883ACF944A6E98DB6931A6
:10450E00DAADF2DEF9D88795A8F221D1DAA5F9F461
:10451E0017D9F1AE8ED0C0C3AE82C684C3A885951E
:10452E00C8A588F2C0F1F4010EF18E9EA8C63E56C3
:10453E00F554F18872F40115F19845856EF58E9E4D
:10454E000488F142985A8E9E068869F4011CF198EF
:10455E001E1108D0F504F11E970202983625DBF9DC
:10456E00D985A5F3C1DA85A5F3DFD88595A8F3091A
:10457E00DAA5FAD88292A8F578F1881A849F26884F
:10458E009821DAF41DF3D8879F39D1AFD9DFDFFB3D
:10459E00F9F40CF3D8FAD0F8DAF9F9D0DFD9F9D862
:1045AE00F40BD8F3879F39D1AFD9DFDFF41DF3D8E1
:1045BE00FAFCA869F9F9AFD0DADEFAD9F88F9FA81C
:1045CE00F1CCF398DB45D9AFDFD0F8D8F18F9FA8A7
:1045DE00CAF38809DAAF8FCBF8D8F2AD978D0CD924
:1045EE00A5DFF9BAA6F3FAF412F2D8950DD1D9BA1D
:1045FE00A6F3FADAA5F2C1BAA6F3DFD8F1BAB2B6CB
:10460E008696A6D0CAF349DAA6CBF8D8B0B4B8D8F5
:10461E00AD84F2C0DFF18FCBC3A8B2B68696C8C107
:10462E00CBC3F3B0B48898A821DB718D9D718595AD
:10463E0021D9ADF2FAD88597A828D9F408D8F28DE9
:10464E0029DAF405D9F285A4C2F2D8A88D9401D145
:10465E00D9F411F2D88721D8F40AD8F28498A8C8D0
:10466E0001D1D9F411D8F3A4C8BBAFD0F2DEF8F85B
:10467E00F8F8F8F8F8F8D8F1B8F6B5B9B08A95A305
:10468E00DE3CA3D9F8D85CA3D9F8D87CA3D9F8D846
:10469E00F8F9D1A5D9DFDAFAD8B18530F7D9DED855
:1046AE00F830ADDADED8F2B48C99A32D557DA08307
:1046BE00DFDFDFB591A0F629D9FBD8A0FC29D9FA06
:1046CE00D8A0D051D9F8D8FC51D9F9D879D9FBD87E
:1046DE00A0D0FC79D9FAD8A1F9F9F9F9F9A0DADF65
:1046EE00DFDFD8A1F8F8F8F8F8ACDEF8ADDE83938A
:1046FE00AC2C547CF1A8DFDFDFF69D2CDAA0DFD9DD
:10470E00FADB2DF8D8A850DAA0D0DED9D0F8F8F818
:10471E00DB55F8D8A878DAA0D0DFD9D0FAF8F8F8B7
:10472E00F8DB7DF8D89CA88CF530DB38D9D0DEDFED
:10473E00A0D0DEDFD8A848DB58D9DFD0DEA0DFD08E
:10474E00DED8A868DB70D9DFDFA0DFDFD8F1A8885C
:10475E00902C547C98A8D05C38D1DAF2AE8CDFF96C
:10476E00D8B087A8C1C1B188A8C6F9F9DA36D8A8D9
:10477E00F9DA36D8A8F9DA36D8A8F9DA36D8A8F997
:10478E00DA36D8F78D9DADF818DAF2AEDFD8F7AD80
:10479E00FA30D9A4DEF9D8F2AEDEFAF983A7D9C37E
:1047AE00C5C7F1889BA77AADF7DEDFA4F88494081D
:1047BE00A797F300AEF29819A488C6A39488F63290
:1047CE00DFF28393DB09D9F2AADFD8D8AEF8F9D19C
:1047DE00DAF3A4DEA7F1889B7AD8F38494AE19F9A4
:1047EE00DAAAF1DFD8A881C0C3C5C7A39283F62881
:1047FE00ADDED9F8D8A350ADD9F8D8A378ADD9F895
:10480E00D8F8F9D1A1DADEC3C5C7D8A18194F818BA
:10481E00F2B089ACC3C5C7F1D8B8B4B09786A83189
:10482E009B069907AB9728889BF00C201440B0B4D8
:10483E00B8F0A88A9A285078B79BA8295179247085
:10484E0059446938644831F1BBAB88002C547CF074
:10485E00B38BB8A804285078F1B088B49726A8591D
:10486E0098BBABB38B02264666B0B8F08A9CA829DB
:10487E0051798B2951798A2470598B2058718A4429
:10488E0069388B3940688A6448318B30496088F1C9
:10489E00AC002C547CF08CA804285078F188972614
:1048AE00A85998AC8C02264666F0899CA8295179A5
:1048BE00247059446938644831A98809205970AB6D
:1048CE0011384069A8193148608CA83C415C207CA5
:1048DE0000F187981986A86E767EA999882D557D48
:1048EE00D8B1B5B9A3DFDFDFAED0DFAAD0DEF2AB31
:1048FE00F8F9D9B087C4AAF1DFDFBBAFDFDFB9D8D3
:10490E00B1F1A3978E60DFB084F2C8F8F9D9DED882
:10491E009385F14AB183A308B5839A0810B79F1007
:10492E00D8F1B0BAAEB08AC2B2B68E9EF1FBD9F44F
:10493E001DD8F9D90CF1D8F8F8AD61D9AEFBD8F481
:10494E000CF1D8F8F8AD19D9AEFBDFD8F416F1D8C2
:10495E00F8AD8D61D9F4F4ACF59C9C8DDF2BBAB615
:10496E00AEFAF8F40BD8F1AED0F8AD51DAAEFAF8E3
:10497E00F1D8B9B1B6A3839C08B9B1839AB5AAC0D0
:10498E00FD3083B79F10B58B93F20202D1ABDADE06
:10499E00D8F1B080BAABC0C3B284C1C3D8B1B9F339
:1049AE008BA391B609B4D9ABDEB0879CB9A3DDF168
:1049BE00B38B8B8B8B8BB087A3A3A3A3B28BB69B2E
:1049CE00F2A3A3A3A3A3A3A3A3A3A3F1B087B59A12
:1049DE00A3F39BA3A3DCBAACDFB9A3A3A3A3A3A3A6
:1049EE00A3A3A3A3A3A3A3A3A3A3D8D8D8BBB3B7AE
:1049FE00F1AAF9DAFFD9809AAA28B48098A720B72D
:104A0E009787A86688F07951F1902C870CA781972B
:104A1E006293F071716085940129517990A5F12806
:104A2E004C6C870C95188578A38390284C6C886CF9
:104A3E00D8F3A28200F210A8921980A2F2D926D839
:104A4E00F188A84DD948D896A83980D93CD89580F8
:104A5E00A839A68698D92CDA87A72CD8A8899519B3
:104A6E00A980D938D8A88939A980DA3CD8A82EA827
:104A7E003990D90CD8A8953198D90CD8A809D9FF56
:104A8E00D801DAFFD89539A9DA26FFD890A80D8972
:104A9E0099A810809821DA2ED88999A83180DA2E1B
:104AAE00D8A886963180DA2ED8A8873180DA2ED80B
:104ABE00A88292F34180F1D92ED8A882F31980F101
:104ACE00D92ED882ACF3C0A28022F1A62EA72EA991
:104ADE002298A829DAACDEFFD8A2F22AF1A92E82FA
:104AEE0092A8F23180A696F1D900AC8C9C0C30AC19
:104AFE00DED0DEFFD88C9CACD010ACDE8092A2F261
:104B0E004C82A8F1CAF235F19688A6D900D8F1FFE9
:104B1E00B8AAB38DB4980D355DFEF2ABC4AAF1DF21
:104B2E00DFBBAFDFDFB8AAAAAAB088C3C5C7D8B1AA
:104B3E00B9F38BA391B609B4D9DAB1B9F38BA391BA
:084B4E00B6DAB4DA0020210000
:00000001FF
