:1000000099C00000B8C00000B6C00000B4C0000035
:10001000B2C00000B0C00000AEC00000ACC0000024
:10002000AAC00000A8C00000A6C00000A4C0000034
:10003000A2C00000D9C000009EC000009CC000000B
:100040009AC0000098C0000096C0000094C0000054
:1000500092C0000090C000008EC000008CC0000064
:100060008AC0000088C0000086C0000084C0000074
:1000700082C0000080C000007EC000007CC0000084
:100080007AC0000078C0000076C0000074C0000094
:1000900072C0000070C000006EC000006CC00000A4
:1000A0006AC0000068C0000066C0000064C00000B4
:1000B00062C0000060C000005EC000005CC00000C4
:1000C0005AC0000058C0000056C0000054C00000D4
:1000D00052C0000050C000004EC000004CC00000E4
:1000E0004AC0000048C0000046C0000044C00000F4
:1000F00042C0000040C000003EC000003CC0000004
:100100003AC0000038C0000036C0000034C0000013
:1001100032C0000030C000002EC000002CC0000023
:100120002AC0000028C0000026C0000024C0000033
:1001300022C0000011241FBECFEFD1E8DEBFCDBF2B
:1001400000E00CBF12E0A0E0B2E0E6E1FFE100E079
:100150000BBF02C007900D92A830B107D9F72AE073
:10016000A8E0B2E001C01D92A931B207E1F70E94F8
:10017000570E0C94890F44CF14BE0FB6F894A8956F
:1001800080916000886180936000109260000FBED3
:10019000E1E6F0E080E88083108278940BD08FEF66
:1001A00082B985B988B98BB98EB981BB84BB249AD1
:1001B0002C9A08951092E60984EA8093B30080E2B5
:1001C0008093B6008091B60080FDFCCF8091B00096
:1001D00082608093B00081E08093B10080917000D4
:1001E00082608093700008951F920F920FB60F9255
:1001F00011248F938091E6098F5F8093E6098F9198
:100200000F900FBE0F901F90189580910802982FA5
:100210009F7080915401807F892B8093540190912D
:10022000080280910902992319F0809353010895DF
:100230008F7190914801907E892B80934801089599
:1002400093E090934201909141019F719830D9F7CA
:1002500080934201909141019F718913FBCF0895D2
:1002600088E0EEDF8FEF80934F0180910A028823B0
:1002700011F086E1E5CF0895E9E3F1E08081816046
:10028000808310920A021092080281E080938B0210
:1002900088E0D6DF8BEE80935601ECE4F1E08081BC
:1002A00080688083089580930A02DACF80930902E0
:1002B000ACCFCF93DF931F921F92CDB7DEB79A8357
:1002C0008983809362018A81809363010F900F90EC
:1002D000DF91CF910895CF93DF931F921F92CDB7F7
:1002E000DEB79A838983809360018A81809361015C
:1002F0009A818981890F80936D010F900F90DF9112
:10030000CF910895E9E3F1E080818D7F8083A8DFBC
:1003100081E080938B0208951F93CF93DF931F9208
:100320001F92CDB7DEB7182F89E169839A8388DFE2
:100330008FEF80934F01698182E0860F8093800167
:10034000212FE12F9A81F92FA1E8B1E08E2F821B96
:10035000861718F481918D93F9CF83E080938B02F7
:1003600082E0809342010F900F90DF91CF911F9117
:100370000895CF93DF9300D000D0CDB7DEB7809142
:100380008B02823009F463C080914F0183FF3BC030
:1003900040917B0150E0242F30E0852F90E028171A
:1003A000390754F0FC01E058FE4F6081FC01E55F25
:1003B000FD4F60835F5FF1CF8BE092E09A8389838A
:1003C00042504B83F901E55FFD4F80818C83809122
:1003D00047018A558D83CE010196A1D380914101B9
:1003E0008F718631D9F780914F01886080934F01DA
:1003F00080914C018F7780934C0180914C018068F3
:1004000080934C0124C080914F0186FF20C08091D1
:1004100041018F718931B1F48091420182958695B5
:10042000877049F0833021F0853021F083E003C0EC
:1004300081E001C082E08E8313DF91E090938B0214
:100440008E81CDD680914F01806480934F01269696
:100450000FB6F894DEBF0FBECDBFDF91CF910895E8
:100460001092EB091092EC091092E8091092E7093A
:1004700010920E0A10920D0AEDEEF9E0119211920F
:100480008AE0ED30F807D1F7D5D527D3F1D033D0B6
:1004900061C19093E8098093E7091DCF9093EA0921
:1004A0008093E90906CFE82FF0E0EE0FFF1FE3513C
:1004B000F64F71836083089525CF5BD3B1D63EC0DC
:1004C000E0918C02F0918D023097A1F0228133816E
:1004D0002817390759F4DC01AD57BF4F2C912787F6
:1004E00013962C91208B22E0248304C00190F0818C
:1004F000E02DEACFFCC010928D0210928C0208957C
:10050000FC01148217861382128280910D0A909149
:100510000E0A019690930E0A80930D0A80918C0228
:1005200090918D02009719F41182108202C091837C
:100530008083F0938D02E0938C0208950F931F93B4
:10054000CF93DF93E0918C02F0918D02EF01209721
:1005500009F489C08C81882321F0823009F459C0C4
:100560007EC08DD08C01009721F482E08C838F8730
:100570007AC09B838A8381E08C83F801E957FF4F1F
:1005800080E692E0918380833197898582FB88277A
:1005900080F98083F8018385998590FB80F98387B2
:1005A000998593FB992790F990FB82F98387809135
:1005B000EB098F5F8093EB0984878091E709909125
:1005C000E809968785878D819E81908B87878885AE
:1005D000982F9F708189807F892B818B9F81929535
:1005E000907F8F70892B818BEF57FF4F4C8550E0A8
:1005F0006A857B85808191810E945E0FF8019181DF
:100600008C85890F8183C801DF91CF911F910F9154
:1006100034C5EC17FD0739F48881998190938D02D8
:1006200080938C020BC0808191818C179D0711F003
:10063000FC01F9CF888199819183808380910D0A93
:1006400090910E0A019790930E0A80930D0AED8502
:10065000FE85CE01DF91CF911F910F9119940990E2
:10066000D881C02D74CFDF91CF911F910F91089544
:1006700010928E02109217031092A0030895809199
:100680008E02882359F080911703882351F08091BE
:10069000A003811129C082E090E005C080E090E0D5
:1006A00002C081E090E049E8489F9001499F300DE9
:1006B0001124C90182579D4FFC0111924A95E9F717
:1006C00040E1FC014183EF57FF4F20563D4F3183FE
:1006D000208320910D0A30910E0A2F5F3F4F3093F7
:1006E0000E0A20930D0A089580E090E00895FC0121
:1006F0001082E7EEF9E086A197A1019797A386A360
:100700000895009711F0FC0103C0EEE8F2E002C08A
:10071000E757FF4F84E0E932F80728F48081882307
:10072000B9F3CF01089580E090E00895FC01DC0169
:10073000AD57BF4F1C92A7EEB9E014969C91149749
:100740009F5F14969C93149794878D919C919687A4
:1007500085870895E9E2F4E080E090E04FEF5FEFF5
:1007600037E052834183389FD001399FB00D112467
:10077000A75DBB4F2C912E7F2C9315820196379647
:100780008436910571F70895CF93DF93A9E2B4E021
:1007900020E030E0C7E070E01196ED91FC911297F7
:1007A000E817F90789F4C29FF001C39FF00D1124E7
:1007B000E75DFB4FD081D1FB442740F950E046175D
:1007C000570711F4CF0108C02F5F3F4F179624360B
:1007D000310511F780E090E0DF91CF91089580E03E
:1007E00090E0E0E0F0E0DC01A75DBB4F2C9120FD44
:1007F0000BC015962C911597222361F0309719F0B4
:100800003581231708F4FD0107968C3B22E09207FF
:1008100051F701C0FD0180818D708063808380E885
:100820008583CF010895FC01808180FD05C08FEF95
:100830009FEF9283818315820895A6DF009721F0B0
:10084000FC018381948108958FEF9FEF08959CDFD1
:10085000009709F0E8CF0895EF92FF920F931F934E
:10086000CF93DF93EC0109851A8517FF06C08D85AC
:100870009E850817190709F045C08D819E81019654
:1008800009F440C060E08D859E857EDFFC01CE01CD
:100890008D579F4F7C01309741F18F81988501964C
:1008A00079F491E080E04091E7095091E8092F85C3
:1008B00038894217530709F090E0292F382F02C0DA
:1008C00020E030E0838194818017910729F0D701DF
:1008D0009C918681891710F0232B89F01483038360
:1008E00090819F70906390830AC079DFFC018D85B1
:1008F0009E859283818389859A8594838383D7019A
:100900008C918683DF91CF911F910F91FF90EF9093
:100910000895CF93DF93EC018F8598898F3F2FEF58
:100920009207A1F16B8563FB662760F92DDFFC015F
:10093000892B61F1908190FD29C0CD57DF4F28812F
:10094000892F8F70211113C08063808385818F5F11
:1009500085838F3FD9F4EEE2F4E0808186958F5F46
:100960008083379686E0EA3EF807B9F70FC0929584
:100970009F70915F9F70292F2295207F822B80830B
:10098000911104C0CF01DF91CF914DCFDF91CF9175
:100990000895CF93DF93FC01878590898F3F2FEFD8
:1009A000920719F0638562FF03C09087878307C0B1
:1009B000EF0163FB662760F940DF98878F83DF9143
:1009C000CF910895AF92BF92CF92DF92FF920F9393
:1009D0001F93CF93DF938C01FC01F384F3FAFF2480
:1009E000F0F8A784B0886F2DC50127DF019699F034
:1009F000F801E957FF4F11821082319782E080831E
:100A0000C801DF91CF911F910F91FF90DF90CF90A0
:100A1000BF90AF9032C3F801C584D68430DEEC01BC
:100A20000097C1F083DE99819A5F9983FE01E957AF
:100A3000FF4F11821082D88ACF8636970190F081BD
:100A4000E02D81E08083D282C182B482A382F582CC
:100A5000CE0113D3C801DF91CF911F910F91FF9069
:100A6000DF90CF90BF90AF9042CEDC011796ED9112
:100A7000FC91189719968C91863031F465818381A9
:100A80009481E5DE81E0089580E00895AC01E7EF10
:100A9000F6E020E09081992319F09150908321E0B5
:100AA000359687E0E932F807A9F7222311F0CA0149
:100AB000F0C40895DC0119962C911997222359F05E
:100AC0001796ED91FC9118972081222319F021307F
:100AD00011F4CBCF63C380E0089580E090E0FC0187
:100AE000ED50F94F1482059682339105C1F784E6E3
:100AF00090E0A0E0B0E08093EB069093EC06A0932A
:100B0000ED06B093EE061092EF0686E495E0909322
:100B1000F1068093F0066AE575E080E0C4CCCF93DF
:100B2000DF93EC01E881F98181818838F9F48081D3
:100B30008F7D8134D9F48A818031C0F0A0DD0097A7
:100B4000A9F020E2FC0120832A8121832B81ED572B
:100B5000FF4F20832C81319620834A8150E06881A9
:100B600079810296DF91CF910C945E0FDF91CF9146
:100B700008956F927F928F929F92AF92BF92CF9281
:100B8000DF92EF92FF920F931F93CF93DF93CDB736
:100B9000DEB72C970FB6F894DEBF0FBECDBF00E0D6
:100BA00010E094E2D92E8824839422E2C22E33E20C
:100BB000932E4FE1B42E55E0A52EEE24E394F12CB4
:100BC000C8019FDD8C01892B09F4BDC1D8018C912E
:100BD000823209F4D2C018F4803249F0F1CF833266
:100BE00009F49AC1843261F7C80181DDE9CFF801C7
:100BF000D0822385822F8A7019F745815681878597
:100C000090894F3F5F4F59F42091E7093091E809EF
:100C10002817390709F4AEC0019691F6ABC00196CA
:100C200011F420FDCDCF2091E7093091E809F801BA
:100C3000858596852817390709F4C2CFC8010CDECF
:100C4000A3EFB6E080E090E060E070E014962C91B5
:100C50001497222309F453C0F801458556852D9138
:100C60003C9111974217530709F04AC02485A89E6A
:100C7000F001A99EF00D1124ED50F94F8281821BE5
:100C8000883070F54381242F30E0082E02C035955E
:100C900027950A94E2F720FF19C02091E7093091C7
:100CA000E809D80117968D919C9118972817390754
:100CB00009F086CF1B966C911B9763FB662760F942
:100CC0001F968D919C915097C2DD7ACF970102C0FB
:100CD000220F331F8A95E2F7C901842B83832BC02F
:100CE0002283238130E08195A90102C0440F551F62
:100CF0008A95E2F7CA0181608383B4821CC0BD017A
:100D00000196159657E0A532B50709F09FCF6115FA
:100D1000710509F455CFD8011D968D919C911E97B0
:100D2000FB01918380831C968C9182838382B482A1
:100D300085EE96E0AED3D80117968D919C911897C9
:100D4000019669F42091E7093091E809D8011F96CE
:100D50008D919C9150972817390709F0E0C0809138
:100D6000E7099091E809F8012785308982179307F0
:100D700009F0DCC0D801CC9223CF1092F206D80142
:100D800051962C915197322F32953F70E32FF0E01E
:100D9000EE0FFF1FE351F64F0190F081E02D3097E9
:100DA00009F45CC01D968D919C911E979A8389834E
:100DB0001F964D915C9150975C834B832F702D83D0
:100DC0003E83AF57BF4F6D917C91798768879801BB
:100DD0002E5F3F4F261B370BD80111963C91119780
:100DE000230F2A87AD57BF4F2C912B8711962C913B
:100DF0002C87D8011B966C91262F237062FD02C0B0
:100E000030E001C030E2232B63FD02C030E001C0BE
:100E100030E4322B4F3F5F4F11F020E001C024E05F
:100E2000232BD80119964D915C911A978417950739
:100E300011F090E001C098E0922BD80115962D9109
:100E40003C9116972F3F3F4F11F080E001C080E1A9
:100E5000892B8F83CE010196199501C080E0F8019E
:100E6000938590FF80E0D80117964D915C9118977B
:100E70002091E7093091E8094F3F5F4F41F4F801B5
:100E8000478550892417350711F493FF81E0D80175
:100E900015964D915C9116974F3F5F4F09F480E096
:100EA0002F3F3F4FB1F18823A1F1E9DB3C010097CF
:100EB00081F13CDCD30111968C9111978D5F1196D5
:100EC0008C931197F301E957FF4F11821082F801BB
:100ED0008385869581701B969C911B9780FB91F969
:100EE0001B969C931B978585968550969C938E9315
:100EF0001F97F301EF57FF4F0190F081E02D108213
:100F00008091F2068283D8011C968C918183C30163
:100F1000B4D0F801D08254CEC80154DD51CE1B9616
:100F20008C9182FD1CCFC801F4D019CF2F3F3F4FC9
:100F300009F420CFF801278130858217930709F043
:100F40003FCE90823DCE2C960FB6F894DEBF0FBEFA
:100F5000CDBFDF91CF911F910F91FF90EF90DF9068
:100F6000CF90BF90AF909F908F907F906F9008959B
:100F70000F931F93CF93DF938C01C0E0E0E0F0E08C
:100F8000D3E1CF01BEDBFC01892B91F0808181315F
:100F9000C1F7DF01AC57BF4F2D913C911197215004
:100FA00031092D933C93232B09F4D083C1E0E9CF81
:100FB000CC2331F0C801DF91CF911F910F9169C20D
:100FC000DF91CF911F910F910895FF920F931F937F
:100FD000CF93DF938C01C0E0E0E0F0E0D7E180E167
:100FE000F82ECF018EDBFC01892BA9F080818631A0
:100FF000C1F7DF01AC57BF4F2D913C9111972150A4
:10100000310911963C932E93232B19F4D083119719
:10101000FC92C1E0E6CFCC2339F0C801DF91CF913B
:101020001F910F91FF9035C2DF91CF911F910F91CA
:10103000FF9008951092400710923F07E2E3F7E017
:1010400082E390E0A0E0B0E086839783A087B18739
:10105000128685EE97E094878387E5E2F7E08AE0E1
:1010600090E0A0E0B0E086839783A087B1871286E6
:1010700088EB97E09487838708950F931F93CF930E
:10108000DF93EC01FC01EA57FF4F808192E19883E6
:101090003397108280FF03C02FEF3FEF04C02091F1
:1010A000E9093091EA093E832D83857019F4CE0158
:1010B00070DC04C08F85988998878F838091E709B9
:1010C0009091E8099A8789878091EC098F5F8093D6
:1010D000EC098C838F8198858E010C571F4F0196E8
:1010E00061F481E498E89B838A83DAD68770992734
:1010F0000196F8019183808307C081E698E89B837D
:101100008A83F80111821082DF91CF911F910F9194
:1011100008950F931F93CF93DF938C01B0DAEC0106
:10112000892BB9F182E18883F80181818983FE01ED
:10113000ED57FF4F1082B4D6FE01EC57FF4F87707A
:101140009927019691838083339611821082F8014A
:10115000418150E0B8016E5F7F4FCE010296AED65E
:1011600081E498E89B838A838FEF9FEF98878F8332
:10117000F801858196819E838D838091E709909106
:10118000E8099A8789878091EC098F5F8093EC0941
:101190008C83DF91CF911F910F910895CF93DF93AF
:1011A000FC01C781D0858185833011F080E014C0B7
:1011B00080E090E0A6DA0097C9F3FC012081263197
:1011C000C9F7348529813213F5CF27E120832A819D
:1011D000EA57FF4F208381E0DF91CF910895A091DE
:1011E0003F07B0914007833030F4E82FF0E0EC5F28
:1011F000FD4F808101C081E0FD01ED57FF4F8083ED
:1012000085E18C931092400710923F0780910D0A60
:1012100090910E0A019790930E0A80930D0A0895FB
:10122000BF92CF92DF92EF92FF920F931F93CF93D3
:10123000DF93C0E0D0E004E117E186E1D82E95E12C
:10124000E92EF12C23E1C22E31E1B32ECE0159DA81
:10125000EC01892B09F45EC088818331B9F018F460
:10126000823139F0F3CF853151F1873109F443C030
:10127000EDCFFE01EC57FF4F80819181892B21F04A
:10128000B88285E297E033C0C882E0CF80913F0703
:1012900090914007892BD1F6D0934007C0933F0728
:1012A00008836981CE01029637D880910D0A90910A
:1012B0000E0A019690930E0A80930D0AC7CFFE0185
:1012C000ED57FF4F8081811114C02D853E8580919F
:1012D000E7099091E8092817390759F48B8580FFB1
:1012E00008C0D8823196F182E08282E397E0D1D0C3
:1012F000ADCF1883ABCFCE010CDBFE01E957FF4F1A
:101300000190F081E02DCE01309711F4F0D99ECFFD
:1013100019959CCFDF91CF911F910F91FF90EF9086
:10132000DF90CF90BF9008950E94BC0062D00E94D1
:101330003C0196C81ED8C1D8B9C00F931F93CF9354
:10134000DF93FC018091410790914207B681A7810C
:10135000308521850097F1F14B2F5A2F632F722F83
:10136000DC01D0E0C0E012960D911D912D913C91D1
:101370001597401751076207730768F4041B150B94
:10138000260B370B12960D931D932D933C931597B7
:10139000AD2FBC2F0EC0401B510B620B730B2D9158
:1013A0003C911197DA2FCB2F2115310511F0D9017E
:1013B000DACF4283538364837583109741F08D9114
:1013C0009C91119791838083ED93FC930DC0918341
:1013D000808306C011821082B283A3833483258365
:1013E000F0934207E0934107DF91CF911F910F9156
:1013F000089510924207109241070895CF93DF930A
:10140000DC01E0914107F0914207C0E0D0E0309765
:1014100061F1EA17FB0721F58D919C9111972097B7
:1014200019F09983888304C0909342078093410701
:10143000ED91FC9111973097C1F042815381648105
:10144000758112968D919D910D90BC91A02D840F68
:10145000951FA61FB71F82839383A483B58305C0FE
:10146000EF010190F081E02DD2CFDF91CF9108956F
:10147000E0914107F0914207309739F0E817F907FA
:1014800031F00190F081E02DF7CF80E0089581E008
:101490000895CF93DF93EC01EBDF811104C0CE01FF
:1014A000DF91CF914ACFDF91CF910895CF92DF9214
:1014B000EF92FF92CF93DF938091E6098823C1F1E9
:1014C0008FB7F8942091E6091092E6098FBF30E0BB
:1014D000A5E0B0E085D46B017C01C0914107D091BB
:1014E0004207209729F18A819B81AC81BD81C81672
:1014F000D906EA06FB06A0F0C81AD90AEA0AFB0ACE
:101500008881998190934207809341078A85813031
:1015100011F4CE0112DFEB85FC85CE011995DDCFEC
:101520008C199D09AE09BF098A839B83AC83BD8357
:10153000DF91CF91FF90EF90DF90CF9008950F93C0
:101540001F936A3071058105910520F4605D7F4F1E
:101550008F4F9F4F8B019C010A50110921093109BE
:10156000063011052105310520F4695C7F4F8F4F4E
:101570009F4F862F1F910F910895CF92DF92EF9288
:10158000FF92CF93DF9300D01F92CDB7DEB76B01F0
:101590007C0120E03AEC4AE95BE300D421153105F7
:1015A0004105510571F0CA01B90129833A834B8382
:1015B0005C83C5DF80930F0A29813A814B815C816E
:1015C00003C080E280930F0A60E07AEC8AE99BE333
:1015D000D6D3C61AD70AE80AF90AC701B60120E02D
:1015E00031EE45EF55E0DAD32115310541055105BE
:1015F00021F480910F0A803271F0CA01B901298368
:101600003A834B835C839BDF8093100A29813A8164
:101610004B815C8102C08093100A60E071EE85EF1F
:1016200095E0ADD3C61AD70AE80AF90AC701B60190
:1016300020E836E948E950E0B1D3211531054105EC
:10164000510541F48091100A803221F480910F0AF3
:10165000803271F0CA01B90129833A834B835C83DC
:101660006EDF8093110A29813A814B815C8102C02F
:101670008093110A60E876E988E990E080D3C61A81
:10168000D70AE80AF90AC701B60120E432E44FE0BC
:1016900050E084D3211531054105510561F4809155
:1016A000110A803241F48091100A803221F4809135
:1016B0000F0A803271F0CA01B90129833A834B8342
:1016C0005C833DDF8093120A29813A814B815C81E2
:1016D00002C08093120A60E472E48FE090E04FD37E
:1016E000C61AD70AE80AF90AC701B60120EA36E89D
:1016F00041E050E053D3211531054105510581F4F6
:101700008091110A803261F48091100A803241F494
:1017100080910F0A803221F48091120A803271F098
:10172000CA01B90129833A834B835C8308DF809324
:10173000130A29813A814B815C8102C08093130A8C
:1017400060EA76E881E090E01AD3C61AD70AE80A80
:10175000F90AC701B60120E137E240E050E01ED3AC
:101760002115310541055105A1F48091110A8032FE
:1017700081F48091100A803261F480910F0A8032E6
:1017800041F48091120A803221F48091130A803250
:1017900071F0CA01B90129833A834B835C83CFDEA0
:1017A0008093140A29813A814B815C8102C0809325
:1017B000140AA0E1B7E223D3C61AD70AE80AF90A45
:1017C000C701B60128EE33E040E050E0E7D2211532
:1017D000310541055105C1F48091110A8032A1F40F
:1017E0008091100A803281F480910F0A803261F476
:1017F0008091120A803241F48091130A803221F4E0
:101800008091140A803271F0CA01B90129833A83A8
:101810004B835C8394DE8093150A29813A814B8146
:101820005C8102C08093150AA8EEB3E0E8D2C61A24
:10183000D70AE80AF90AC701B60124E630E040E019
:1018400050E0ACD22115310541055105E1F48091FC
:10185000110A8032C1F48091100A8032A1F4809183
:101860000F0A803281F48091120A803261F48091F3
:10187000130A803241F48091140A803221F480915D
:10188000150A803271F0CA01B90129833A834B836A
:101890005C8355DE8093160A29813A814B815C81F5
:1018A00002C08093160AA4E6B0E0A9D2C61AD70AED
:1018B000E80AF90AC701B6012AE030E040E050E04A
:1018C0006DD2211531054105510501F58091110AAF
:1018D0008032E1F48091100A8032C1F480910F0AC5
:1018E0008032A1F48091120A803281F48091130A2F
:1018F000803261F48091140A803241F48091150A9B
:10190000803221F48091160A803271F0CA01B90147
:1019100029833A834B835C8312DE8093170A2981E3
:101920003A814B815C8102C08093170AAAE0B0E043
:1019300066D2A7019601261B370B480B590BCA012B
:10194000B901FDDD8093180A0F900F900F900F9052
:10195000DF91CF91FF90EF90DF90CF9008950DDE53
:10196000EFE0FAE031E04091DC085091DD08809131
:10197000DA089091DB084817590709F461C02191F2
:10198000203269F14091DE085091DF088091D8083B
:101990009091D908BC016F5F7F4F7093D908609315
:1019A000D808DA01A80FB91F2C934091D80850919C
:1019B000D9088091DA089091DB084817590721F47B
:1019C0001092D9081092D8088091DC089091DD0817
:1019D00001969093DD088093DC083093D5088AE067
:1019E000E931F80709F0BFCF2091DE083091DF0818
:1019F0008091D8089091D908AC014F5F5F4F509308
:101A0000D9084093D808F901E80FF91F20E2208394
:101A10002091D8083091D9088091DA089091DB089C
:101A20002817390721F41092D9081092D80880910C
:101A3000DC089091DD0801969093DD088093DC0826
:101A40000895E6EDF8E08CE098E09187808788ECD7
:101A500090E095838483178216821182108213820C
:101A60001282E0EEF8E023E437E0318720879583A7
:101A7000848317821682118210821382128210923E
:101A8000D50808954091E6085091E7082091E408B0
:101A90003091E5084217530759F14091E8085091F9
:101AA000E9082091E2083091E308B9016F5F7F4FA8
:101AB0007093E3086093E208FA01E20FF31F80835A
:101AC0002091E2083091E3088091E4089091E508C4
:101AD0002817390721F41092E3081092E208809148
:101AE000E6089091E70801969093E7088093E6084E
:101AF00008954FB7F8942091DE083091DF08809167
:101B0000D6089091D708BC016F5F7F4F7093D708BC
:101B10006093D608F901E80FF91F80816091D6081B
:101B20007091D7082091DA083091DB0862177307AB
:101B300021F41092D7081092D6082091DC08309139
:101B4000DD08215031093093DD082093DC084FBFB8
:101B500008958091E6089091E708892B49F095B1A6
:101B600080E1892785B961EB78E68EED9AE3F7DEAF
:101B70003FB7F8942091D5081092D5088091DC08E1
:101B80009091DD083FBF21115EC008951092C609F3
:101B900008950F931F93CF938C01C0E0F8018185C6
:101BA000C81758F4D8011796ED91FC911897EC0FCF
:101BB000F11D808167DFCF5FF1CF81E0CF911F9171
:101BC0000F910895CF93DF938091EA08813021F43B
:101BD0000E945C021092EA088091C60981112FC010
:101BE000D091EB08DD2359F14D2F50E06CEE78E0F9
:101BF00089E599E063D181E090E09093CD098093ED
:101C0000CC09C1E0C093CE09C093CF0983E0809393
:101C1000D00989E599E09093D2098093D109D093B6
:101C2000D30986EC9DE09093D5098093D40987EC85
:101C300099E00E9480021092EB08C093C609DF91E0
:101C4000CF910895BFCFEF92FF920F931F93CF9341
:101C5000DF931F92CDB7DEB78C01E12CF12CE0169B
:101C6000F106C1F046DF9091EB089D3619F48983A7
:101C7000A9DF8981E091EB08ED3640F491E09E0FF9
:101C80009093EB08F0E0E451F74F80838FEFE81A70
:101C9000F80AE5CF88ED99E0B1DB88ED99E00F9087
:101CA000DF91CF911F910F91FF90EF90F2CB809138
:101CB00064008FEF80936400809165008967809352
:101CC0006500809163008F608093630083B7817F9C
:101CD000866083BF809164008F7B809364008091D5
:101CE00065008F7B80936500809163008E7F809379
:101CF0006300809163008D7F809363008091630017
:101D00008B7F8093630010DB60E076E980E090E0F9
:101D100098DE84E1C82ED12CE12CF12CC2E2DEE069
:101D200009DB17DF8091E5098111FACF80E090E0AF
:101D30000E94490287E695E40E944E028FE00E94CD
:101D4000560181E00E94530169EC7DE081E00E9430
:101D50005302829A8A9A999AA198C092DE09D092E7
:101D6000DF09E092E009F092E1091092E209D093D4
:101D7000E409C093E30981E08093E509D1CFDB0159
:101D80008F939F933CD0BF91AF91A29F800D911DE7
:101D9000A39F900DB29F900D11240895A1E21A2ED9
:101DA000AA1BBB1BFD010DC0AA1FBB1FEE1FFF1FFF
:101DB000A217B307E407F50720F0A21BB30BE40B4F
:101DC000F50B661F771F881F991F1A9469F7609596
:101DD0007095809590959B01AC01BD01CF01089550
:101DE000A29FB001B39FC001A39F700D811D11245C
:101DF000911DB29F700D811D1124911D0895F0DF7A
:101E0000A59F900DB49F900DA49F800D911D11244E
:101E100008958F929F92AF92BF92CF92DF92EF92EE
:101E2000FF92CF93DF93EC01688179818A819B8156
:101E3000611571058105910521F464E279ED8BE569
:101E400097E02DE133EF41E050E041D049015A01E4
:101E50009B01AC01A7EAB1E4D2DF6B017C01ACEEDF
:101E6000B4EFA501940151D0DC01CB018C0D9D1D77
:101E7000AE1DBF1DB7FF03C00197A109B0488883FD
:101E80009983AA83BB839F77DF91CF91FF90EF90D7
:101E9000DF90CF90BF90AF909F908F900895B9CF73
:101EA00080E092E0B6CFA0E0B0E080930002909393
:101EB0000102A0930202B09303020895FB01DC012A
:101EC00002C001900D9241505040D8F70895052E60
:101ED00097FB16F400940FD057FD05D05FDF07FC89
:101EE00002D046F408C050954095309521953F4F5B
:101EF0004F4F5F4F089590958095709561957F4FF6
:101F00008F4F9F4F0895B7FF7ACF79DF821B930BD6
:061F10000895F894FFCFD4
:081F1600010000000020210081
:00000001FF
