:1000000099C00000B8C00000B6C00000B4C0000035
:10001000B2C00000B0C00000AEC00000ACC0000024
:10002000AAC00000A8C00000A6C00000A4C0000034
:10003000A2C00000D7C000009EC000009CC000000D
:100040009AC0000098C0000096C0000094C0000054
:1000500092C0000090C000008EC000008CC0000064
:100060008AC0000088C0000086C0000084C0000074
:1000700082C0000080C000007EC000007CC0000084
:100080007AC0000078C0000076C0000074C0000094
:1000900072C0000070C000006EC000006CC00000A4
:1000A0006AC0000068C0000066C0000064C00000B4
:1000B00062C0000060C000005EC000005CC00000C4
:1000C0005AC0000058C0000056C0000054C00000D4
:1000D00052C0000050C000004EC000004CC00000E4
:1000E0004AC0000048C0000046C0000044C00000F4
:1000F00042C0000040C000003EC000003CC0000004
:100100003AC0000038C0000036C0000034C0000013
:1001100032C0000030C000002EC000002CC0000023
:100120002AC0000028C0000026C0000024C0000033
:1001300022C0000011241FBECFEFD1E8DEBFCDBF2B
:1001400000E00CBF12E0A0E0B2E0E6E7FEE100E074
:100150000BBF02C007900D92A830B107D9F72AE073
:10016000A8E0B2E001C01D92A931B207E1F70E94F8
:10017000C90D0C94390F44CF14BE0FB6F894A8954E
:1001800080916000886180936000109260000FBED3
:10019000E1E6F0E080E880831082789409D08FEF68
:1001A00082B985B988B98BB98EB981BB84BB0895F2
:1001B0001092470984EA8093B30080E28093B600EE
:1001C0008091B60080FDFCCF8091B000826080936A
:1001D000B00081E08093B1008091700082608093D4
:1001E000700008951F920F920FB60F9211248F93F3
:1001F000809147098F5F809347098F910F900FBEC1
:100200000F901F9018958CE08093B800089510927D
:10021000BC0094EA9093BC009091BC0097FFFCCF87
:100220009091B900987F983011F081E00895809303
:10023000BB0084E88093BC008091BC0087FFFCCFAA
:100240008091B900887F883111F0803471F780E0A7
:1002500008958093BB0084E88093BC008091BC002B
:1002600087FFFCCF9091B900987F81E0983209F424
:1002700080E0089584EC8093BC008091BC0087FFEF
:10028000FCCF8091BB00089584E88093BC008091EE
:10029000BC0087FFFCCF8091BB00089584E9809368
:1002A000BC00089580910802982F9F70809154019E
:1002B000807F892B809354019091080280910902DC
:1002C000992319F08093530108958F7190914801FB
:1002D000907E892B80934801089593E0909342018A
:1002E000909141019F719830D9F78093420190918C
:1002F00041019F718913FBCF089588E0EEDF8FEFF6
:1003000080934F0180910A02882311F086E1E5CFA6
:100310000895E9E3F1E080818160808310920A0210
:100320001092080281E080938B0288E0D6DF8BEE8A
:1003300080935601ECE4F1E0808180688083089529
:1003400080930A02DACF80930902ACCFCF93DF9378
:100350001F921F92CDB7DEB79A8389838093620183
:100360008A81809363010F900F90DF91CF91089560
:10037000CF93DF931F921F92CDB7DEB79A83898305
:10038000809360018A81809361019A818981890FBC
:1003900080936D010F900F90DF91CF91089588E0C9
:1003A0009CDFE9E3F1E080818260808382E08093DA
:1003B0008B020895E9E3F1E080818D7F80839DDFEA
:1003C00081E080938B0208951F93CF93DF931F9258
:1003D0001F92CDB7DEB7182F89E169839A837DDF3D
:1003E0008FEF80934F01698182E0860F80938001B7
:1003F000212FE12F9A81F92FA1E8B1E08E2F821BE6
:10040000861718F481918D93F9CF83E080938B0246
:1004100082E0809342010F900F90DF91CF911F9166
:100420000895CF93DF9300D000D0CDB7DEB7809191
:100430008B02823009F463C080914F0183FF3BC07F
:1004400040917B0150E0242F30E0852F90E0281769
:10045000390754F0FC01E058FE4F6081FC01E55F74
:10046000FD4F60835F5FF1CF8BE092E09A838983D9
:1004700042504B83F901E55FFD4F80818C83809171
:1004800047018A558D83CE010196ABD380914101FE
:100490008F718631D9F780914F01886080934F0129
:1004A00080914C018F7780934C0180914C01806842
:1004B00080934C0124C080914F0186FF20C0809121
:1004C00041018F718931B1F4809142018295869505
:1004D000877049F0833021F0853021F083E003C03C
:1004E00081E001C082E08E8308DF91E090938B026F
:1004F0008E81D7D680914F01806480934F012696DC
:100500000FB6F894DEBF0FBECDBFDF91CF91089537
:1005100010924C0910924D09109249091092480905
:1005200010926F0910926E09EEE4F9E011921192A7
:1005300089E0EE36F807D1F7DFD531D3FBD03DD0D7
:100540006BC1909349098093480912CF90934B094E
:1005500080934A09FBCEE82FF0E0EE0FFF1FE25B2D
:10056000F64F71836083089581E020916E09309188
:100570006F09232B09F480E0089511CF1BCF5BD3C3
:10058000B1D63EC0E0918C02F0918D023097A1F07F
:10059000228133812817390759F4DC01AD57BF4F49
:1005A0002C91278713962C91208B22E0248304C062
:1005B0000190F081E02DEACFFCC010928D021092E4
:1005C0008C020895FC011482178613821282809196
:1005D0006E0990916F09019690936F0980936E094F
:1005E00080918C0290918D02009719F411821082F3
:1005F00002C091838083F0938D02E0938C02089572
:100600000F931F93CF93DF93E0918C02F0918D02B3
:10061000EF01209709F489C08C81882321F0823072
:1006200009F459C07EC08DD08C01009721F482E07E
:100630008C838F877AC09B838A8381E08C83F801C7
:10064000E957FF4F82EC92E091838083319789854F
:1006500082FB882780F98083F8018385998590FB48
:1006600080F98387998593FB992790F990FB82F90C
:10067000838780914C098F5F80934C098487809198
:10068000480990914909968785878D819E81908B35
:1006900087878885982F9F708189807F892B818BA0
:1006A0009F819295907F8F70892B818BEF57FF4FA1
:1006B0004C8550E06A857B85808191810E94A30EE4
:1006C000F80191818C85890F8183C801DF91CF91D9
:1006D0001F910F9134C5EC17FD0739F4888199817A
:1006E00090938D0280938C020BC0808191818C1736
:1006F0009D0711F0FC01F9CF888199819183808356
:1007000080916E0990916F09019790936F09809382
:100710006E09ED85FE85CE01DF91CF911F910F917E
:1007200019940990D881C02D74CFDF91CF911F917A
:100730000F91089510928E02109217031092A00349
:10074000089580918E02882359F0809117038823A1
:1007500051F08091A003811129C082E090E005C092
:1007600080E090E002C081E090E049E8489F90017D
:10077000499F300D1124C90182579D4FFC011192F0
:100780004A95E9F740E1FC014183EF57FF4F2056BE
:100790003D4F3183208320916E0930916F092F5F87
:1007A0003F4F30936F0920936E09089580E090E0E9
:1007B0000895FC011082E8E4F9E086A197A1019771
:1007C00097A386A30895009711F0FC0103C0EEE8FB
:1007D000F2E002C0E757FF4F84E0E932F80728F45F
:1007E00080818823B9F3CF01089580E090E00895D7
:1007F000FC01DC01AD57BF4F1C92A8E4B9E0149690
:100800009C9114979F5F14969C93149794878D9155
:100810009C91968785870895E9E2F4E080E090E076
:100820004FEF5FEF37E052834183389FD001399F0C
:10083000B00D1124A75DBB4F2C912E7F2C931582F8
:10084000019637968436910571F70895CF93DF931B
:10085000A9E2B4E020E030E0C7E070E01196ED914D
:10086000FC911297E817F90789F4C29FF001C39F22
:10087000F00D1124E75DFB4FD081D1FB442740F9F7
:1008800050E04617570711F4CF0108C02F5F3F4FC4
:1008900017962436310511F780E090E0DF91CF9173
:1008A000089580E090E0E0E0F0E0DC01A75DBB4F60
:1008B0002C9120FD0BC015962C911597222361F0E9
:1008C000309719F03581231708F4FD0107968C3B0A
:1008D00022E0920751F701C0FD0180818D70806395
:1008E000808380E88583CF010895FC01808180FDAD
:1008F00005C08FEF9FEF9283818315820895A6DF55
:10090000009721F0FC018381948108958FEF9FEF80
:1009100008959CDF009709F0E8CF0895EF92FF92C9
:100920000F931F93CF93DF93EC0109851A8517FF6F
:1009300006C08D859E850817190709F045C08D8171
:100940009E81019609F440C060E08D859E857EDF22
:10095000FC01CE018D579F4F7C01309741F18F8173
:100960009885019679F491E080E040914809509192
:1009700049092F8538894217530709F090E0292F3C
:10098000382F02C020E030E08381948180179107E6
:1009900029F0D7019C918681891710F0232B89F0CB
:1009A0001483038390819F70906390830AC079DFE2
:1009B000FC018D859E859283818389859A859483A8
:1009C0008383D7018C918683DF91CF911F910F9103
:1009D000FF90EF900895CF93DF93EC018F85988976
:1009E0008F3F2FEF9207A1F16B8563FB662760F9BC
:1009F0002DDFFC01892B61F1908190FD29C0CD573D
:100A0000DF4F2881892F8F70211113C0806380836D
:100A100085818F5F85838F3FD9F4EEE2F4E080819A
:100A200086958F5F8083379686E0EA3EF807B9F7B0
:100A30000FC092959F70915F9F70292F2295207F04
:100A4000822B8083911104C0CF01DF91CF914DCFD4
:100A5000DF91CF910895CF93DF93FC018785908933
:100A60008F3F2FEF920719F0638562FF03C09087D5
:100A7000878307C0EF0163FB662760F940DF988733
:100A80008F83DF91CF910895AF92BF92CF92DF9283
:100A9000FF920F931F93CF93DF938C01FC01F3849C
:100AA000F3FAFF24F0F8A784B0886F2DC50127DF83
:100AB000019699F0F801E957FF4F118210823197A2
:100AC00082E08083C801DF91CF911F910F91FF9049
:100AD000DF90CF90BF90AF9032C3F801C584D68429
:100AE00030DEEC010097C1F083DE99819A5F998333
:100AF000FE01E957FF4F11821082D88ACF863697C0
:100B00000190F081E02D81E08083D282C182B482A5
:100B1000A382F582CE0113D3C801DF91CF911F913B
:100B20000F91FF90DF90CF90BF90AF9042CEDC014D
:100B30001796ED91FC91189719968C91863031F4A7
:100B4000658183819481E5DE81E0089580E00895E8
:100B5000AC01E7EFF6E020E09081992319F0915085
:100B6000908321E0359687E0E932F807A9F7222340
:100B700011F0CA01F0C40895DC0119962C9119975F
:100B8000222359F01796ED91FC911897208122238A
:100B900019F0213011F4CBCF63C380E0089580E0D9
:100BA00090E0FC01ED50F94F1482059682339105D7
:100BB000C1F784E690E0A0E0B0E08093EB0690936C
:100BC000EC06A093ED06B093EE061092EF0688EACD
:100BD00095E09093F1068093F0066CEB75E080E071
:100BE000BACCCF93DF93EC01E881F9818181883819
:100BF000F9F480818F7D8134D9F48A818031C0F00D
:100C0000A0DD0097A9F020E2FC0120832A81218346
:100C10002B81ED57FF4F20832C81319620834A8111
:100C200050E0688179810296DF91CF910C94A30EF8
:100C3000DF91CF9108956F927F928F929F92AF92A2
:100C4000BF92CF92DF92EF92FF920F931F93CF93B9
:100C5000DF93CDB7DEB72C970FB6F894DEBF0FBE8B
:100C6000CDBF00E010E094E2D92E8824839422E2E4
:100C7000C22E33E2932E4FE1B42E55E0A52EEE2482
:100C8000E394F12CC8019FDD8C01892B09F4BDC1CF
:100C9000D8018C91823209F4D2C018F4803249F024
:100CA000F1CF833209F49AC1843261F7C80181DD42
:100CB000E9CFF801D0822385822F8A7019F7458108
:100CC0005681878590894F3F5F4F59F4209148099D
:100CD000309149092817390709F4AEC0019691F6F9
:100CE000ABC0019611F420FDCDCF20914809309181
:100CF0004909F801858596852817390709F4C2CF77
:100D0000C8010CDEA3EFB6E080E090E060E070E0A8
:100D100014962C911497222309F453C0F8014585A9
:100D200056852D913C9111974217530709F04AC0FF
:100D30002485A89EF001A99EF00D1124ED50F94FD5
:100D40008281821B883070F54381242F30E0082E89
:100D500002C0359527950A94E2F720FF19C020912B
:100D6000480930914909D80117968D919C9118979F
:100D70002817390709F086CF1B966C911B9763FBE8
:100D8000662760F91F968D919C915097C2DD7ACFAE
:100D9000970102C0220F331F8A95E2F7C901842B05
:100DA00083832BC02283238130E08195A90102C077
:100DB000440F551F8A95E2F7CA0181608383B4828C
:100DC0001CC0BD010196159657E0A532B50709F084
:100DD0009FCF6115710509F455CFD8011D968D91EE
:100DE0009C911E97FB01918380831C968C9182833A
:100DF0008382B48285EE96E0AED3D80117968D91AA
:100E00009C911897019669F42091480930914909FD
:100E1000D8011F968D919C9150972817390709F09A
:100E2000E0C08091480990914909F80127853089EF
:100E30008217930709F0DCC0D801CC9223CF10921F
:100E4000F206D80151962C915197322F32953F706E
:100E5000E32FF0E0EE0FFF1FE25BF64F0190F08111
:100E6000E02D309709F45CC01D968D919C911E97E2
:100E70009A8389831F964D915C9150975C834B8335
:100E80002F702D833E83AF57BF4F6D917C91798733
:100E9000688798012E5F3F4F261B370BD8011196AC
:100EA0003C911197230F2A87AD57BF4F2C912B8769
:100EB00011962C912C87D8011B966C91262F2370AC
:100EC00062FD02C030E001C030E2232B63FD02C0AE
:100ED00030E001C030E4322B4F3F5F4F11F020E093
:100EE00001C024E0232BD80119964D915C911A97EB
:100EF0008417950711F090E001C098E0922BD8017B
:100F000015962D913C9116972F3F3F4F11F080E0A1
:100F100001C080E1892B8F83CE010196199501C014
:100F200080E0F801938590FF80E0D80117964D91FD
:100F30005C91189720914809309149094F3F5F4FC4
:100F400041F4F801478550892417350711F493FFC0
:100F500081E0D80115964D915C9116974F3F5F4FF8
:100F600009F480E02F3F3F4FB1F18823A1F1E9DB85
:100F70003C01009781F13CDCD30111968C911197D3
:100F80008D5F11968C931197F301E957FF4F1182F2
:100F90001082F8018385869581701B969C911B9722
:100FA00080FB91F91B969C931B978585968550969F
:100FB0009C938E931F97F301EF57FF4F0190F081A1
:100FC000E02D10828091F2068283D8011C968C91CC
:100FD0008183C301B4D0F801D08254CEC80154DD5E
:100FE00051CE1B968C9182FD1CCFC801F4D019CF35
:100FF0002F3F3F4F09F420CFF8012781308582171A
:10100000930709F03FCE90823DCE2C960FB6F89410
:10101000DEBF0FBECDBFDF91CF911F910F91FF902B
:10102000EF90DF90CF90BF90AF909F908F907F9088
:101030006F9008950F931F93CF93DF938C01C0E0BF
:10104000E0E0F0E0D3E1CF01BEDBFC01892B91F0C1
:1010500080818131C1F7DF01AC57BF4F2D913C91A9
:101060001197215031092D933C93232B09F4D08300
:10107000C1E0E9CFCC2331F0C801DF91CF911F91BE
:101080000F9169C2DF91CF911F910F910895FF9247
:101090000F931F93CF93DF938C01C0E0E0E0F0E06B
:1010A000D7E180E1F82ECF018EDBFC01892BA9F07E
:1010B00080818631C1F7DF01AC57BF4F2D913C9144
:1010C00011972150310911963C932E93232B19F43B
:1010D000D0831197FC92C1E0E6CFCC2339F0C80150
:1010E000DF91CF911F910F91FF9035C2DF91CF918A
:1010F0001F910F91FF9008951092400710923F07A3
:10110000E2E3F7E082E390E0A0E0B0E0868397833B
:10111000A087B187128687E498E094878387E5E209
:10112000F7E08AE090E0A0E0B0E086839783A087B4
:10113000B18712868AE198E09487838708950F9398
:101140001F93CF93DF93EC01FC01EA57FF4F80819F
:1011500092E198833397108280FF03C02FEF3FEF17
:1011600004C020914A0930914B093E832D8385703C
:1011700019F4CE0170DC04C08F85988998878F831D
:1011800080914809909149099A87898780914D09F2
:101190008F5F80934D098C838F8198858E010C57CA
:1011A0001F4F019661F481E498E89B838A83BDD543
:1011B000877099270196F8019183808307C081E6A3
:1011C00098E89B838A83F80111821082DF91CF9186
:1011D0001F910F9108950F931F93CF93DF938C016D
:1011E000B0DAEC01892BB9F182E18883F8018181C1
:1011F0008983FE01ED57FF4F108297D5FE01EC5712
:10120000FF4F8770992701969183808333961182CF
:101210001082F801418150E0B8016E5F7F4FCE012E
:10122000029691D581E498E89B838A838FEF9FEFA4
:1012300098878F83F801858196819E838D83809125
:101240004809909149099A87898780914D098F5F54
:1012500080934D098C83DF91CF911F910F91089559
:10126000CF93DF93FC01C781D0858185833011F056
:1012700080E014C080E090E0A6DA0097C9F3FC019A
:1012800020812631C9F7348529813213F5CF27E132
:1012900020832A81EA57FF4F208381E0DF91CF919D
:1012A0000895A0913F07B0914007833030F4E82FB4
:1012B000F0E0EC5FFD4F808101C081E0FD01ED5762
:1012C000FF4F808385E18C931092400710923F0777
:1012D00080916E0990916F09019790936F098093A7
:1012E0006E090895BF92CF92DF92EF92FF920F9313
:1012F0001F93CF93DF93C0E0D0E004E117E186E1D4
:10130000D82E95E1E92EF12C23E1C22E31E1B32E46
:10131000CE0159DAEC01892B09F45EC08881833152
:10132000B9F018F4823139F0F3CF853151F18731BA
:1013300009F443C0EDCFFE01EC57FF4F808191814E
:10134000892B21F0B88285E297E033C0C882E0CFD4
:1013500080913F0790914007892BD1F6D0934007A9
:10136000C0933F0708836981CE0102962DD88091F2
:101370006E0990916F09019690936F0980936E09A1
:10138000C7CFFE01ED57FF4F8081811114C02D851D
:101390003E8580914809909149092817390759F4E9
:1013A0008B8580FF08C0D8823196F182E08282E38B
:1013B00097E0D1D0ADCF1883ABCFCE010CDBFE01CF
:1013C000E957FF4F0190F081E02DCE01309711F4E5
:1013D000F0D99ECF19959CCFDF91CF911F910F919E
:1013E000FF90EF90DF90CF90BF9008950E94BC00D7
:1013F00062D00E9489018CC814D8C1D8B9C00F939B
:101400001F93CF93DF93FC01809141079091420796
:10141000B681A781308521850097F1F14B2F5A2F96
:10142000632F722FDC01D0E0C0E012960D911D9168
:101430002D913C911597401751076207730768F487
:10144000041B150B260B370B12960D931D932D9332
:101450003C931597AD2FBC2F0EC0401B510B620B58
:10146000730B2D913C911197DA2FCB2F211531055C
:1014700011F0D901DACF42835383648375831097C7
:1014800041F08D919C91119791838083ED93FC9312
:101490000DC09183808306C011821082B283A38322
:1014A00034832583F0934207E0934107DF91CF9186
:1014B0001F910F91089510924207109241070895CD
:1014C000CF93DF93DC01E0914107F0914207C0E048
:1014D000D0E0309761F1EA17FB0721F58D919C91DF
:1014E0001197209719F09983888304C0909342073D
:1014F00080934107ED91FC9111973097C1F04281A3
:1015000053816481758112968D919D910D90BC914E
:10151000A02D840F951FA61FB71F82839383A483DA
:10152000B58305C0EF010190F081E02DD2CFDF91AE
:10153000CF910895E0914107F0914207309739F03B
:10154000E817F90731F00190F081E02DF7CF80E046
:10155000089581E00895CF93DF93EC01EBDF8111D3
:1015600004C0CE01DF91CF914ACFDF91CF91089592
:10157000CF92DF92EF92FF92CF93DF938091470952
:101580008823C1F18FB7F894209147091092470939
:101590008FBF30E0A5E0B0E072D36B017C01C09159
:1015A0004107D0914207209729F18A819B81AC8124
:1015B000BD81C816D906EA06FB06A0F0C81AD90AEA
:1015C000EA0AFB0A88819981909342078093410738
:1015D0008A85813011F4CE0112DFEB85FC85CE01C6
:1015E0001995DDCF8C199D09AE09BF098A839B83AC
:1015F000AC83BD83DF91CF91FF90EF90DF90CF90D0
:10160000089583E497E05CDF83E497E0A4CF80E56E
:1016100097E056DF80E597E09ECF4FB7F894209192
:10162000490830914A088091410890914208BC01D4
:101630006F5F7F4F7093420860934108F901E80F94
:10164000F91F8081609141087091420820914508FE
:10165000309146086217730721F4109242081092E5
:1016600041082091470830914808215031093093B2
:101670004808209347084FBF08953FB7F89420913A
:1016800040081092400880914708909148083FBF59
:1016900021114BC20895CF93DF931F921F92CDB7B4
:1016A000DEB74A8369830E9407016981862F0E9401
:1016B00029014A81842F0E9429010F900F90DF9108
:1016C000CF910C944E018091070A9091080A0196DF
:1016D0009093080A8093070A029799F440E06BE61A
:1016E00082EDD9DF8DE597E0EBDE8DE597E033DF26
:1016F0008091070A9091080A01979093080A8093B5
:10170000070A089540E86BE682EDC5DF40E06BE62E
:1017100082EDC1DF2FEF89EF90E0215080409040B3
:10172000E1F700C0000049E069E182EDB4DF41E08B
:101730006AE182EDB0DF48E06BE182EDACDF40E0D2
:101740006CE182EDA8DF40E46BE682EDA4DFEDE022
:10175000FAE011821082138212821582148217829B
:10176000168211861086138612860895E1E4F8E049
:1017700087E797E09187808788EC90E09583848362
:101780001782168211821082138212821092080A26
:101790001092070A10924008EAE6F7E088EE93E01C
:1017A000A0E0B0E086839783A087B18781E082873D
:1017B00083E69BE094878387EDE5F7E084E190E0A2
:1017C000A0E0B0E086839783A087B187128687E088
:1017D0009BE094878387E0E5F7E08AE090E0A0E073
:1017E000B0E086839783A087B187128621E03BE033
:1017F00034872387E3E4F7E086839783A087B18764
:10180000128680E59DE0948783870E9403017ADF3A
:101810008AE697E0A0CE4091470850914808209171
:101820004508309146084217530771F14091490825
:1018300050914A082091430830914408B9016F5FE4
:101840007F4F7093440860934308FA01E20FF31F3F
:1018500080832091430830914408809145089091FD
:1018600046082817390721F41092440810924308BB
:10187000809147089091480801969093480880937A
:10188000470881E0809340080895CF92DF92EF925D
:10189000FF92CF93DF936B017C0180E2BCDF2AE0F3
:1018A00047EF59E0C701B60157D2C7EFD9E0899198
:1018B000882329F0B0DF8AE0C230D807C1F7DF9172
:1018C000CF91FF90EF90DF90CF9008950F931F93EB
:1018D000CF93DF931092020A82ED0E9407018BE3FF
:1018E0000E9429010E944E018FEC97E00197F1F7C9
:1018F00000C0000083ED0E9407010E943A0180931E
:10190000020A90E09093EA098093E9090E943A0163
:101910008093020A20E030E03091E909282B3093CF
:10192000EA092093E9090E943A018093020A90E0B3
:101930009093EC098093EB090E943A018093020A8C
:1019400020E030E03091EB09282B3093EC09209314
:10195000EB090E943A018093020A90E09093EE090D
:101960008093ED090E943A018093020A20E030E062
:101970003091ED09282B3093EE092093ED090E9458
:101980003A018093020A90E09093F6098093F5095A
:101990000E943A018093020A20E030E03091F5097C
:1019A000282B3093F6092093F5090E943A01809381
:1019B000020A90E09093F0098093EF090E943A01A7
:1019C0008093020A20E030E03091EF09282B309319
:1019D000F0092093EF090E943A018093020A90E0F7
:1019E0009093F2098093F1090E943A018093020AD0
:1019F00020E030E03091F109282B3093F209209358
:101A0000F1090E943A018093020A90E09093F40950
:101A10008093F3090E9444018093020A20E030E0A1
:101A20003091F309282B3093F4092093F3090E9495
:101A30004E0140E46BE682ED2EDEC9EED9E00DE00A
:101A40001AE069917991F801819191918F01681B58
:101A5000790B072E000C880B990B17DFF9E0CF3EAE
:101A6000DF0779F7C0E0D0E0DE01A751B64FFE01F5
:101A7000E35FF54F16966D917C911797868197815C
:101A8000681B790B072E000C880B990BFEDE229643
:101A9000C630D10549F7DF91CF911F910F9108957D
:101AA00015CF10922709089581E00895CF93DF9311
:101AB00080914B08813021F40E94BE0210924B08A5
:101AC0008091270981112DC0D0914C08DD2349F167
:101AD0004D2F50E06DE478E08AEB98E034D110921D
:101AE0002E0910922D09C1E0C0932F09C09330092F
:101AF00083E0809331098AEB98E0909333098093D7
:101B00003209D093340981E59DE0909336098093A2
:101B1000350988E299E00E94E20210924C08C093D5
:101B20002709DF91CF910895C1CFEF92FF920F93D4
:101B30001F93CF93DF931F92CDB7DEB78C01E12CBB
:101B4000F12CE016F106C1F068DD90914C089D364D
:101B500019F48983ABDF8981E0914C08ED3640F4BC
:101B600091E09E0F90934C08F0E0E35BF74F808389
:101B70008FEFE81AF80AE5CF89E399E0A1DC89E361
:101B800099E00F90DF91CF911F910F91FF90EF900F
:101B9000E2CC809164008FEF8093640080916500B7
:101BA000896780936500809163008F6080936300F4
:101BB00083B7817F866083BF809164008F7B809331
:101BC0006400809164008F77809364008091650049
:101BD0008F7B80936500809163008E7F809363008C
:101BE000809163008D7F80936300809163008B7F81
:101BF00080936300FBDBBADD84E1C82ED12CE12C9D
:101C0000F12CC4E9DDE0F8DB38DD80914609811173
:101C100028C081E090E00E94A10287E695E40E943E
:101C2000A6028FE00E94A30181E00E94A00164E56A
:101C30007DE081E00E94AB02829A8A9A999AA198EB
:101C4000C0923F09D0924009E0924109F0924209C6
:101C500010924309D0934509C093440981E08093D1
:101C600046090E94B4028111CECF80914B088111A8
:101C7000CACF0E94BD0281E080934B08C4CFA29FCF
:101C8000B001B39FC001A39F700D811D1124911D50
:101C9000B29F700D811D1124911D08958F929F9206
:101CA000AF92BF92CF92DF92EF92FF92CF93DF93EA
:101CB000EC01688179818A819B81611571058105BB
:101CC000910521F464E279ED8BE597E02DE133EFA6
:101CD00041E050E080D049015A019B01AC01A7EAE4
:101CE000B1E495D06B017C01ACEEB4EFA501940199
:101CF0009AD0DC01CB018C0D9D1DAE1DBF1DB7FF21
:101D000003C00197A109B04888839983AA83BB8344
:101D10009F77DF91CF91FF90EF90DF90CF90BF90B2
:101D2000AF909F908F900895B9CF80E092E0B6CFAA
:101D3000A0E0B0E08093000290930102A093020221
:101D4000B09303020895FB01DC0102C001900D92E3
:101D500041505040D8F70895BB272A3051F49923B9
:101D600042F4BDE290958095709561957F4F8F4FBD
:101D70009F4F01C0BB27FA01A62F6217710581058D
:101D80009105330B30FB66F0AA27660F771F881F7B
:101D9000991FAA1FA21710F0A21B63953850A9F72C
:101DA000A05DAA3308F0A95DA19336F7B111B193F4
:101DB0001082CA0100C0DC01FC01672F71917723FA
:101DC000E1F7329704C07C916D9370836291AE17F6
:101DD000BF07C8F30895052E97FB16F400940FD0A3
:101DE00057FD05D024D007FC02D046F408C050951A
:101DF0004095309521953F4F4F4F5F4F08959095F7
:101E00008095709561957F4F8F4F9F4F089537DF75
:101E1000A59F900DB49F900DA49F800D911D11243E
:101E20000895B7FFF4CFF3DF821B930B0895A1E26F
:101E30001A2EAA1BBB1BFD010DC0AA1FBB1FEE1F44
:101E4000FF1FA217B307E407F50720F0A21BB30B8F
:101E5000E40BF50B661F771F881F991F1A9469F70B
:101E600060957095809590959B01AC01BD01CF0167
:061E70000895F894FFCF75
:081E7600010000000020210022
:00000001FF
