:100000000C94A4000C94C5000C94C5000C94C5007D
:100010000C94C5000C94C5000C94C5000C94C5004C
:100020000C94C5000C94C5000C94C5000C94C5003C
:100030000C94C5000C94C5000C94C5000C94C5002C
:100040000C94C5000C94C5000C94C5000C94C5001C
:100050000C94C5000C94C5000C94C5000C94C5000C
:100060000C94C5000C94C5000C94C5000C94C500FC
:100070000C94C5000C94C5000C94C5000C94C500EC
:100080000C94C5000C94C5000C94C5000C94C500DC
:100090000C94C5000C94C5000C94C5000C94C500CC
:1000A0000C94C5000C94C5000C94ED000C94FE005B
:1000B0000C94C5000C94C5000C94C5000C94C500AC
:1000C0000C94C5000C94C5000C94C5000C94C5009C
:1000D0000C94C5000C94C5000C94C5000C94C5008C
:1000E0000C94C5000C94C5000C94C5000C94C5007C
:1000F0000C94AE010C94C5000C94C5000C949001B6
:100100000C94C5000C94C5000C94C5000C94C5005B
:100110000C94C5000C94C5000C94C5000C94C5004B
:100120000C94C5000C94C5000C94C5000C94C5003B
:100130000C94C5000C94D7070C9498020C9471058C
:100140000C9406080C945F0511241FBECFEFD1E874
:10015000DEBFCDBF00E00CBF12E0A0E0B2E0E0E106
:10016000F7E100E00BBF02C007900D92A430B10789
:10017000D9F727E0A4E0B2E001C01D92A238B2078F
:10018000E1F70E949D0A0C94860B0C94000014BEAB
:1001900088E10FB6F89480936000109260000FBE63
:1001A000E1E6F0E080E88083108278940C94D80037
:1001B00010925B0780E197E29093A9008093A800DA
:1001C000E1EAF0E088E08083808182608083E2E77A
:1001D000F0E080818260808308951F920F920FB6B5
:1001E0000F9211248F9380915B078F5F80935B0741
:1001F0008F910F900FBE0F901F9018951F920F9226
:100200000FB60F9211248F9381E0809304028F9197
:100210000F900FBE0F901F90189593E0909342019E
:10022000909141019F719830D9F78093420190914C
:1002300041019F718913FBCF08958091110288239A
:1002400011F086E101C088E00C940D01E9E3F1E0D2
:1002500080818160808388E00E940D018FEF809310
:100260005601EEE6F1E090819062908390819F7E4E
:10027000908380934F01EEE4F1E080818860808379
:10028000808180648083ECE4F1E0808180688083F9
:1002900081E180936D011092090210921102109277
:1002A0000B0281E08093080208958091080281305A
:1002B00049F481E090E020910902211105C080E01D
:1002C00090E002C081E090E0817008951F93CF9389
:1002D000DF931F921F92CDB7DEB7182F89E1698394
:1002E0009A830E940D016981862F8E5F8093800121
:1002F000E12F9A81F92FA1E8B1E002C081918D939D
:100300008E2F811B8617D0F382E08093420183E019
:10031000809308020F900F90DF91CF911F91089565
:100320001F920F920FB60F9211248F93809141016B
:100330008F71893169F48091420182958695877029
:100340008093070289E08093420184E08093080251
:100350008F910F900FBE0F901F9018951F920F92C4
:100360000FB60F9211248F9389E080934201809100
:1003700047018093060280917B018093050285E00E
:10038000809308028F910F900FBE0F901F901895C9
:100390001F93CF93DF9300D01F921F92CDB7DEB78C
:1003A00080910802843009F453C0853009F464C098
:1003B000813009F08BC010910902112309F486C025
:1003C00088E00E940D0110FF19C090910B02292FA7
:1003D0002F7080915401807F822B809354018091F3
:1003E0000A02911109C0982F9F7180914801807E67
:1003F000892B8093480102C08093530180910902A8
:1004000081FF08C080910C028093620180910D02EF
:10041000809363018091090282FF08C080910E02DF
:100420008093600180910F028093610180910902A5
:1004300083FF09C0909110029F7080914501807FD9
:10044000892B809345010E941D01109209023EC034
:10045000809107020E942909809141018F718930A2
:10046000D9F72FC0FC01E058FE4F2081FC01EE5E61
:10047000FD4F20834F5F01C040E020910502842F93
:1004800090E030E0281739076CF782E192E09A8318
:1004900089838091050282508B83E0910502F0E010
:1004A000EE5EFD4F80818C83809106028A558D839C
:1004B000CE0101960E94A605809141018F7189307D
:1004C000D9F781E0809308020E941D010F900F90E0
:1004D0000F900F900F90DF91CF911F910895109280
:1004E00060071092610710925D0710925C07E2E6C8
:1004F000F7E01192119287E0E238F807D1F70E94F5
:100500003E080E9485050E9463030E94B6020C9477
:10051000C503E82FF0E0EE0FFF1FEE59F84F71838F
:10052000608308950E94D7050E9445090C94D0026B
:10053000E0919202F091930215C022813381281735
:10054000390769F4DC01AD57BF4F2C912787DC01D7
:10055000AA57BF4F2C91208B22E0248305C0019025
:10056000F081E02D309749F70C9499031092930293
:10057000109292020895FC0114821786138212824F
:100580008091920290919302009719F41182108247
:1005900002C091838083F0939302E09392020895C6
:1005A0000F931F93CF93DF93E0919202F091930208
:1005B000EF0181C08C81882321F0823009F078C05E
:1005C0005BC00E946A038C01009721F482E08C8357
:1005D0008F8774C09B838A8381E08C83F801E957FD
:1005E000FF4F88E992E091838083F801EA57FF4F3B
:1005F000898582FB882780F980839985F801838526
:1006000090FB80F98387998593FB992790F990FB5C
:1006100082F98387809160078F5F8093600784876A
:1006200080915C0790915D07968785878D819E817B
:10063000908B878798859F708189807F892B818B9C
:100640009F819295907F8F70892B818BEF57FF4F01
:100650004C856A857B8550E0808191810E942C0BBE
:10066000F80181819C85890F8183C801DF91CF9139
:100670001F910F910C946B08EC17FD0741F48881D2
:10068000998190939302809392020AC0FC01808129
:1006900091818C179D07D1F78881998191838083FF
:1006A000ED85FE85CE01DF91CF911F910F911994B9
:1006B0000990D881C02D209709F07CCFDF91CF9190
:1006C0001F910F9108951092940210921D031092A1
:1006D000A603089580919402882359F080911D0308
:1006E000882351F08091A60381111FC082E090E021
:1006F00005C080E090E002C081E090E049E8489FBA
:100700009001499F300D1124F901EC56FD4FDF0196
:100710001D924A95E9F780E18183DF01AF57BF4F12
:100720002A553D4F2D933C9302C0E0E0F0E0CF010D
:100730000895FC0110820895009759F0FC01E757D5
:10074000FF4F09C0E757FF4F84E0EF32F80719F475
:1007500006C0E4E9F2E080818823A1F302C0E0E072
:10076000F0E0CF010895FC01ED57FF4F1082E0E665
:10077000F7E020812F5F2083FC01248720915C0714
:1007800030915D07368725870895E4E3F4E080E043
:1007900090E02FEF3FEF57E0DF0114972D933C934C
:1007A000589FD001599FB00D1124A15DBB4F4C91B2
:1007B0004E7F4C931082019637968436910561F7EF
:1007C0000895CF93DF93A0E3B4E020E030E0C7E0EA
:1007D00070E0ED91FC911197E817F90779F4C29F49
:1007E000F001C39FF00D1124E15DFB4FD081D1FBDF
:1007F000442740F950E04617570741F02F5F3F4F1D
:1008000017962436310529F7E0E0F0E0CF01DF91BB
:10081000CF910895E0E0F0E0AFE2B4E08C9180FD8C
:100820000CC015968C911597882369F0309721F0AC
:100830009581891708F001C0FD01179686E0AB3E4F
:10084000B80761F701C0FD0180818D7080638083EE
:1008500080E88583CF010895FC01808180FD05C07B
:100860008FEF9FEF92838183158208950E94E103A9
:10087000009721F0FC012381348102C02FEF3FEF6C
:10088000C90108950E94E103009711F00C942C0413
:1008900008950F931F93CF93DF93EC0109851A8579
:1008A00017FF06C08D859E850817190709F041C0FE
:1008B0008D819E810196E9F160E08D859E850E9483
:1008C000E103FC01009731F18F819885019659F47D
:1008D00081E090E040915C0750915D072F85388959
:1008E0004217530711F080E090E0238134812017F4
:1008F000310739F0DE01AD57BF4F3C9126812317F8
:1009000010F080FF12C01483038380818F70806396
:1009100080830BC00E940A04FC018D859E85928312
:10092000818389859A8594838383CD57DF4F88811E
:100930008683DF91CF911F910F910895CF93DF931D
:10094000EC018F8598898F3F2FEF9207B9F16B8566
:1009500063FB662760F90E94E103FC01009771F1D7
:10096000908190FD2BC0CD57DF4F8881811114C03D
:100970009F709063908385818F5F85838F3FF1F4B3
:10098000E4E3F4E0808186958F5F8083379686E08C
:10099000E03FF807B9F712C0892F82958F70815018
:1009A0008F70282F2295207F9F70922B908381112A
:1009B00005C0CF01DF91CF910C942C04DF91CF9132
:1009C0000895CF93DF93EC018F8598898F3F2FEFA8
:1009D000920709F408C06B8562FD05C063FB6627BA
:1009E00060F90E94360498878F83DF91CF91089534
:1009F000BF92CF92DF92EF92FF920F931F93CF930C
:100A0000DF938C01FC01B384B3FABB24B0F8C78434
:100A1000D0886B2DC6010E9436040196B1F0F80112
:100A2000E957FF4F11821082F801EA57FF4F82E029
:100A30008083C801DF91CF911F910F91FF90EF90BC
:100A4000DF90CF90BF900C946B08F801E584F6849A
:100A50000E946A03EC010097E1F00E94B3038981D0
:100A60008A5F8983FE01E957FF4F11821082F88A5D
:100A7000EF86FE01EF57FF4F0190F081E02D81E0FE
:100A80008083F282E182D482C382B582CE010E9449
:100A90006B08C801DF91CF911F910F91FF90EF90EC
:100AA000DF90CF90BF900C949903DC011796ED91E5
:100AB000FC9118976581838194810C944204EFEE38
:100AC000F6E020E03081332319F03150308321E00B
:100AD000359637E0E132F307A9F721110C94430A68
:100AE0000895DC011796ED91FC911897208122233F
:100AF00019F0213041F403C00E940B0902C00E948A
:100B0000550581E0089580E00895EFEEF6E010824B
:100B1000359687E0E132F807D1F784E690E0A0E06F
:100B2000B0E08093230790932407A0932507B09308
:100B30002607109227078FE595E090932907809369
:100B4000280761E775E080E00C948902CF93DF937A
:100B5000EC01E881F9818181883831F58081813625
:100B600011F0813409F58A818031F0F00E946A0326
:100B70000097D1F020E2FC0120832A8121832B8180
:100B8000ED57FF4F20832C81FC01EC57FF4F208352
:100B90009C012E5F3F4F4A816881798150E0C901F5
:100BA000DF91CF910C942C0BDF91CF9108956F9230
:100BB0007F928F929F92AF92BF92CF92DF92EF92ED
:100BC000FF920F931F93CF93DF93CDB7DEB72C9790
:100BD0000FB6F894DEBF0FBECDBF00E010E094E288
:100BE000D92EEE24E394F12C35E0832E42E2942EAC
:100BF00053E2B52EAA24A3946FE1C62EB2C1D80148
:100C00008C91823209F4D7C020F4803209F0A9C156
:100C100007C0833209F49EC1843209F0A2C19EC18B
:100C2000F801D08287859089019629F4D8011B9616
:100C30008C9180FD96C120915C0730915D07F80191
:100C4000858596852817390709F48BC183858A70B5
:100C500009F087C1C8010E94490480E090E060E08B
:100C600070E0889EF001899EF00D1124E551F94F46
:100C70002481222309F44BC0D8011D964D915C912B
:100C80001E97208131814217530709F041C01C96FD
:100C90009C911C974281491B8381483060F5282F25
:100CA00030E0042E02C0359527950A94E2F720FF24
:100CB00019C020915C0730915D0717968D919C912A
:100CC00018972817390709F04CC11B966C911B9790
:100CD00063FB662760F91F968D919C9150970E9447
:100CE00042043FC19701042E01C0220F0A94EAF783
:100CF000822B83833EC1928390E0419502C0880F8E
:100D0000991F4A95E2F781608383C48232C1BF0193
:100D100001968A30910509F0A4CF6115710509F497
:100D200020C1F80185859685DB0111969C938E93F1
:100D3000848512968C9312971396AC9213971496FF
:100D4000CC928DE197E00E94430A13C120915C0789
:100D500030915D07F801878590892817390761F080
:100D600085819681019641F0D8011B968C9182FD78
:100D700003C0C8010E94BF0880915C0790915D0785
:100D8000F801278530898217930719F02F3F3F4FCD
:100D900019F4D8019C92E5C0F801278130858217AB
:100DA000930709F0DEC085819681019609F4D9C0C8
:100DB000D801BC92D6C010922A07F8012189229549
:100DC0002F70E22FF0E0EE0FFF1FEE59F84F019069
:100DD000F081E02D309709F463C0D8011D968D9104
:100DE0009C911E979A8389831F964D915C91509791
:100DF0005C834B8351963C9151973F703D832E838A
:100E0000AF57BF4F6D917C917987688798012E5FAE
:100E10003F4F261B370BD80111963C911197320F8B
:100E20003A87AD57BF4F2C912B87D801AC57BF4F96
:100E30002C912C87D8011B962C91622F637022FF76
:100E400002C030E201C030E0632B23FF02C030E477
:100E500001C030E0362B4F3F5F4F11F424E001C05A
:100E600020E0432F422BD80119962D913C911A97DF
:100E70008217930711F498E001C090E0242F292BEA
:100E8000D80115968D919C911697019611F480E1E9
:100E900001C080E0822B8F83CE010196199501C09D
:100EA00080E0F801278130852F3F3F4F71F421E02A
:100EB00030E060915C0770915D07D8011F964D91FD
:100EC0005C9150976417750711F020E030E02170B5
:100ED000F801938590FF02C0811102C02223B9F16D
:100EE0000E946A033C01009791F10E94B303D30171
:100EF00011968C9111978D5F11968C931197F30138
:100F0000E957FF4F11821082F801938596959170F1
:100F10001B968C911B9790FB81F91B968C931B97CA
:100F20008585968550969C938E931F97F301EF5776
:100F3000FF4F0190F081E02D108280912A0782837B
:100F4000D8011C968C918183C3010E946B08F80123
:100F5000D08207C0C8010E94F80403C0C8010E94E3
:100F60009903C8010E949C038C01009709F047CEA9
:100F700009C0D80117968D919C911897019609F098
:100F8000FBCEE4CE2C960FB6F894DEBF0FBECDBFDD
:100F9000DF91CF911F910F91FF90EF90DF90CF9055
:100FA000BF90AF909F908F907F906F9008950F9318
:100FB0001F93CF93DF93EC0110E0E0E0F0E003E15A
:100FC00011C08081813171F4DF01AC57BF4F2D9189
:100FD0003C911197215031092D933C93232B09F417
:100FE000008311E0CF010E949C03FC01009749F7A8
:100FF000112339F0CE01DF91CF911F910F910C9405
:10100000430ADF91CF911F910F910895FF920F93A3
:101010001F93CF93DF93EC0110E0E0E0F0E007E1F5
:1010200080E1F82E15C08081863191F4DF01AC5744
:10103000BF4F2D913C911197215031092D933C9335
:10104000232B29F40083DF01AD57BF4FFC9211E041
:10105000CF010E949C03FC01009729F7112341F066
:10106000CE01DF91CF911F910F91FF900C94430A15
:10107000DF91CF911F910F91FF90089510922C074F
:1010800010922B0782E390E0A0E0B0E0809333075A
:1010900090933407A0933507B09336071092370723
:1010A00086E098E090933907809338078AE090E0D3
:1010B000A0E0B0E08093400790934107A0934207DF
:1010C000B09343071092440787ED97E0909346074B
:1010D0008093450708950F931F93CF93DF93EC01FF
:1010E000FC01EA57FF4F208182E18883FE01ED5722
:1010F000FF4F1082322F317020FF03C08FEF9FEF20
:1011000004C080915E0790915F079E838D8322FDCE
:1011100006C0311104C0CE010E94E10404C08F85D5
:10112000988998878F8380915C0790915D079A8753
:101130008987809161078F5F809361078C838F819E
:1011400098858E010C571F4F019669F481E498E849
:101150009B838A830E941D0B877099270196F80153
:101160009183808307C081E698E89B838A83F80196
:1011700011821082DF91CF911F910F9108950F93EB
:101180001F93CF93DF938C010E946A03EC010097B9
:10119000E9F182E18883F80181818983FE01ED57BD
:1011A000FF4F10820E941D0BFE01EC57FF4F87700E
:1011B0009927019691838083FE01E957FF4F1182A1
:1011C00010829E012E5F3F4FF8014181C8010296B7
:1011D00050E0BC01C9010E942C0B81E498E89B837C
:1011E0008A838FEF9FEF98878F83F801858196819F
:1011F0009E838D8380915C0790915D079A87898794
:10120000809161078F5F809361078C83DF91CF911D
:101210001F910F910895CF93DF93FC01C781D08573
:1012200080E090E00FC0FC012081263159F4348524
:101230002981321307C027E120832A81EA57FF4F13
:10124000208304C00E949C03009769F7DF91CF912F
:101250000895E0912B07F0912C07833030F0833014
:1012600031F0853031F481E205C080E003C080E2D6
:1012700001C081E0DF01AD57BF4F8C9385E18083D2
:1012800010922C0710922B070895BF92CF92DF92F5
:10129000EF92FF920F931F93CF93DF93C0E0D0E0C4
:1012A00094E1E92E27E1F22E36E1D32E05E110E09C
:1012B00043E1C42E51E1B52E59C088818331C1F07C
:1012C00020F4823109F052C006C0853101F1873126
:1012D00009F04CC03BC0FE01EC57FF4F808191816B
:1012E000892B21F0B8828AE397E02BC0C8823EC0E8
:1012F0000E94550181113AC0D0932C07C0932B074F
:10130000E8826981CE0102960E9466012FC0FE012B
:10131000ED57FF4F8081811117C02D853E8580914B
:101320005C0790915D072817390771F48B8580FF62
:101330000BC0D882FE01EC57FF4F118300838DE272
:1013400097E00E94430A12C0F88210C0CE010E94AA
:101350009E04FE01E957FF4F0190F081E02DCE0180
:10136000309719F40E94990301C01995CE010E948B
:101370009C03EC01009709F0A0CFDF91CF911F9162
:101380000F91FF90EF90DF90CF90BF9008950E9453
:10139000C7000E942D0A0E9426010C946F020E9431
:1013A000C8010E9492020C94520A0F931F93CF938C
:1013B000DF93FC018091470790914807B681A78190
:1013C000308521850097D1F14B2F5A2F632F722F33
:1013D000DC01C0E0D0E001C0D90112960D911D9151
:1013E0002D913C911597401751076207730758F4E8
:1013F000041B150B260B370B12960D931D932D9383
:101400003C9315970BC0401B510B620B730B2D9136
:101410003C911197ED0121153105F1F6428353837B
:1014200064837583209739F08881998191838083C3
:10143000F983E8830DC09183808306C011821082F6
:10144000B283A38334832583F0934807E09347074F
:10145000DF91CF911F910F9108951092480710923C
:1014600047070895E0914707F091480706C0E8173D
:10147000F90739F00190F081E02D3097C1F780E055
:10148000089581E00895CF93DF93EC010E94320A22
:10149000811105C0CE01DF91CF910C94D509DF9168
:1014A000CF910895CF92DF92EF92FF92CF93DF9387
:1014B00080915B078823D1F18FB7F89420915B0767
:1014C00010925B078FBF30E0AAE0B0E00E94C10A33
:1014D0006B017C0114C0C41AD50AE60AF70A888198
:1014E000998190934807809347078A85813019F442
:1014F000CE010E94D509EB85FC85CE011995C091DE
:101500004707D0914807209789F04A815B816C8119
:101510007D81C416D506E606F706E8F64C195D0986
:101520006E097F094A835B836C837D83DF91CF9152
:10153000FF90EF90DF90CF9008950E94C7090E941E
:10154000CF0910E001E085E0E82E93E0F92EC9E430
:10155000D7E0109349071092500710924F0700935D
:101560005107E0925207F0925307D0935507C0936A
:101570005407009356078AE497E00E94BB021F5F5E
:10158000E8CFA29FB001B39FC001A39F01D0B29F3B
:10159000700D811D1124911D08958F929F92AF921D
:1015A000BF92CF92DF92EF92FF92CF93DF93EC0145
:1015B000688179818A819B81611571058105910519
:1015C00021F464E279ED8BE597E02DE133EF41E022
:1015D00050E00E94350B49015A019B01AC01A7EA7A
:1015E000B1E40E94510B6B017C01ACEEB4EFA5019C
:1015F00094010E945F0BC60ED71EE81EF91EF7FE6F
:1016000006C081E0C81AD108E10880E8F80AC8825B
:10161000D982EA82FB82E894D7F8EE24FF24C6013F
:10162000DF91CF91FF90EF90DF90CF90BF90AF9080
:101630009F908F9008950C94CD0A80E092E00C94D6
:10164000CD0AA0E0B0E08093000290930102A09345
:101650000202B09303020895FB01DC0102C0019075
:101660000D9241505040D8F70895052E97FB16F47F
:10167000009407D057FD0DD00E94640B07FC09D0E1
:101680007EF490958095709561957F4F8F4F9F4F19
:10169000089550954095309521953F4F4F4F5F4F9E
:1016A00008950E94C10AA59F900DB49F900DA49F1C
:1016B000800D911D11240895B7FF0C94510B0E94C9
:1016C000510B821B930B0895A1E21A2EAA1BBB1B80
:1016D000FD010DC0AA1FBB1FEE1FFF1FA217B307FE
:1016E000E407F50720F0A21BB30BE40BF50B661F14
:1016F000771F881F991F1A9469F7609570958095D8
:1017000090959B01AC01BD01CF010895F894FFCFE6
:0417100001000000D4
:00000001FF
