:1000000099C00000B8C00000B6C00000B4C0000035
:10001000B2C00000B0C00000AEC00000ACC0000024
:10002000AAC00000A8C00000A6C00000A4C0000034
:10003000A2C00000D4C000009EC000009CC0000010
:100040009AC0000098C0000096C0000094C0000054
:1000500092C0000090C000008EC000008CC0000064
:100060008AC0000088C0000086C0000084C0000074
:1000700082C0000080C000007EC000007CC0000084
:100080007AC0000078C0000076C0000074C0000094
:1000900072C0000070C000006EC000006CC00000A4
:1000A0006AC0000068C0000066C0000064C00000B4
:1000B00062C0000060C000005EC000005CC00000C4
:1000C0005AC0000058C0000056C0000054C00000D4
:1000D00052C0000050C000004EC000004CC00000E4
:1000E0004AC0000048C0000046C0000044C00000F4
:1000F00042C0000040C000003EC000003CC0000004
:100100003AC0000038C0000036C0000034C0000013
:1001100032C0000030C000002EC000002CC0000023
:100120002AC0000028C0000026C0000024C0000033
:1001300022C0000011241FBECFEFD1E8DEBFCDBF2B
:1001400000E00CBF12E0A0E0B2E0EAE1FAE200E079
:100150000BBF02C007900D92A830B107D9F729E074
:10016000A8E0B2E001C01D92A23DB207E1F70E94F3
:1001700086120C940B1544CF14BE88E10FB6F89488
:1001800080936000109260000FBEE1E6F0E080E82E
:1001900080831082789409D08FEF82B985B988B9AD
:1001A0008BB98EB981BB84BB08951092610984EA32
:1001B0008093B30080E28093B6008091B60080FD0A
:1001C000FCCF8091B00082608093B00081E080938A
:1001D000B1008091700082608093700008951F923A
:1001E0000F920FB60F9211248F93809161098F5F48
:1001F000809361098F910F900FBE0F901F901895FB
:10020000909108029F7080915401807F892B809388
:1002100054019091080280910902992319F080936A
:1002200053010895982F9F7180914801807E892BFA
:1002300080934801089593E0909342019091410189
:100240009F719830D9F780934201909141019F713D
:100250008913FBCF089588E0EEDF8FEF80934F0185
:1002600080910A02882311F086E1E5CF0895E9E341
:10027000F1E080818160808310920A02109208026E
:1002800081E080938B0288E0D6DF8BEE809356016D
:10029000ECE4F1E0808180688083089580930A0215
:1002A000DACF80930902ACCFCF93DF931F921F92D6
:1002B000CDB7DEB79A838983809362018A81809368
:1002C00063010F900F90DF91CF910895CF93DF934B
:1002D0001F921F92CDB7DEB79A8389838093600106
:1002E0008A81809361018A819981890F80936D0150
:1002F0000F900F90DF91CF91089588E09CDFE9E3A4
:10030000F1E080818260808382E080938B02089597
:10031000E9E3F1E080818D7F80839DDF81E0809340
:100320008B0208951F93CF93DF931F921F92CDB737
:10033000DEB7182F89E169839A837DDF8FEF809381
:100340004F01698182E0860F80938001212FE12F88
:100350009A81F92FA1E8B1E08E2F821B861718F43D
:1003600081918D93F9CF83E080938B0282E080931B
:1003700042010F900F90DF91CF911F910895CF937D
:10038000DF9300D000D0CDB7DEB780918B028230F2
:1003900009F463C080914F0183FF3BC050917B0102
:1003A00040E0252F30E0842F90E02817390754F0E3
:1003B000FC01E058FE4F6081FC01E55FFD4F60836A
:1003C0004F5FF1CF8BE092E09A83898352505B8339
:1003D000F901E55FFD4F80818C83809147018A554B
:1003E0008D83CE0101969AD3809141018F71863120
:1003F000D9F780914F01886080934F0180914C0123
:100400008F7780934C0180914C01806880934C01E0
:1004100024C080914F0186FF20C0809141018F71DF
:100420008931B1F48091420182958695877049F0B7
:10043000833021F0853021F482E003C081E001C0E7
:1004400083E08E8308DF91E090938B028E81C2D689
:1004500080914F01806480934F0126960FB6F894E7
:10046000DEBF0FBECDBFDF91CF9108951092660918
:10047000109267091092630910926209109289091B
:1004800010928809E8E6F9E01192119289E0E838C3
:10049000F807D1F7BDD522D3FAD03DD068C19093EB
:1004A00063098093620912CF909365098093640970
:1004B000FBCEE82FF0E0EE0FFF1FE859F64F7183F7
:1004C0006083089581E02091880930918909232B68
:1004D00009F480E0089511CF1BCF4AD39CD63EC0CB
:1004E000E0918C02F0918D023097A1F0228133814E
:1004F0002817390759F4DC01AD57BF4F2C912787D6
:1005000013962C91208B22E0248304C00190F0816B
:10051000E02DEACFFBC010928D0210928C0208955C
:10052000FC011482178613821282809188099091AF
:1005300089090196909389098093880980918C029A
:1005400090918D02009719F41182108202C091835C
:100550008083F0938D02E0938C0208950F931F9394
:10056000CF93DF93E0918C02F0918D02EF01209701
:1005700009F488C08C81882321F0823009F458C0A6
:100580007DC08CD08C01009721F482E08C838F8712
:1005900079C09B838A8381E08C83F801E957FF4F00
:1005A00080E792E0918380833197898582FB882759
:1005B00080F980839985F801838590FB80F9838792
:1005C000998593FB992790F990FB82F98387809115
:1005D00066098F5F80936609848780916209909194
:1005E0006309968785878D819E81908B8787988503
:1005F0009F708189807F892B818B9F819295907FCD
:100600008F70892B818BEF57FF4F4C8550E06A85A7
:100610007B85808191810E947514F80181819C8580
:10062000890F8183C801DF91CF911F910F911DC563
:10063000EC17FD0739F48881998190938D0280939E
:100640008C020BC0808191818C179D0711F0FC01F9
:10065000F9CF8881998191838083809188099091D5
:10066000890901979093890980938809ED85FE8512
:10067000CE01DF91CF911F910F9119940990D881EC
:10068000C02D75CFDF91CF911F910F9108951092DA
:100690008E02109217031092A003089580918E028B
:1006A000882359F080911703882351F08091A0038B
:1006B000811129C082E090E005C080E090E002C096
:1006C00081E090E049E8489F9001499F300D112456
:1006D000C90182579D4FFC0111924A95E9F740E10B
:1006E000FC014183EF57FF4F20563D4F318320835C
:1006F00020918809309189092F5F3F4F30938909F4
:1007000020938809089580E090E00895FC0110820C
:10071000E8E8F9E0808191810197918380830895D1
:10072000009711F0FC0103C0EEE8F2E002C0E757C9
:10073000FF4F84E0E932F80728F480818823B9F379
:10074000CF01089580E090E00895FC01ED57FF4F40
:100750001082E6E6F9E020812F5F2083FC012487E8
:100760002091620930916309368725870895EEE26A
:10077000F4E080E090E02FEF3FEF57E0DF011497C7
:100780002D933C93589FD001599FB00D1124A75D24
:10079000BB4F4C914E7F4C93108201963796843616
:1007A000910561F70895CF93DF93AAE2B4E020E0CA
:1007B00030E0C7E070E0ED91FC911197E817F90780
:1007C00089F4C29FF001C39FF00D1124E75DFB4F38
:1007D000D081D1FB442740F950E04617570711F468
:1007E000CF0108C02F5F3F4F17962436310519F708
:1007F00080E090E0DF91CF910895E0E0F0E0A9E2A1
:10080000B4E08C9180FD0BC015968C9115978823D0
:1008100061F0309719F09581891708F4FD0117965A
:1008200086E0A53EB80769F701C0FD0180818D70A3
:100830008063808380E88583CF010895FC018081F7
:1008400080FD05C08FEF9FEF92838183158208950D
:10085000AADF009721F0FC018381948108958FEF36
:100860009FEF0895A0DF009709F0E8CF0895EF9279
:10087000FF920F931F93CF93DF93EC0109851A85A5
:1008800017FF06C08D859E850817190709F042C01D
:100890008D819E81019609F43DC060E08D859E8525
:1008A00082DFFC01CE018D579F4F7C01309729F1EB
:1008B0008F819885019669F441E020916209309119
:1008C00063098F8598892817390709F040E0242F9C
:1008D00001C020E0838194818017910729F0D7011E
:1008E0009C918681891710F020FF11C01483038327
:1008F00080818F70806380830AC07FDFFC018D85DB
:100900009E859283818389859A8594838383D70189
:100910008C918683DF91CF911F910F91FF90EF9083
:100920000895CF93DF93EC018F8598898F3F2FEF48
:100930009207A1F16B8563FB662760F934DFFC0148
:10094000009761F1808180FD29C0CD57DF4F9881EC
:10095000282F2F70911113C02063208385818F5F12
:1009600085838F3FD9F4EEE2F4E0808186958F5F36
:100970008083379686E0EA3EF807B9F70FC0829584
:100980008F70815F8F70982F9295907F922B9083BC
:10099000811104C0CF01DF91CF9150CFDF91CF9172
:1009A0000895CF93DF93EC018F8598898F3F2FEFC8
:1009B000920739F06B8562FD04C063FB662760F91E
:1009C00047DF98878F83DF91CF910895BF92CF92B1
:1009D000DF92EF92FF920F931F93CF93DF938C01DF
:1009E000FC01B384B3FABB24B0F8C784D0886B2D64
:1009F000C6012EDF019699F0F801E957FF4F1182E9
:100A00001082319782E08083C801DF91CF911F91DE
:100A10000F91FF90EF90DF90CF90BF9026C3F80129
:100A2000E584F6843BDEEC010097C1F08EDE89811F
:100A30008A5F8983FE01E957FF4F11821082F88A8D
:100A4000EF8636970190F081E02D81E08083F2827D
:100A5000E182D482C382B582CE0107D3C801DF917F
:100A6000CF911F910F91FF90EF90DF90CF90BF90AB
:100A70004DCEDC011796ED91FC91189719968C914B
:100A8000863031F4658183819481ECDE81E00895C4
:100A900080E00895E7EFF6E020E03081332319F09D
:100AA0003150308321E0359637E0E932F307A9F77A
:100AB0002111E8C40895DC0119962C91199722237D
:100AC00059F01796ED91FC9118972081222319F087
:100AD000213011F4CECF5DC380E00895E7EFF6E05A
:100AE0001082359687E0E932F807D1F784E690E086
:100AF000A0E0B0E08093EB069093EC06A093ED06A7
:100B0000B093EE061092EF068AE495E09093F1061A
:100B10008093F0066BE575E080E0CBCCCF93DF935C
:100B2000EC01E881F98181818838F9F480818F7D39
:100B30008134D9F48A818031C0F0B0DD0097A9F00A
:100B400020E2FC0120832A8121832B81ED57FF4F76
:100B500020832C81319620834A8150E068817981FD
:100B60000296DF91CF910C947514DF91CF91089587
:100B70006F927F929F92AF92BF92CF92DF92EF924D
:100B8000FF920F931F93CF93DF93CDB7DEB72C97D0
:100B90000FB6F894DEBF0FBECDBF00E010E094E2C8
:100BA000D92E9924939422E2C22E33E2A32E4FE150
:100BB000B42EEE24E394F12CC801B2DD8C01009731
:100BC00009F4B0C1D8018C91823209F4A6C018F49E
:100BD000803249F0F1CF833209F46EC1843261F77B
:100BE000C80194DDE9CFF801D0824385842F8A7053
:100BF00019F725813681878590892F3F3F4F61F412
:100C000020916209309163092817390711F0019684
:100C100099F6D801CC92D0CF019611F440FDCCCFFB
:100C20002091620930916309F8018585968528171E
:100C3000390709F4C1CFC8011ADEE3EFF6E040E05E
:100C400050E08481882309F449C0D8011D962D9174
:100C50003C911E97808191812817390709F03FC088
:100C60001C969C911C974281491B8381483058F502
:100C7000282F30E0042E02C0359527950A94E2F71C
:100C800020FF18C0209162093091630917968D9159
:100C90009C9118972817390709F08ECF1B966C91F5
:100CA0001B9763FB662760F91F968D919C91509767
:100CB000D9DD82CF9701042E01C0220F0A94EAF7F2
:100CC000822B8383FCC092834195042E01C0880F40
:100CD0000A94EAF781608383B482F1C0AF0135964C
:100CE000B7E0E532FB0709F0ACCF4115510509F437
:100CF00063CFF80185859685DA0111969C938E93D2
:100D0000848512968C93129713969C92139714963F
:100D1000BC9285EE96E0B6D3D2C01092F206F801EE
:100D20003189232F22952F70E22FF0E0EE0FFF1F65
:100D3000E859F64F0190F081E02D309709F45EC03C
:100D4000D8011D968D919C911E979A8389831F9639
:100D50004D915C9150975C834B833F703D832E8314
:100D6000AF57BF4F6D917C917987688798012E5F4F
:100D70003F4F261B370BD80111963C911197320F2C
:100D80003A87AD57BF4F2C912B8711962C912C870A
:100D9000D8011B962C91622F637022FF02C030E2B3
:100DA00001C030E0632B23FF02C030E401C030E01B
:100DB000362B4F3F5F4F11F424E001C020E0432F5A
:100DC000422BD80119962D913C911A9782179307BF
:100DD00011F498E001C090E0242F292BD80115963A
:100DE0008D919C911697019611F480E101C080E0ED
:100DF000822B8F83CE010196199501C080E0F80106
:100E0000938590FF80E0D80117964D915C911897DB
:100E100020916209309163094F3F5F4F41F4F8011F
:100E2000478550892417350711F493FF81E0D801D5
:100E300015964D915C9116974F3F5F4F09F480E0F6
:100E40002F3F3F4FB1F18823A1F128DC3C010097EF
:100E500081F17BDCD30111968C9111978D5F1196F6
:100E60008C931197F301E957FF4F11821082F8011B
:100E70009385969591701B968C911B9790FB81F9A9
:100E80001B968C931B978585968550969C938E9385
:100E90001F97F301EF57FF4F0190F081E02D108273
:100EA0008091F2068283D8011C968C918183C301C4
:100EB000DCD0F801D08280CEC80188DD7DCED8019B
:100EC00017968D919C911897019679F4209162095B
:100ED00030916309F801878590892817390729F02F
:100EE000838582FD02C0C8010DD180916209909175
:100EF0006309D8011F962D913C9150978217930753
:100F000019F02F3F3F4F19F4F801C08255CED80198
:100F100017962D913C9118978217930709F04CCEA4
:100F2000AC924ACE2C960FB6F894DEBF0FBECDBF62
:100F3000DF91CF911F910F91FF90EF90DF90CF90B5
:100F4000BF90AF909F907F906F9008950F931F93E5
:100F5000CF93DF93EC0110E0E0E0F0E003E1CF019C
:100F6000DFDBFC01009791F080818131C1F7DF0167
:100F7000AC57BF4F2D913C911197215031092D93C2
:100F80003C93232B09F4008311E0E9CF112331F0C6
:100F9000CE01DF91CF911F910F9174C2DF91CF915C
:100FA0001F910F910895FF920F931F93CF93DF939B
:100FB000EC0110E0E0E0F0E007E180E1F82ECF0185
:100FC000AFDBFC010097A9F080818631C1F7DF011A
:100FD000AC57BF4F2D913C9111972150310911967B
:100FE0003C932E93232B19F400831197FC9211E06C
:100FF000E6CF112339F0CE01DF91CF911F910F91F0
:10100000FF9040C2DF91CF911F910F91FF90089503
:101010001092400710923F0782E390E0A0E0B0E01A
:101020008093380790933907A0933A07B0933B0712
:1010300010923C0783ED97E090933E0780933D0725
:101040008AE090E0A0E0B0E080932B0790932C071B
:10105000A0932D07B0932E0710922F0786EA97E0F2
:10106000909331078093300708950F931F93CF9388
:10107000DF93EC01FC01EA57FF4F208182E1888376
:101080003397108220FF03C08FEF9FEF04C0809141
:101090006409909165099E838D83257019F4CE01B2
:1010A00080DC04C08F85988998878F83809162093E
:1010B000909163099A878987809167098F5F8093F0
:1010C00067098C838F8198858E010C571F4F01967D
:1010D00069F481E498E89B838A830E94671487708F
:1010E00099270196F8019183808307C081E698E8EB
:1010F0009B838A83F80111821082DF91CF911F9127
:101100000F9108950F931F93CF93DF938C01C6DA4D
:10111000EC010097C9F182E18883F801818189831C
:10112000FE01ED57FF4F10820E946714FE01EC573D
:10113000FF4F8770992701969183808333961182A0
:101140001082F801418150E0B8016E5F7F4FCE01FF
:1011500002960E94751481E498E89B838A838FEF3E
:101160009FEF98878F83F801858196819E838D8379
:1011700080916209909163099A87898780916709B4
:101180008F5F809367098C83DF91CF911F910F91BF
:101190000895CF93DF93FC01C781D085818583308B
:1011A00011F080E014C080E090E0BADA0097C9F353
:1011B000FC0120812631C9F7348529813213F5CF0E
:1011C00027E120832A81EA57FF4F208381E0DF91C6
:1011D000CF910895A0913F07B0914007833030F43C
:1011E000E82FF0E0EC5FFD4F808101C081E0FD0160
:1011F000ED57FF4F808385E18C931092400710924A
:101200003F078091880990918909019790938909F6
:10121000809388090895BF92CF92DF92EF92FF9258
:101220000F931F93CF93DF93C0E0D0E094E1E92EBA
:1012300027E1F22E36E1D32E05E110E043E1C42E82
:1012400051E1B52ECE016CDAEC01009709F45EC0D5
:1012500088818331B9F018F4823139F0F3CF8531C8
:1012600051F1873109F443C0EDCFFE01EC57FF4F38
:1012700080819181892B21F0B88285E297E033C08B
:10128000C882E0CF80913F0790914007892BD1F62B
:10129000D0934007C0933F07E8826981CE01029650
:1012A00041D8809188099091890901969093890984
:1012B00080938809C7CFFE01ED57FF4F80818111D0
:1012C00014C02D853E85809162099091630928178D
:1012D000390759F48B8580FF08C0D8823196118375
:1012E000008382E397E0CED0ADCFF882ABCFCE01C2
:1012F00018DBFE01E957FF4F0190F081E02DCE0190
:10130000309711F403DA9ECF19959CCFDF91CF91DE
:101310001F910F91FF90EF90DF90CF90BF900895B5
:101320000E94BC0062D00E943701A0C828D8D5D83E
:10133000B6C00F931F93CF93DF93FC0180914107B9
:1013400090914207B681A781308521850097F1F100
:101350004B2F5A2F632F722FDC01D0E0C0E0129682
:101360000D911D912D913C911597401751076207E2
:10137000730768F4041B150B260B370B12960D939D
:101380001D932D933C931597AD2FBC2F0EC0401B82
:10139000510B620B730B2D913C9111972115310567
:1013A00021F0DA2FCB2FD901DACF42835383648324
:1013B0007583109741F08D919C9111979183808353
:1013C000ED93FC930DC09183808306C0118210823F
:1013D000B283A38334832583F0934207E0934107CC
:1013E000DF91CF911F910F910895109242071092B3
:1013F00041070895CF93DF93E0914107F0914207B1
:10140000A0E0B0E0309751F1E817F90711F520811D
:101410003181109719F02D933C9304C0309342070B
:10142000209341070190F081E02D3097B9F042817F
:10143000538164817581EC018A819B81AC81BD817E
:10144000480F591F6A1F7B1F428353836483758330
:1014500005C0DF010190F081E02DD4CFDF91CF9165
:101460000895E0914107F0914207309739F0E8176D
:10147000F90731F00190F081E02DF7CF80E0089579
:1014800081E00895CF93DF93EC01EBDF811104C07D
:10149000CE01DF91CF914DCFDF91CF910895CF92C3
:1014A000DF92EF92FF92CF93DF93809161098823BF
:1014B000C9F18FB7F89420916109109261098FBF2B
:1014C00030E0A5E0B0E00E9469136B017C01C0919F
:1014D0004107D0914207209729F14A815B816C81B5
:1014E0007D81C416D506E606F706A0F0C41AD50A13
:1014F000E60AF70A88819981909342078093410711
:101500008A85813011F4CE0114DFEB85FC85CE0194
:101510001995DDCF4C195D096E097F094A835B83FC
:101520006C837D83DF91CF91FF90EF90DF90CF9020
:1015300008958CEE0E940C1380E00E942E130E94EE
:1015400053138DEE0E940C130E943F1380934307A8
:101550000E943F13809344070E94491380934507DC
:101560000E9453138EEE0E940C1380E00E942E13F3
:101570000E9453138FEE0E940C130E943F1380931E
:1015800046070E943F13809347070E9449138093A8
:1015900048070E9453138CEE0E940C1388E40E94AB
:1015A0002E130E9453138EEE0E940C1388E40E94A7
:1015B0002E130E9453138DE597E01CDF8DE597E015
:1015C00061CF8CEE0E940C1388E50E942E130E94BE
:1015D00053138EEE0E940C1388E50E942E130E9476
:1015E00053138AE697E006DF8AE697E04BCF6FB7A2
:1015F000F894E0916308F091640880915B08909101
:101600005C089C012F5F3F4F30935C0820935B0880
:10161000E80FF91F808140915B0850915C08209190
:101620005F08309160084217530721F410925C085C
:1016300010925B08209161083091620821503109B5
:1016400030936208209361086FBF08953FB7F89404
:1016500020915A0810925A0880916108909162086E
:101660003FBF21111DC70895EF92FF921F93CF93A3
:10167000DF931F92CDB7DEB78CEECED78EE1EED7DB
:101680000E9453138FE19EE40197F1F700C0000020
:101690003FE8E32E39E0F32E12EA8CEEBDD7812F1E
:1016A000DDD70E9453138DEEB7D7E9D7482F50E00E
:1016B00060E070E0F7014083518362837383E9D770
:1016C0008983F1D7F7014081518162817381762F3F
:1016D000652F542F44278981482B4193519361935F
:1016E00071937F011E5F1E3AC1F68EEE95D78EE193
:1016F000B5D7D9D78FE19EE40197F1F700C000007C
:101700009CEAE92E99E0F92E12EA8EEE85D7812F18
:10171000A5D7C9D78FEE80D7B2D7482F50E060E069
:1017200070E0F7014083518362837383B2D789836A
:10173000BAD7F7014081518162817381762F652F7D
:10174000542F44278981482B41935193619371937E
:101750007F011E5F1E3AC9F60F90DF91CF911F9156
:10176000FF90EF9008951F93CF93DF931F92CDB713
:10177000DEB7182F698350D76981862F6FD793D72B
:101780008FEC97E00197F1F700C0000081E0810F36
:1017900043D77FD7898387D789810F90DF91CF91F6
:1017A0001F91089562E08EEADEDF84FD0AC063E0E7
:1017B0008EEAD9DF80935B0764E08EEAD4DF809302
:1017C0005C070895CF93DF931F921F92CDB7DEB7CA
:1017D0004A83698321D76981862F40D74A81842F24
:1017E0003DD70F900F90DF91CF915DC78091D009C9
:1017F0009091D10901969093D1098093D009803FAF
:10180000910599F440E06BE682EDDCDF87E797E035
:10181000F1DD87E797E036DE8091D0099091D1091C
:1018200001979093D1098093D009089540E86BE621
:1018300082EDC8DF40E06BE682EDC4DF2FEF89EF79
:1018400090E0215080409040E1F700C0000044E06B
:1018500069E182EDB7DF41E06AE182EDB3DF48E0A4
:101860006BE182EDAFDF40E06CE182EDABDF41E0A8
:101870006DE182EDA7DF40E46BE682EDA3CFCF936D
:10188000DF9382EDC9D68BE3E9D60DD78FEC97E0D5
:101890000197F1F700C0000083EDBED6CFE4D7E09A
:1018A000EED6899397E0C535D907D1F7E8D680936E
:1018B0005507E5D680935607C5E5D7E0E0D689936E
:1018C00087E0CA35D807D1F7E4D680935A07EBD61C
:1018D00040E46BE682EDDF91CF9174CF40916108D7
:1018E0005091620820915F083091600842175307B9
:1018F00069F1E0916308F091640820915D083091EE
:101900005E08A9014F5F5F4F50935E0840935D08EA
:10191000E20FF31F808320915D0830915E08809173
:101920005F08909160082817390721F410925E082B
:1019300010925D08809161089091620801969093E1
:1019400062088093610881E080935A080895CF92DD
:10195000DF92EF92FF92CF93DF936B017C0180E2E5
:10196000BDDF2AE045EC59E0C701B601C7D7C5EC99
:10197000D9E08991882329F0B1DF89E0C03DD807FB
:10198000C1F7DF91CF91FF90EF90DF90CF90089556
:101990002C9885E88A95F1F700002C9A60E08EEA91
:1019A000E2DE682F70E080E090E0D1DF40E060E6AA
:1019B0008EEA08DF40E061E68EEA04CF2F923F9284
:1019C0004F925F926F927F928F929F92AF92BF924F
:1019D000CF92DF92EF92FF920F931F93CF93DF93FB
:1019E000CDB7DEB7A7970FB6F894DEBF0FBECDBF59
:1019F0008091460740904707512C612C712C362D61
:101A0000252D142D0027282B80914807082B0D83A6
:101A10001E832F83388720914C0780914D0790E0DB
:101A2000A0E0B0E04427582F692F7A2F622B8091D5
:101A30004E07482B4D8B5E8B6F8B788F80914307C1
:101A400040904407512C612C712C762C652C542C21
:101A50004424682A80914507482A80919F099091E3
:101A6000A009A091A109B091A209BA2FA92F982F7E
:101A70008827481A590A6A0A7B0AC301B201990FDA
:101A8000660B762FCB0169837A838B839C8380914D
:101A9000A3099091A409A091A509B091A6098C0170
:101AA0009D015C016901E12CF12C00E010E0920144
:101AB000A3016981762F862F962F1AD6F22E032F37
:101AC000142FD52EE62EB72FF82FE92FA0E0AAD697
:101AD00084F42150310940485F4F6F4F7F4F8F4F43
:101AE0009F4FF22E032F142FD52EE62EB72FF82F4F
:101AF000E92F2F2D302F412F5D2D6E2D7B2F8F2F16
:101B00009E2F07E15FD649015A01D501C4018053D8
:101B1000984FAF4FBF4F88A399A3AAA3BBA320910F
:101B2000490780914A0790E0A0E0B0E0BA2FA92FC2
:101B3000982F8827A22B20914B07822B8C019D0187
:101B400040E050E0BA010D871E872F87388B498B04
:101B50005A8B6B8B7C8B80918F0990919009A0910F
:101B60009109B09192094C015D019C01A50160E0D1
:101B700070E080E090E001E10CD62B8F3C8F942E3A
:101B8000852E362E272E898F9A8F009197091091D6
:101B900098092091990930919A0958016901E12C1D
:101BA000F12C00E010E09201A3016981762F862FCD
:101BB000962F9ED507E006D659016A017B018C015C
:101BC0002B8D3C8D492D582D632D722D898D9A8D2D
:101BD00017D659016A017B018C012D853E854F8501
:101BE000588960E070E080E090E082D5F22E032F0B
:101BF000142FD52EE62EB72FF82FE92FA0E012D6FE
:101C000084F421503109404E5F4F6F4F7F4F8F4F0B
:101C10009F4FF22E032F142FD52EE62EB72FF82F1D
:101C2000E92F2F2D302F412F5D2D6E2D7B2F8F2FE4
:101C30009E2F05E1C7D52D87398F4A8F5B8F6C8F1B
:101C40007D8F8E8F9F8F8091930990919409A091A1
:101C50009509B09196094C015D019C01A50160E0D8
:101C600070E080E090E002E194D52FA33EA3942E93
:101C7000852E362E272E8CA39DA300919B091091B3
:101C80009C0920919D0930919E0958016901E12C20
:101C9000F12C00E010E09201A3016981762F862FDC
:101CA000962F26D505E08ED559016A017B018C015E
:101CB0002FA13EA1492D582D632D722D8CA19DA1E0
:101CC0009FD559016A017B018C012D85398D4A8D83
:101CD0005B8D6C8D7D8D8E8D9F8D9BD5F22E032F10
:101CE000142FD52EE62EB72FF82FE92FA0E09AD586
:101CF00084F4215030484F4F5F4F6F4F7F4F8F4FCD
:101D00009F4FF22E032F142FD52EE62EB72FF82F2C
:101D1000E92F2F2D302F412F5D2D6E2D7B2F8F2FF3
:101D20009E2F0FE04FD5B901CA0111DE8091BC0989
:101D30009091BD09A091BE09B091BF09BA2FA92FFA
:101D4000982F88274D805E806F807884481A590AC2
:101D50006A0A7B0AA3019201550F220B322FA901B7
:101D600029833A834B835C836D897E898F89988D23
:101D7000AB01BC0180E090E0DC014D835E836F83AA
:101D8000788789879A87AB87BC878091AC099091C7
:101D9000AD09A091AE09B091AF094C015D019C0164
:101DA000A50160E070E080E090E001E1F2D4298FCD
:101DB0003A8F942E852E362E272E8D8B9D8700915F
:101DC000B4091091B5092091B6093091B7095801AD
:101DD0006901E12CF12C00E010E09201A30169817E
:101DE000762F862F962F84D407E0ECD459016A0110
:101DF0007B018C01298D3A8D492D582D632D722D33
:101E00008D899D85FDD459016A017B018C012D814D
:101E10003E814F81588560E070E080E090E068D4BA
:101E2000F22E032F142FD52EE62EB72FF82FE92FE1
:101E3000A0E0F8D484F421503109404E5F4F6F4F39
:101E40007F4F8F4F9F4FF22E032F142FD52EE62E4C
:101E5000B72FF82FE92F2F2D302F412F5D2D6E2D0D
:101E60007B2F8F2F9E2F05E1ADD42D833D8B4D878A
:101E7000598F6A8F7B8F8C8F9D8F8091B009909145
:101E8000B109A091B209B091B3094C015D019C0167
:101E9000A50160E070E080E090E002E17AD42DA33B
:101EA0003CA3942E852E362E272E8E8F9F8F009149
:101EB000B8091091B9092091BA093091BB095801AC
:101EC0006901E12CF12C00E010E09201A30169818D
:101ED000762F862F962F0CD405E074D459016A0111
:101EE0007B018C012DA13CA1492D582D632D722D14
:101EF0008E8D9F8D85D459016A017B018C012D81C6
:101F00003D894D85598D6A8D7B8D8C8D9D8D81D4BC
:101F1000F22E032F142FD52EE62EB72FF82FE92FF0
:101F2000A0E080D484F4215030484F4F5F4F6F4F72
:101F30007F4F8F4F9F4FF22E032F142FD52EE62E5B
:101F4000B72FF82FE92F2F2D302F412F5D2D6E2D1C
:101F50007B2F8F2F9E2F0FE035D4B901CA01F7DCFC
:101F600068A179A18AA19BA1F2DC60914F0770E082
:101F7000762F662780915007682B882777FD8095FC
:101F8000982FE5DC6091510770E0762F66278091ED
:101F90005207682B882777FD8095982FD8DC6091B1
:101FA000530770E0762F662780915407682B8827A7
:101FB00077FD8095982FCBDC6091550770E0762FE8
:101FC000662780915607682B882777FD8095982F84
:101FD000BEDC6091570770E0762F66278091580726
:101FE000682B882777FD8095982FB1DC6091590781
:101FF00070E0762F662780915A07682B882777FD37
:102000008095982FA4DC60915B07772767FD70951A
:10201000872F972F9CDC60915C07772767FD709571
:10202000872F972FA7960FB6F894DEBF0FBECDBFB0
:10203000DF91CF911F910F91FF90EF90DF90CF90A4
:10204000BF90AF909F908F907F906F905F904F90D8
:102050003F902F907CCCCF93DF93813009F491C0D7
:10206000823009F04AC023D38BEA2DD322D38DE0EE
:102070008A95F1F700001BD386E025D31AD39DE0A3
:102080009A95F1F7000013D382E01DD380918A095D
:102090001AD38091A70917D39091C4098AE1989F18
:1020A000802D112410D3C3E4D7E089910CD387E0AD
:1020B000CD35D807D1F7FDD28FED9EE20197F1F72C
:1020C00000C000008091C4098F5F8093C4098930EB
:1020D00071F49091A7099F3F29F480918A098F5F3D
:1020E00080938A099F5F9093A7091092C409DFD259
:1020F00089EBE9D2DF91CF91DCC2833009F044C093
:10210000D6D28BEAE0D2D5D29DE09A95F1F70000C5
:10211000CED283E0D8D280918A09D5D28091A70906
:10212000D2D29091C4098AE1989F802D1124CBD2FC
:10213000C3E4D7E080E0C7D2899387E0CD35D807E4
:10214000C9F78091C4098F5F8093C409893071F405
:102150009091A7099F3F29F480918A098F5F80930E
:102160008A099F5F9093A7091092C409A2D28FECAD
:1021700097E00197F1F700C0000099D289EBA3D254
:1021800098D2DF91CF911ACCDF91CF9108958CEE48
:1021900043D280E063D287D28DEE3ED270D280935C
:1021A00049076DD280934A0774D280934B077BD244
:1021B0008EEE32D280E052D276D28FEE2DD25FD226
:1021C00080934C075CD280934D0763D280934E0777
:1021D0006AD255DBE7DA82E03ECF69D289EB73D26F
:1021E00068C242DA23DBD4DBF8CF81E997E0909331
:1021F00064088093630888EC90E090936008809373
:102200005F08109262081092610810925C081092A8
:102210005B0810925E0810925D081092D10910922E
:10222000D00910925A081092C40910928A0910928B
:10223000A7098AEF90E0A0E0B0E080938A0790932E
:102240008B07A0938C07B0938D0781E080938E0756
:1022500086EF9BE09093900780938F0784E190E056
:10226000A0E0B0E080937D0790937E07A0937F0766
:10227000B09380071092810781EE9AE090938307D4
:10228000809382078AE090E0A0E0B0E0809370073E
:1022900090937107A0937207B0937307109274071D
:1022A00029E93AE030937607209375078093630716
:1022B00090936407A0936507B09366071092670731
:1022C00087EC90E19093690780936807A1D1F5D1DD
:1022D00010928B0910928C0910928D0910928E0920
:1022E00080E69DE7A0E0B0E080938F09909390098D
:1022F000A0939109B09392098BED92E7A0E0B0E032
:102300008093930990939409A0939509B0939609AB
:1023100086E594E9A0E0B0E080939709909398094E
:10232000A0939909B0939A0983ED93E4A0E0B0E0FB
:1023300080939B0990939C09A0939D09B0939E095B
:1023400089EC94E8A0E0B0E080939F099093A00905
:10235000A093A109B093A20985E39DE6A0E0B0E0B7
:102360008093A3099093A409A093A509B093A6090B
:102370001092A8091092A9091092AA091092AB090B
:102380008FE09DE7A0E0B0E08093AC099093AD09A9
:10239000A093AE09B093AF098FE69DE6A0E0B0E050
:1023A0008093B0099093B109A093B209B093B30997
:1023B00081E095E9A0E0B0E08093B4099093B5097D
:1023C000A093B609B093B70988EA9FE3A0E0B0E014
:1023D0008093B8099093B909A093BA09B093BB0947
:1023E00087ED96E8A0E0B0E08093BC099093BD092A
:1023F000A093BE09B093BF0983E59DE6A0E0B0E0DD
:102400008093C0099093C109A093C209B093C309F6
:10241000E8DE84E897E036C810924109089581E02B
:102420000895CF93DF9380916508813021F40E9455
:102430006C02109265088091410981112DC0C091F4
:102440006608CC2349F14C2F50E067E678E084ED34
:1024500098E04BD21092480910924709D1E0D093EE
:102460004909D0934A0983E080934B0984ED98E0B1
:1024700090934D0980934C09C0934E098CE092E1F2
:102480009093500980934F0982E499E00E94900252
:1024900010926608D0934109DF91CF910895C1CF82
:1024A000EF92FF920F931F93CF93DF931F92CDB7BD
:1024B000DEB78C01E12CF12CE016F106C1F097D8C3
:1024C000909166089D3619F48983ABDF8981E0918C
:1024D0006608ED3640F491E09E0F90936608F0E0B8
:1024E000E959F74F80838FEFE81AF80AE5CF83E5C3
:1024F00099E00E94FA0983E599E00F90DF91CF916E
:102500001F910F91FF90EF900C94420A809164000C
:102510008F6E809364008091650089678093650069
:10252000809163008F608093630083B7817F8660B2
:1025300083BF809164008B7F8093640080916400EE
:102540008F7B80936400809164008F778093640018
:10255000809165008F7B80936500809163008E7F02
:1025600080936300809163008D7F809363008091EE
:1025700063008B7F8093630080916300877F8093EB
:1025800063000E94900931DE84E1C82ED12CE12C39
:10259000F12CCFE4D2E10E94960958D880916009CD
:1025A000811128C081E090E00E944F0287E695E407
:1025B0000E9454028FE00E94510181E00E944E016E
:1025C0006FE072E181E00E945902829A8A9A999A98
:1025D000A198C0925909D0925A09E0925B09F092F1
:1025E0005C0910925D09D0935F09C0935E0981E098
:1025F000809360090E9462028111CDCF80916508AD
:102600008111C9CF0E946B0281E080936508C3CF1E
:1026100085E08093B80008951092BC0094EA9093EE
:10262000BC009091BC0097FFFCCF9091B900987FBF
:10263000983011F081E008958093BB0084E8809386
:10264000BC008091BC0087FFFCCF8091B900887FDF
:10265000883111F0803471F780E008958093BB00D9
:1026600084E88093BC008091BC0087FFFCCF9091F0
:10267000B900987F81E0983209F480E0089584ECF5
:102680008093BC008091BC0087FFFCCF8091BB0091
:10269000089584E88093BC008091BC0087FFFCCF44
:1026A0008091BB00089584E98093BC0008957298DE
:1026B00008958EB18FEF8EB9089586E084B981E5D3
:1026C0008CBD6A9A08958EBD0DB407FEFDCF8EB500
:1026D0000895A29FB001B39FC001A39F700D811DFB
:1026E0001124911DB29F700D811D1124911D08951B
:1026F000DF93CF931F930F939A9DF02D219FF00DA1
:102700008B9DF00D8A9DE02DF10D039FF00D029F32
:10271000E00DF11D4E9DE00DF11D5E9DF00D4F9DF4
:10272000F00D7F936F93BF92AF925F934F93D5015C
:10273000D0DF8B01AC01D701CCDFEB01E80FF91F33
:10274000D6011FD02F913F91D601C3DFC60FD71FEF
:10275000E81FF91FAF91BF9114D02F913F91B9DFBE
:10276000C60FD71FE81FF91FD601B3DFE60FF71F0B
:102770009801BE01CF0111240F911F91CF91DF91DC
:102780000895A7DF460F571FC81FD91F08F43196B9
:1027900008950F93083090F0982F872F762F652F8C
:1027A000542F432F322F22270850F4CF220F331FEC
:1027B000441F551F661F771F881F991F0A95B2F780
:1027C0000F91089597FB10F8169400080F930830A6
:1027D00098F00850232F342F452F562F672F782F2E
:1027E000892F902DF4CF05949795879577956795C8
:1027F00057954795379527950A95AAF70F9108950C
:102800002A0D3B1D4C1D5D1D6E1D7F1D801F911FE0
:1028100008952A193B094C095D096E097F09800B4F
:10282000910B08950024A7FD00942A173005400558
:102830005005600570058005900508958F929F9260
:10284000AF92BF92CF92DF92EF92FF92CF93DF933E
:10285000EC01688179818A819B816115710581050F
:10286000910521F464E279ED8BE597E02DE133EFFA
:1028700041E050E082D049015A019B01AC01A7EA36
:10288000B1E497D06B017C01ACEEB4EFA5019401EB
:102890009CD0C60ED71EE81EF91EF7FE06C081E0CA
:1028A000C81AD108E10880E8F80AC882D982EA8209
:1028B000FB82C6019F77DF91CF91FF90EF90DF9071
:1028C000CF90BF90AF909F908F900895B7CF80E04A
:1028D00092E0B4CFA0E0B0E08093000290930102B8
:1028E000A0930202B09303020895FB01DC0102C031
:1028F00001900D9241505040D8F70895BB272A30DF
:1029000051F4992342F4BDE29095809570956195BC
:102910007F4F8F4F9F4F01C0BB27FA01A62F621731
:10292000710581059105330B30FB66F0AA27660F10
:10293000771F881F991FAA1FA21710F0A21B63956B
:102940003850A9F7A05DAA3308F0A95DA19336F726
:10295000B111B1931082CA0100C0DC01FC01672FE4
:1029600071917723E1F7329704C07C916D93708366
:102970006291AE17BF07C8F30895052E97FB16F4B2
:1029800000940FD057FD05D024D007FC02D046F4A8
:1029900008C050954095309521953F4F4F4F5F4F60
:1029A000089590958095709561957F4F8F4F9F4FBB
:1029B00008958FDEA59F900DB49F900DA49F800D6C
:1029C000911D11240895B7FFF4CFF3DF821B930B01
:1029D0000895A1E21A2EAA1BBB1BFD010DC0AA1F60
:1029E000BB1FEE1FFF1FA217B307E407F50720F078
:1029F000A21BB30BE40BF50B661F771F881F991FF3
:102A00001A9469F760957095809590959B01AC013B
:0A2A1000BD01CF010895F894FFCF37
:082A1A00010000000020210072
:00000001FF
