:1000000099C00000B8C00000B6C00000B4C0000035
:10001000B2C00000B0C00000AEC00000ACC0000024
:10002000AAC00000A8C00000A6C00000A4C0000034
:10003000A2C00000D8C000009EC000009CC000000C
:100040009AC0000098C0000096C0000094C0000054
:1000500092C0000090C000008EC000008CC0000064
:100060008AC0000088C0000086C0000084C0000074
:1000700082C0000080C000007EC000007CC0000084
:100080007AC0000078C0000076C0000074C0000094
:1000900072C0000070C000006EC000006CC00000A4
:1000A0006AC0000068C0000066C0000064C00000B4
:1000B00062C0000060C000005EC000005CC00000C4
:1000C0005AC0000058C0000056C0000054C00000D4
:1000D00052C0000050C000004EC000004CC00000E4
:1000E0004AC0000048C0000046C0000044C00000F4
:1000F00042C0000040C000003EC000003CC0000004
:100100003AC0000038C0000036C0000034C0000013
:1001100032C0000030C000002EC000002CC0000023
:100120002AC0000028C0000026C0000024C0000033
:1001300022C0000011241FBECFEFD1E8DEBFCDBF2B
:1001400000E00CBF12E0A0E0B2E0E4E0F5E200E085
:100150000BBF02C007900D92A830B107D9F729E074
:10016000A8E0B2E001C01D92A83CB207E1F70E94EE
:10017000F00F0C94801244CF14BE0FB6F894A895DB
:1001800080916000886180936000109260000FBED3
:10019000E1E6F0E080E88083108278940AD08FEF67
:1001A00082B985B988B98BB98EB981BB84BB249AD1
:1001B00008951092540984EA8093B30080E28093FA
:1001C000B6008091B60080FDFCCF8091B0008260C7
:1001D0008093B00081E08093B100809170008260D4
:1001E0008093700008951F920F920FB60F92112402
:1001F0008F93809154098F5F809354098F910F9052
:100200000FBE0F901F90189580910802982F9F7035
:1002100080915401807F892B809354019091080232
:1002200080910902992319F08093530108958F71E9
:1002300090914801907E892B80934801089593E026
:1002400090934201909141019F719830D9F780932A
:100250004201909141019F718913FBCF089588E07D
:10026000EEDF8FEF80934F0180910A02882311F017
:1002700086E1E5CF0895E9E3F1E080818160808344
:1002800010920A021092080281E080938B0288E0AB
:10029000D6DF8BEE80935601ECE4F1E0808180683C
:1002A0008083089580930A02DACF80930902ACCF4D
:1002B000CF93DF931F921F92CDB7DEB79A838983C6
:1002C000809362018A81809363010F900F90DF9188
:1002D000CF910895CF93DF931F921F92CDB7DEB7D2
:1002E0009A838983809360018A81809361019A81D6
:1002F0008981890F80936D010F900F90DF91CF91CD
:10030000089588E09CDFE9E3F1E0808182608083EA
:1003100082E080938B020895E9E3F1E080818D7F94
:1003200080839DDF81E080938B0208951F93CF939C
:10033000DF931F921F92CDB7DEB7182F89E1698333
:100340009A837DDF8FEF80934F01698182E0860F72
:1003500080938001212FE12F9A81F92FA1E8B1E04C
:100360008E2F821B861718F481918D93F9CF83E02D
:1003700080938B0282E0809342010F900F90DF9177
:10038000CF911F910895CF93DF9300D000D0CDB7C8
:10039000DEB780918B02823009F463C080914F01F7
:1003A00083FF3BC040917B0150E0242F30E0852F3C
:1003B00090E02817390754F0FC01E058FE4F6081A7
:1003C000FC01E55FFD4F60835F5FF1CF8BE092E062
:1003D0009A83898342504B83F901E55FFD4F808109
:1003E0008C83809147018A558D83CE010196ABD3D2
:1003F000809141018F718631D9F780914F018860DA
:1004000080934F0180914C018F7780934C018091B4
:100410004C01806880934C0124C080914F0186FF7D
:1004200020C0809141018F718931B1F480914201E6
:1004300082958695877049F0833021F0853021F0D0
:1004400083E003C081E001C082E08E8308DF91E099
:1004500090938B028E81DAD680914F0180648093D5
:100460004F0126960FB6F894DEBF0FBECDBFDF91C9
:10047000CF9108951092590910925A091092560975
:100480001092550910927C0910927B09EBE5F9E076
:100490001192119289E0EB37F807D1F7DFD531D30C
:1004A000FBD03DD06BC1909356098093550912CF74
:1004B0009093580980935709FBCEE82FF0E0EE0F98
:1004C000FF1FE55AF64F71836083089581E0209104
:1004D0007B0930917C09232B09F480E0089511CF2A
:1004E0001BCF5BD3B4D63EC0E0918C02F0918D025D
:1004F0003097A1F0228133812817390759F4DC01A4
:10050000AD57BF4F2C91278713962C91208B22E05B
:10051000248304C00190F081E02DEACFFCC010924A
:100520008D0210928C020895FC01148217861382AA
:10053000128280917B0990917C09019690937C09AD
:1005400080937B0980918C0290918D02009719F421
:100550001182108202C091838083F0938D02E09318
:100560008C0208950F931F93CF93DF93E0918C0239
:10057000F0918D02EF01209709F489C08C818823C6
:1005800021F0823009F459C07EC08DD08C010097D3
:1005900021F482E08C838F877AC09B838A8381E0F9
:1005A0008C83F801E957FF4F84E792E091838083C1
:1005B0003197898582FB882780F98083F8018385BC
:1005C000998590FB80F98387998593FB992790F90A
:1005D00090FB82F98387809159098F5F8093590935
:1005E00084878091550990915609968785878D81DA
:1005F0009E81908B87878885982F9F708189807FC7
:10060000892B818B9F819295907F8F70892B818B15
:10061000EF57FF4F4C8550E06A857B858081918143
:100620000E943212F80191818C85890F8183C80163
:10063000DF91CF911F910F9134C5EC17FD0739F46D
:100640008881998190938D0280938C020BC0808168
:1006500091818C179D0711F0FC01F9CF8881998158
:100660009183808380917B0990917C09019790937D
:100670007C0980937B09ED85FE85CE01DF91CF91CA
:100680001F910F9119940990D881C02D74CFDF91DB
:10069000CF911F910F91089510928E02109217031F
:1006A0001092A003089580918E02882359F08091C2
:1006B0001703882351F08091A003811129C082E0A3
:1006C00090E005C080E090E002C081E090E049E861
:1006D000489F9001499F300D1124C90182579D4FB9
:1006E000FC0111924A95E9F740E1FC014183EF5783
:1006F000FF4F20563D4F3183208320917B0930915D
:100700007C092F5F3F4F30937C0920937B0908952C
:1007100080E090E00895FC011082E5E5F9E086A113
:1007200097A1019797A386A30895009711F0FC0164
:1007300003C0EEE8F2E002C0E757FF4F84E0E93281
:10074000F80728F480818823B9F3CF01089580E069
:1007500090E00895FC01DC01AD57BF4F1C92A5E568
:10076000B9E014969C9114979F5F14969C931497EC
:1007700094878D919C91968785870895E9E2F4E0AE
:1007800080E090E04FEF5FEF37E052834183389F86
:10079000D001399FB00D1124A75DBB4F2C912E7F46
:1007A0002C931582019637968436910571F708953A
:1007B000CF93DF93A9E2B4E020E030E0C7E070E03F
:1007C0001196ED91FC911297E817F90789F4C29FF1
:1007D000F001C39FF00D1124E75DFB4FD081D1FBE9
:1007E000442740F950E04617570711F4CF0108C0DD
:1007F0002F5F3F4F17962436310511F780E090E0C8
:10080000DF91CF91089580E090E0E0E0F0E0DC013E
:10081000A75DBB4F2C9120FD0BC015962C91159711
:10082000222361F0309719F03581231708F4FD0178
:1008300007968C3B22E0920751F701C0FD018081B1
:100840008D708063808380E88583CF010895FC01EB
:10085000808180FD05C08FEF9FEF92838183158299
:100860000895A6DF009721F0FC018381948108950B
:100870008FEF9FEF08959CDF009709F0E8CF089570
:10088000EF92FF920F931F93CF93DF93EC010985B3
:100890001A8517FF06C08D859E850817190709F070
:1008A00045C08D819E81019609F440C060E08D8530
:1008B0009E857EDFFC01CE018D579F4F7C013097D6
:1008C00041F18F819885019679F491E080E0409123
:1008D0005509509156092F8538894217530709F059
:1008E00090E0292F382F02C020E030E083819481EE
:1008F0008017910729F0D7019C918681891710F004
:10090000232B89F01483038390819F7090639083DD
:100910000AC079DFFC018D859E859283818389855C
:100920009A8594838383D7018C918683DF91CF91BD
:100930001F910F91FF90EF900895CF93DF93EC01FB
:100940008F8598898F3F2FEF9207A1F16B8563FB0D
:10095000662760F92DDFFC01892B61F1908190FD04
:1009600029C0CD57DF4F2881892F8F70211113C0E7
:100970008063808385818F5F85838F3FD9F4EEE22A
:10098000F4E0808186958F5F8083379686E0EA3E2B
:10099000F807B9F70FC092959F70915F9F70292F4C
:1009A0002295207F822B8083911104C0CF01DF919B
:1009B000CF914DCFDF91CF910895CF93DF93FC017D
:1009C000878590898F3F2FEF920719F0638562FF2B
:1009D00003C09087878307C0EF0163FB662760F938
:1009E00040DF98878F83DF91CF910895AF92BF92B8
:1009F000CF92DF92FF920F931F93CF93DF938C01DF
:100A0000FC01F384F3FAFF24F0F8A784B0886F2D7B
:100A1000C50127DF019699F0F801E957FF4F1182D0
:100A20001082319782E08083C801DF91CF911F91BE
:100A30000F91FF90DF90CF90BF90AF9032C3F8013D
:100A4000C584D68430DEEC010097C1F083DE998145
:100A50009A5F9983FE01E957FF4F11821082D88A6D
:100A6000CF8636970190F081E02D81E08083D2829D
:100A7000C182B482A382F582CE0113D3C801DF9173
:100A8000CF911F910F91FF90DF90CF90BF90AF90CB
:100A900042CEDC011796ED91FC91189719968C9136
:100AA000863031F4658183819481E5DE81E00895AB
:100AB00080E00895AC01E7EFF6E020E09081992313
:100AC00019F09150908321E0359687E0E932F807DC
:100AD000A9F7222311F0CA01F3C40895DC01199685
:100AE0002C911997222359F01796ED91FC911897A4
:100AF0002081222319F0213011F4CBCF66C380E08E
:100B0000089580E090E0FC01ED50F94F14820596C5
:100B100082339105C1F784E690E0A0E0B0E08093D5
:100B2000EB069093EC06A093ED06B093EE061092C0
:100B3000EF068AE595E09093F1068093F0066EE665
:100B400075E080E0BACCCF93DF93EC01E881F981C6
:100B500081818838F9F480818F7D8134D9F48A814C
:100B60008031C0F0A0DD0097A9F020E2FC012083D5
:100B70002A8121832B81ED57FF4F20832C813196D1
:100B800020834A8150E0688179810296DF91CF917C
:100B90000C943212DF91CF9108956F927F928F92D1
:100BA0009F92AF92BF92CF92DF92EF92FF920F93FC
:100BB0001F93CF93DF93CDB7DEB72C970FB6F89482
:100BC000DEBF0FBECDBF00E010E094E2D92E882436
:100BD000839422E2C22E33E2932E4FE1B42E55E0ED
:100BE000A52EEE24E394F12CC8019FDD8C01892B06
:100BF00009F4BDC1D8018C91823209F4D2C018F435
:100C0000803249F0F1CF833209F49AC1843261F71E
:100C1000C80181DDE9CFF801D0822385822F8A7057
:100C200019F745815681878590894F3F5F4F59F469
:100C300020915509309156092817390709F4AEC09B
:100C4000019691F6ABC0019611F420FDCDCF209115
:100C5000550930915609F801858596852817390779
:100C600009F4C2CFC8010CDEA3EFB6E080E090E04B
:100C700060E070E014962C911497222309F453C07D
:100C8000F801458556852D913C91119742175307E0
:100C900009F04AC02485A89EF001A99EF00D1124F8
:100CA000ED50F94F8281821B883070F54381242FEB
:100CB00030E0082E02C0359527950A94E2F720FF10
:100CC00019C02091550930915609D80117968D9178
:100CD0009C9118972817390709F086CF1B966C91BD
:100CE0001B9763FB662760F91F968D919C91509727
:100CF000C2DD7ACF970102C0220F331F8A95E2F737
:100D0000C901842B83832BC02283238130E081950A
:100D1000A90102C0440F551F8A95E2F7CA018160FC
:100D20008383B4821CC0BD010196159657E0A5329D
:100D3000B50709F09FCF6115710509F455CFD801AA
:100D40001D968D919C911E97FB01918380831C962B
:100D50008C9182838382B48285EE96E0B1D3D801F0
:100D600017968D919C911897019669F420915509D9
:100D700030915609D8011F968D919C915097281754
:100D8000390709F0E0C08091550990915609F801A2
:100D9000278530898217930709F0DCC0D801CC92EF
:100DA00023CF1092F206D80151962C915197322FF1
:100DB00032953F70E32FF0E0EE0FFF1FE55AF64F3C
:100DC0000190F081E02D309709F45CC01D968D9163
:100DD0009C911E979A8389831F964D915C915097A1
:100DE0005C834B832F702D833E83AF57BF4F6D9134
:100DF0007C917987688798012E5F3F4F261B370BC0
:100E0000D80111963C911197230F2A87AD57BF4FF8
:100E10002C912B8711962C912C87D8011B966C91C5
:100E2000262F237062FD02C030E001C030E2232B88
:100E300063FD02C030E001C030E4322B4F3F5F4F12
:100E400011F020E001C024E0232BD80119964D9128
:100E50005C911A978417950711F090E001C098E013
:100E6000922BD80115962D913C9116972F3F3F4F0D
:100E700011F080E001C080E1892B8F83CE010196C3
:100E8000199501C080E0F801938590FF80E0D801BA
:100E900017964D915C9118972091550930915609FC
:100EA0004F3F5F4F41F4F8014785508924173507BC
:100EB00011F493FF81E0D80115964D915C9116973E
:100EC0004F3F5F4F09F480E02F3F3F4FB1F1882340
:100ED000A1F1E9DB3C01009781F13CDCD3011196E3
:100EE0008C9111978D5F11968C931197F301E957AF
:100EF000FF4F11821082F8018385869581701B96C1
:100F00009C911B9780FB91F91B969C931B97858561
:100F1000968550969C938E931F97F301EF57FF4F42
:100F20000190F081E02D10828091F2068283D80139
:100F30001C968C918183C301B4D0F801D08254CE29
:100F4000C80154DD51CE1B968C9182FD1CCFC80187
:100F5000F5D019CF2F3F3F4F09F420CFF80127815B
:100F600030858217930709F03FCE90823DCE2C96B4
:100F70000FB6F894DEBF0FBECDBFDF91CF911F91AA
:100F80000F91FF90EF90DF90CF90BF90AF909F9028
:100F90008F907F906F9008950F931F93CF93DF935F
:100FA0008C01C0E0E0E0F0E0D3E1CF01BEDBFC016A
:100FB000892B91F080818131C1F7DF01AC57BF4FA0
:100FC0002D913C911197215031092D933C93232B66
:100FD00009F4D083C1E0E9CFCC2331F0C801DF911F
:100FE000CF911F910F916CC2DF91CF911F910F9103
:100FF0000895FF920F931F93CF93DF938C01C0E06E
:10100000E0E0F0E0D7E180E1F82ECF018EDBFC01DB
:10101000892BA9F080818631C1F7DF01AC57BF4F22
:101020002D913C9111972150310911963C932E93AB
:10103000232B19F4D0831197FC92C1E0E6CFCC2387
:1010400039F0C801DF91CF911F910F91FF9038C205
:10105000DF91CF911F910F91FF900895109240075B
:1010600010923F07E2E3F7E082E390E0A0E0B0E017
:1010700086839783A087B187128689EF97E094874C
:101080008387E5E2F7E08AE090E0A0E0B0E08683C5
:101090009783A087B18712868CEC97E0948783872B
:1010A00008950F931F93CF93DF93EC01FC01EA5750
:1010B000FF4F808192E198833397108280FF03C0B5
:1010C0002FEF3FEF04C020915709309158093E831C
:1010D0002D83857019F4CE0170DC04C08F8598894A
:1010E00098878F8380915509909156099A878987AF
:1010F00080915A098F5F80935A098C838F819885DC
:101100008E010C571F4F019669F481E498E89B8388
:101110008A830E942412877099270196F80191838F
:10112000808307C081E698E89B838A83F801118257
:101130001082DF91CF911F910F9108950F931F930C
:10114000CF93DF938C01AFDAEC01892BC9F182E1F7
:101150008883F80181818983FE01ED57FF4F10825A
:101160000E942412FE01EC57FF4F877099270196C9
:1011700091838083339611821082F801418150E07F
:10118000B8016E5F7F4FCE0102960E94321281E459
:1011900098E89B838A838FEF9FEF98878F83F8016E
:1011A000858196819E838D83809155099091560902
:1011B0009A87898780915A098F5F80935A098C8317
:1011C000DF91CF911F910F910895CF93DF93FC0191
:1011D000C781D0858185833011F080E014C080E024
:1011E00090E0A3DA0097C9F3FC0120812631C9F70A
:1011F000348529813213F5CF27E120832A81EA57EC
:10120000FF4F208381E0DF91CF910895A0913F07A8
:10121000B0914007833030F4E82FF0E0EC5FFD4FF1
:10122000808101C081E0FD01ED57FF4F808385E1A2
:101230008C931092400710923F0780917B09909108
:101240007C09019790937C0980937B090895BF9254
:10125000CF92DF92EF92FF920F931F93CF93DF9382
:10126000C0E0D0E004E117E186E1D82E95E1E92E57
:10127000F12C23E1C22E31E1B32ECE0156DAEC017E
:10128000892B09F45EC088818331B9F018F482316A
:1012900039F0F3CF853151F1873109F443C0EDCFF7
:1012A000FE01EC57FF4F80819181892B21F0B8829C
:1012B00085E297E033C0C882E0CF80913F079091EC
:1012C0004007892BD1F6D0934007C0933F0708838E
:1012D0006981CE0102962AD880917B0990917C0980
:1012E000019690937C0980937B09C7CFFE01ED574F
:1012F000FF4F8081811114C02D853E858091550955
:10130000909156092817390759F48B8580FF08C03A
:10131000D8823196F182E08282E397E0D1D0ADCFDE
:101320001883ABCFCE0109DBFE01E957FF4F0190D7
:10133000F081E02DCE01309711F4EDD99ECF1995B3
:101340009CCFDF91CF911F910F91FF90EF90DF9095
:10135000CF90BF9008950E94BC0062D00E943B01D4
:1013600089C811D8BED8B9C00F931F93CF93DF930C
:10137000FC018091410790914207B681A781308599
:1013800021850097F1F14B2F5A2F632F722FDC012B
:10139000D0E0C0E012960D911D912D913C911597D2
:1013A000401751076207730768F4041B150B260BDF
:1013B000370B12960D931D932D933C931597AD2FDC
:1013C000BC2F0EC0401B510B620B730B2D913C9137
:1013D0001197DA2FCB2F2115310511F0D901DACF72
:1013E0004283538364837583109741F08D919C9160
:1013F000119791838083ED93FC930DC0918380833B
:1014000006C011821082B283A38334832583F093B4
:101410004207E0934107DF91CF911F910F9108950B
:1014200010924207109241070895CF93DF93DC0199
:10143000E0914107F0914207C0E0D0E0309761F1C0
:10144000EA17FB0721F58D919C911197209719F0D0
:101450009983888304C09093420780934107ED915C
:10146000FC9111973097C1F042815381648175815D
:1014700012968D919D910D90BC91A02D840F951F7A
:10148000A61FB71F82839383A483B58305C0EF0192
:101490000190F081E02DD2CFDF91CF910895E091BE
:1014A0004107F0914207309739F0E817F90731F01A
:1014B0000190F081E02DF7CF80E0089581E008955C
:1014C000CF93DF93EC01EBDF811104C0CE01DF91FC
:1014D000CF914ACFDF91CF910895CF92DF92EF92D3
:1014E000FF92CF93DF93809154098823C1F18FB786
:1014F000F89420915409109254098FBF30E0A5E070
:10150000B0E020D66B017C01C0914107D091420729
:10151000209729F18A819B81AC81BD81C816D906AB
:10152000EA06FB06A0F0C81AD90AEA0AFB0A888173
:10153000998190934207809341078A85813011F405
:10154000CE0112DFEB85FC85CE011995DDCF8C191C
:101550009D09AE09BF098A839B83AC83BD83DF915C
:10156000CF91FF90EF90DF90CF90089583E497E0C4
:101570005CDF83E497E0A4CF4FB7F894209156083E
:101580003091570880914E0890914F08BC016F5FD1
:101590007F4F70934F0860934E08F901E80FF91FD1
:1015A000808160914E0870914F08209152083091CF
:1015B00053086217730721F410924F0810924E08D7
:1015C0002091540830915508215031093093550825
:1015D000209354084FBF08953FB7F89420914D08C9
:1015E00010924D0880915408909155083FBF2111E9
:1015F000C3C4089540915408509155082091520851
:10160000309153084217530771F140915608509199
:1016100057082091500830915108B9016F5F7F4FF2
:101620007093510860935008FA01E20FF31F808312
:1016300020915008309151088091520890915308A0
:101640002817390721F41092510810925008809100
:10165000540890915508019690935508809354082A
:1016600081E080934D080895CF92DF92EF92FF9230
:10167000CF93DF936B017C0180E2BCDF2AE049EB72
:1016800059E0C701B601F7D6C9EBD9E089918823A3
:1016900029F0B0DF89E0C33CD807C1F7DF91CF91D3
:1016A000FF90EF90DF90CF9008952F923F924F924E
:1016B0005F926F927F928F929F92AF92BF92CF92E2
:1016C000DF92EF92FF920F931F93CF93DF93CDB7EB
:1016D000DEB7A3970FB6F894DEBF0FBECDBF209143
:1016E0006D0780916E0790E0A0E0B0E0BA2FA92FBF
:1016F000982F8827A22B20916F07AC01BD01422BA8
:101700004D875E876F87788B209173078091740770
:1017100090E0A0E0B0E0BA2FA92F982F8827A22B45
:1017200020917507AC01BD01422B4B8B5C8B6D8BFF
:101730007E8B20916A0780916B0790E0A0E0B0E07B
:10174000BA2FA92F982F8827A22B20916C07822BC4
:10175000409193095091940960919509709196096F
:10176000762F652F542F44272C013D01441A550A2A
:10177000660A770AC301B201990F660B762FCB0177
:1017800069837A838B839C838091970990919809D0
:10179000A0919909B0919A098C019D015C016901A0
:1017A000E12CF12C00E010E09201A3016981762F79
:1017B000862F962FE0D4122FD32EE42EB52FF62F9E
:1017C000E72FF82E092FA0E070D584F421503109BD
:1017D00040485F4F6F4F7F4F8F4F9F4F122FD32E39
:1017E000E42EB52FF62FE72FF82E092F212F3D2DB0
:1017F0004E2D5B2F6F2F7E2F8F2D902F07E125D53C
:1018000049015A01D501C4018053984FAF4FBF4FD2
:10181000898F9A8FAB8FBC8F209170078091710751
:1018200090E0A0E0B0E0BA2FA92F982F8827A22B34
:1018300020917207822B8C019D0140E050E0BA019B
:101840000D831E832F83388749875A876B877C8750
:101850008091830990918409A0918509B0918609AE
:101860004C015D019C01A50160E070E080E090E02A
:1018700001E1D2D4298B3A8B1A014B01888F9F8BBF
:1018800000918B0910918C0920918D0930918E095E
:1018900058016901E12CF12C00E010E09201A30154
:1018A0006981762F862F962F66D407E0CED4590112
:1018B0006A017B018C0129893A89A101B401888DD3
:1018C0009F89E1D459016A017B018C012D813E8100
:1018D0004F81588560E070E080E090E04CD4122F9A
:1018E000D32EE42EB52FF62FE72FF82E092FA0E0E8
:1018F000DCD484F421503109404E5F4F6F4F7F4F4D
:101900008F4F9F4F122FD32EE42EB52FF62FE72F98
:10191000F82E092F212F3D2D4E2D5B2F6F2F7E2F5F
:101920008F2D902F05E191D42BA33AA34D83598B92
:101930006A8B7F8B888F9D8F809087099090880914
:10194000A0908909B0908A099401A50160E070E037
:1019500080E090E002E160D419014E8F5F8F68A3B0
:1019600079A34C0100918F09109190092091910960
:101970003091920958016901E12CF12C00E010E04E
:101980009201A3016981762F862F962FF4D305E06B
:101990005CD459016A017B018C0191014E8D5F8DF0
:1019A00068A179A1C4016FD459016A017B018C013E
:1019B0002BA13AA14D8159896A897F89888D9D8D96
:1019C0006BD4122FD32EE42EB52FF62FE72FF82E3F
:1019D000092FA0E06AD484F4215030484F4F5F4F64
:1019E0006F4F7F4F8F4F9F4F122FD32EE42EB52F67
:1019F000F62FE72FF82E092F212F3D2D4E2D5B2F8F
:101A00006F2F7E2F8F2D902F0FE01FD4B901CA01A9
:101A10002BDE8091B0099091B109A091B209B091EB
:101A2000B309BA2FA92F982F88272D853E854F857A
:101A30005889281B390B4A0B5B0B2D873E874F8734
:101A4000588B550F220B322FA90129833A834B83E0
:101A50005C836B897C898D899E89AB01BC0180E0A8
:101A600090E0DC014D835E836F83788789879A8756
:101A7000AB87BC878091A0099091A109A091A20990
:101A8000B091A3094C015D019C01A50160E070E0EB
:101A900080E090E001E1C0D329013A014B011C0133
:101AA0000091A8091091A9092091AA093091AB09C8
:101AB00058016901E12CF12C00E010E02D853E85F4
:101AC0004F8558896981762F862F962F54D307E04A
:101AD000BCD359016A017B018C019201A301B401BD
:101AE000C101D1D359016A017B018C012D813E8155
:101AF0004F81588560E070E080E090E03CD3122F89
:101B0000D32EE42EB52FF62FE72FF82E092FA0E0C5
:101B1000CCD384F421503109404E5F4F6F4F7F4F3B
:101B20008F4F9F4F122FD32EE42EB52FF62FE72F76
:101B3000F82E092F212F3D2D4E2D5B2F6F2F7E2F3D
:101B40008F2D902F05E181D32E8F3D8F4D835B8BA1
:101B5000698B7A8B8F8B988F8090A4099090A509C0
:101B6000A090A609B090A7099401A50160E070E0DB
:101B700080E090E002E150D319012A013B014C01C1
:101B80000091AC091091AD092091AE093091AF09D7
:101B900058016901E12CF12C00E010E02D853E8513
:101BA0004F8558896981762F862F962FE4D205E0DC
:101BB0004CD359016A017B018C019101A201B3014F
:101BC000C40161D359016A017B018C012E8D3D8DC9
:101BD0004D815B8969897A898F89988D5DD3122FB0
:101BE000D32EE42EB52FF62FE72FF82E092FA0E0E5
:101BF0005CD384F4215030484F4F5F4F6F4F7F4F7D
:101C00008F4F9F4F122FD32EE42EB52FF62FE72F95
:101C1000F82E092F212F3D2D4E2D5B2F6F2F7E2F5C
:101C20008F2D902F0FE011D3B901CA011DDD698DF1
:101C30007A8D8B8D9C8D18DD5091760740917707BA
:101C40003091780720917907652F742F832F922F79
:101C50005AD30ADD50917A0740917B0730917C0777
:101C600020917D07652F742F832F922F4CD3FCDC9E
:101C700050917E0740917F07309180072091810726
:101C8000652F742F832F922F3ED3EEDC6091820755
:101C9000062E000C770B880B990BE6DC609183070E
:101CA000062E000C770B880B990BA3960FB6F894B1
:101CB000DEBF0FBECDBFDF91CF911F910F91FF907F
:101CC000EF90DF90CF90BF90AF909F908F907F90DC
:101CD0006F905F904F903F902F90C6CCE6CCCF9303
:101CE000DF9302D28BEA0CD201D28DE08A95F1F714
:101CF0000000FAD183E004D280917E0901D2809164
:101D00009B09FED19091B8098AE1989F802D1124FA
:101D1000F7D1CAE6D7E080E0F3D1899397E0C438E1
:101D2000D907C9F78091B8098F5F8093B8098930C6
:101D300071F480919B098F3F29F490917E099F5FF8
:101D400090937E098F5F80939B091092B809CED142
:101D50008FEC97E00197F1F700C00000C5D189EB47
:101D6000CFD1C4D1DF91CF91A0CCB9CFBDD189EB78
:101D7000C7D1BCC1EEE4F8E084E897E091878087A2
:101D800088EC90E0958384831782168211821082FA
:101D90001382128210924D081092B80910927E0997
:101DA00010929B0910927D091092C4091092C509E6
:101DB0001092C6091092C709EDE5F7E088EE93E0AE
:101DC000A0E0B0E086839783A087B18781E0828717
:101DD00085EB9EE094878387E0E5F7E08FE090E075
:101DE000A0E0B0E086839783A087B187128626EBB8
:101DF0003AE034872387E3E4F7E086839783A0877C
:101E0000B18712868EE69EE09487838769D172D16E
:101E1000EFE7F9E0108211821282138284E79CE7D7
:101E2000A0E0B0E084839583A683B7838EE49CE62C
:101E3000A0E0B0E080879187A287B38787E993E924
:101E4000A0E0B0E084879587A687B7878BEE9EE3F6
:101E5000A0E0B0E0808B918BA28BB38B81E194E802
:101E6000A0E0B0E0848B958BA68BB78B8FEA9DE6C4
:101E7000A0E0B0E0808F918FA28FB38FECE9F9E002
:101E800010821182128213828BEF9CE7A0E0B0E0F7
:101E900084839583A683B7838CEA9EE6A0E0B0E0B6
:101EA00080879187A287B38788E694E9A0E0B0E0B5
:101EB00084879587A687B78787E491E4A0E0B0E0A0
:101EC000808B918BA28BB38B8FEB96E8A0E0B0E078
:101ED000848B958BA68BB78B87E19DE6A0E0B0E065
:101EE000808F918FA28FB38F41DF8DE597E0E8CA95
:101EF00010923409089581E00895CF93DF93809183
:101F00005808813021F40E94700210925808809184
:101F1000340981112DC0D0915908DD2349F14D2F8D
:101F200050E06AE578E087EC98E09CD210923B099B
:101F300010923A09C1E0C0933C09C0933D0983E087
:101F400080933E0987EC98E09093400980933F0985
:101F5000D093410988E79FE0909343098093420919
:101F600085E399E00E94940210925908C0933409C5
:101F7000DF91CF910895C1CFEF92FF920F931F93FE
:101F8000CF93DF931F92CDB7DEB78C01E12CF12CFC
:101F9000E016F106C1F0F0DA909159089D3619F477
:101FA0008983ABDF8981E0915908ED3640F491E0F7
:101FB0009E0F90935908F0E0E65AF74F80838FEF19
:101FC000E81AF80AE5CF86E499E02FDA86E499E08A
:101FD0000F90DF91CF911F910F91FF90EF9070CAFA
:101FE000809164008FEF8093640080916500896721
:101FF00080936500809163008F608093630083B756
:10200000817F866083BF809164008B7F80936400B2
:10201000809164008F7B80936400809164008F774F
:1020200080936400809165008F7B80936500809130
:1020300063008E7F80936300809163008D7F809327
:102040006300809163008B7F8093630080916300C5
:10205000877F809363007FD98DDE84E1C82ED12CE9
:10206000E12CF12CCBEBDFE07CD9B6DA809153097F
:10207000811128C081E090E00E94530287E695E438
:102080000E9458028FE00E94550181E00E94520197
:102090006BE77FE081E00E945D02829A8A9A999ABA
:1020A000A198C0924C09D0924D09E0924E09F0924D
:1020B0004F0910925009D0935209C093510981E001
:1020C000809353090E9466028111CECF80915808F7
:1020D0008111CACF0E946F0281E080935808C4CF5B
:1020E0008CE08093B8000895729808958EB18FEFB8
:1020F0008EB9089586E084B981E58CBD6A9A089509
:102100008EBD0DB407FEFDCF8EB50895052E97FB4D
:1021100016F400940FD057FD05D0D3D007FC02D0A1
:1021200046F408C050954095309521953F4F4F4F4C
:102130005F4F089590958095709561957F4F8F4F73
:102140009F4F0895A29FB001B39FC001A39F700D40
:10215000811D1124911DB29F700D811D1124911DAF
:102160000895F0DFA59F900DB49F900DA49F800D62
:10217000911D11240895DF93CF931F930F939A9D80
:10218000F02D219FF00D8B9DF00D8A9DE02DF10D1E
:10219000039FF00D029FE00DF11D4E9DE00DF11D1E
:1021A0005E9DF00D4F9DF00D7F936F93BF92AF92A8
:1021B0005F934F93D501C6DF8B01AC01D701C2DF1E
:1021C000EB01E80FF91FD6011FD02F913F91D601E7
:1021D000B9DFC60FD71FE81FF91FAF91BF9114D009
:1021E0002F913F91AFDFC60FD71FE81FF91FD60110
:1021F000A9DFE60FF71F9801BE01CF0111240F914F
:102200001F91CF91DF9108959DDF460F571FC81F83
:10221000D91F08F4319608950F93083090F0982F45
:10222000872F762F652F542F432F322F22270850C8
:10223000F4CF220F331F441F551F661F771F881FBF
:10224000991F0A95B2F70F91089597FB10F816940D
:1022500000080F93083098F00850232F342F452F93
:10226000562F672F782F892F902DF4CF05949795AF
:1022700087957795679557954795379527950A954B
:10228000AAF70F9108952A0D3B1D4C1D5D1D6E1D73
:102290007F1D801F911F08952A193B094C095D0974
:1022A0006E097F09800B910B08950024A7FD00940F
:1022B0002A1730054005500560057005800590051A
:1022C0000895A1E21A2EAA1BBB1BFD010DC0AA1F77
:1022D000BB1FEE1FFF1FA217B307E407F50720F08F
:1022E000A21BB30BE40BF50B661F771F881F991F0A
:1022F0001A9469F760957095809590959B01AC0153
:10230000BD01CF01089504D06894B11150C0089563
:1023100033D088F09F5790F0B92F9927B751A0F08C
:10232000D1F0660F771F881F991F1AF0BA95C9F769
:1023300012C0B13081F03AD0B1E0089537C0672FB4
:10234000782F8827B85F39F0B93FCCF38695779519
:102350006795B395D9F73EF4909580957095619502
:102360007F4F8F4F9F4F089557FD9058440F551F33
:1023700059F05F3F71F04795880F97FB991F61F007
:102380009F3F79F087950895121613061406551F7E
:10239000F2CF4695F1DF08C0161617061806991FEA
:1023A000F1CF86957105610508940895E894BB27DF
:1023B00066277727CB0197F908958F929F92AF9266
:1023C000BF92CF92DF92EF92FF92CF93DF93EC0117
:1023D000688179818A819B816115710581059105EB
:1023E00021F464E279ED8BE597E02DE133EF41E0F4
:1023F00050E08CDE49015A019B01AC01A7EAB1E42F
:10240000B0DE6B017C01ACEEB4EFA501940174D099
:10241000DC01CB018C0D9D1DAE1DBF1DB7FF03C0A0
:102420000197A109B04888839983AA83BB839F77CA
:10243000DF91CF91FF90EF90DF90CF90BF90AF9062
:102440009F908F900895B9CF80E092E0B6CFA0E042
:10245000B0E08093000290930102A0930202B09337
:1024600003020895FB01DC0102C001900D9241506E
:102470005040D8F70895BB272A3051F4992342F4ED
:10248000BDE290958095709561957F4F8F4F9F4FDE
:1024900001C0BB27FA01A62F6217710581059105BE
:1024A000330B30FB66F0AA27660F771F881F991F32
:1024B000AA1FA21710F0A21B63953850A9F7A05DC0
:1024C000AA3308F0A95DA19336F7B111B193108238
:1024D000CA0100C0DC01FC01672F71917723E1F78D
:1024E000329704C07C916D9370836291AE17BF07E1
:1024F000C8F30895B7FF35CE34DE821B930B0895E1
:04250000F894FFCF7D
:0825040001000000002021008D
:00000001FF
