:100000000C94A8000C94C9000C94C9000C94C9006D
:100010000C94C9000C94C9000C94C9000C94C9003C
:100020000C94C9000C94C9000C94C9000C94C9002C
:100030000C94C9000C94C90C0C94C9000C94C90010
:100040000C94C9000C94C9000C94C9000C94C9000C
:100050000C94C9000C94C9000C94C9000C94C900FC
:100060000C94C9000C94C9000C94C9000C94C900EC
:100070000C94C9000C94C9000C94C9000C94C900DC
:100080000C94C9000C94C9000C94C9000C94C900CC
:100090000C94B60B0C949A0B0C94C9000C94C900E8
:1000A0000C94C9000C94C9000C94F1000C9402014A
:1000B0000C94C9000C94C9000C94C9000C94C9009C
:1000C0000C94C9000C94C9000C94C9000C94C9008C
:1000D0000C94C9000C94C9000C94C9000C94C9007C
:1000E0000C94C9000C94C9000C94C9000C94C9006C
:1000F0000C94ED010C94C9000C94C9000C94CF0130
:100100000C94C9000C94C9000C94C9000C94C9004B
:100110000C94C9000C94C9000C94C9000C94C9003B
:100120000C94C9000C94C9000C94C9000C94C9002B
:100130000C94C9000C94D80C0C9421080C94500811
:100140000C94270D0C94A9050C94FB020C94BB0590
:1001500011241FBECFEFD1E8DEBFCDBF00E00CBF42
:1001600012E0A0E0B2E0E0E9FEE100E00BBF02C077
:1001700007900D92A031B107D9F72CE0A0E1B2E0D1
:1001800001C01D92A53CB207E1F70E94530D0C94EB
:10019000460F0C94000014BE88E10FB6F8948093CB
:1001A0006000109260000FBEE1E6F0E080E880831E
:1001B000108278940C94DC0010929E0C80E197E2FF
:1001C0009093A9008093A800E1EAF0E088E08083A2
:1001D000808182608083E2E7F0E0808182608083BA
:1001E00008951F920F920FB60F9211248F93809152
:1001F0009E0C8F5F80939E0C8F910F900FBE0F907F
:100200001F9018951F920F920FB60F9211248F9383
:1002100081E0809310028F910F900FBE0F901F907E
:10022000189593E090934201909141019F7198300D
:10023000D9F780934201909141019F718913FBCFBF
:10024000089580911D02882311F086E101C088E0A5
:100250000C941101E9E3F1E080818160808388E002
:100260000E9411018FEF80935601EEE6F1E090813C
:100270009062908390819F7E908380934F01EEE403
:10028000F1E0808188608083808180648083ECE4F9
:10029000F1E080818068808381E180936D0110921C
:1002A000150210921D021092170281E08093140231
:1002B0000895E5E1F2E090819061908380931D02C2
:1002C0000895E5E1F2E090819160908380931602B9
:1002D0000895E5E1F2E020812260208390931902E5
:1002E000809318020895E5E1F2E0208124602083E4
:1002F00090931B0280931A0208958091140281301A
:1003000049F481E090E020911502211105C080E0C0
:1003100090E002C081E090E08170089588E00E9442
:100320001101E9E3F1E080818260808382E08093C3
:1003300014020895E9E3F1E080818D7F80830E94BB
:10034000210181E08093140208951F93CF93DF93DE
:100350001F921F92CDB7DEB7182F89E169839A8368
:100360000E9411016981862F8E5F80938001E12FA9
:100370009A81F92FA1E8B1E002C081918D938E2F6F
:10038000811B8617D0F382E08093420183E0809343
:1003900014020F900F90DF91CF911F9108951F923B
:1003A0000F920FB60F9211248F93809141018F719C
:1003B000893169F480914201829586958770809396
:1003C000130289E08093420184E0809314028F91AC
:1003D0000F900FBE0F901F9018951F920F920FB69F
:1003E0000F9211248F9389E08093420180914701FD
:1003F0008093120280917B018093110285E08093AB
:1004000014028F910F900FBE0F901F9018951F939D
:10041000CF93DF9300D01F921F92CDB7DEB78091AC
:100420001402843009F453C0853009F464C081306B
:1004300009F08BC010911502112309F486C088E0E1
:100440000E94110110FF19C090911702292F2F70DF
:1004500080915401807F822B8093540180911602F9
:10046000911109C0982F9F7180914801807E892B3E
:100470008093480102C0809353018091150281FF4F
:1004800008C08091180280936201809119028093C4
:1004900063018091150282FF08C080911A02809347
:1004A000600180911B02809361018091150283FF9E
:1004B00009C090911C029F7080914501807F892B1B
:1004C000809345010E942101109215023EC0809147
:1004D00013020E947309809141018F718930D9F70D
:1004E0002FC0FC01E058FE4F2081FC01E25EFD4F71
:1004F00020834F5F01C040E020911102842F90E0E3
:1005000030E0281739076CF78EE192E09A838983EF
:100510008091110282508B83E0911102F0E0E25E43
:10052000FD4F80818C83809112028A558D83CE018C
:1005300001960E94F005809141018F718930D9F7B1
:1005400081E0809314020E9421010F900F900F9080
:100550000F900F90DF91CF911F9108951092A30CEF
:100560001092A40C1092A00C10929F0CE5EAFCE0F3
:10057000119211928CE0E53CF807D1F70E948808AF
:100580000E94CF050E94B1030E9419030C940F042E
:100590009093A00C80939F0C0C9473019093A20CE9
:1005A0008093A10C0C946901E82FF0E0EE0FFF1F7F
:1005B000EB55F34F7183608308950E947D01811193
:1005C0000CC080E090E00E94E60321E030E0892B3F
:1005D00011F420E030E0C90102C081E090E08170B8
:1005E00008950C948E010C949A010E9421060E9499
:1005F0008F090C941E03E0919E02F0919F0215C09A
:10060000228133812817390769F4DC01AD57BF4FC8
:100610002C912787DC01AA57BF4F2C91208B22E019
:10062000248305C00190F081E02D309749F70C94A8
:10063000E30310929F0210929E0208950F931F935E
:10064000CF93DF93E0919E02F0919F02EF0181C072
:100650008C81882321F0823009F078C05BC00E9431
:10066000BB038C01009721F482E08C838F8774C0D8
:100670009B838A8381E08C83F801E957FF4F8BEFDE
:1006800092E091838083F801EA57FF4F898582FBCE
:10069000882780F980839985F801838590FB80F90C
:1006A0008387998593FB992790F990FB82F983873B
:1006B0008091A30C8F5F8093A30C848780919F0C03
:1006C0009091A00C968785878D819E81908B8787DE
:1006D00098859F708189807F892B818B9F819295DE
:1006E000907F8F70892B818BEF57FF4F4C856A85E8
:1006F0007B8550E0808191810E940E0FF8018181FD
:100700009C85890F8183C801DF91CF911F910F9143
:100710000C94B508EC17FD0741F4888199819093FA
:100720009F0280939E020AC0FC01808191818C17F8
:100730009D07D1F78881998191838083ED85FE851E
:10074000CE01DF91CF911F910F9119940990D8811B
:10075000C02D209709F07CCFDF91CF911F910F9191
:100760000895E0EAF2E01082E757FF4F87E0EA3FA2
:10077000F807C9F70895E0EAF2E080E090E0208110
:10078000211117C049E8489F9001499F300D11245D
:10079000F901E056FD4FDF011D924A95E9F780E12E
:1007A0008183DF01AF57BF4F2E543D4F2D933C93B4
:1007B00008C00196E757FF4F8A30910501F7E0E046
:1007C000F0E0CF010895FC0110820895009759F0E0
:1007D000FC01E757FF4F09C0E757FF4F87E0EA3FAB
:1007E000F80719F406C0E0EAF2E080818823A1F35B
:1007F00002C0E0E0F0E0CF010895FC01ED57FF4FAB
:100800001082E3EAFCE020812F5F2083FC01248733
:1008100020919F0C3091A00C368725870895EFEF2B
:10082000F7E080E090E02FEF3FEF57E0DF01149713
:100830002D933C93589FD001599FB00D1124A65081
:10084000B84F4C914E7F4C93108201963796843668
:10085000910561F70895CF93DF93ABEFB7E020E008
:1008600030E0C7E070E0ED91FC911197E817F907CF
:1008700079F4C29FF001C39FF00D1124E650F84FA8
:10088000D081D1FB442740F950E04617570741F08B
:100890002F5F3F4F17962436310529F7E0E0F0E04F
:1008A000CF01DF91CF910895E0E0F0E0AAEFB7E04B
:1008B0008C9180FD0CC015968C911597882369F05A
:1008C000309721F09581891708F001C0FD01179636
:1008D0008AE0A63BB80761F701C0FD0180818D70F9
:1008E0008063808380E88583CF010895FC01808147
:1008F00080FD05C08FEF9FEF92838183158208955D
:100900000E942B04009721F0FC012381348102C056
:100910002FEF3FEFC90108950E942B04009711F0BB
:100920000C94760408950F931F93CF93DF93EC01FB
:1009300009851A8517FF06C08D859E85081719073A
:1009400009F041C08D819E810196E9F160E08D85BD
:100950009E850E942B04FC01009731F18F819885C0
:10096000019659F481E090E040919F0C5091A00CC9
:100970002F8538894217530711F080E090E02381DA
:1009800034812017310739F0DE01AD57BF4F3C915C
:100990002681231710F080FF12C014830383808107
:1009A0008F70806380830BC00E945404FC018D858E
:1009B0009E859283818389859A8594838383CD578D
:1009C000DF4F88818683DF91CF911F910F9108952A
:1009D000CF93DF93EC018F8598898F3F2FEF92079C
:1009E000B9F16B8563FB662760F90E942B04FC015B
:1009F000009771F1908190FD2BC0CD57DF4F88811A
:100A0000811114C09F709063908385818F5F85836F
:100A10008F3FF1F4EFEFF7E0808186958F5F808361
:100A200037968AE0EB3BF807B9F712C0892F829519
:100A30008F7081508F70282F2295207F9F70922B6E
:100A40009083811105C0CF01DF91CF910C94760482
:100A5000DF91CF910895CF93DF93EC018F85988933
:100A60008F3F2FEF920709F408C06B8562FD05C028
:100A700063FB662760F90E94800498878F83DF916B
:100A8000CF910895BF92CF92DF92EF92FF920F9392
:100A90001F93CF93DF938C01FC01B384B3FABB2483
:100AA000B0F8C784D0886B2DC6010E9480040196DF
:100AB000B1F0F801E957FF4F11821082F801EA57AF
:100AC000FF4F82E08083C801DF91CF911F910F918A
:100AD000FF90EF90DF90CF90BF900C94B508F80195
:100AE000E584F6840E94BB03EC010097E1F00E94CC
:100AF000FD0389818A5F8983FE01E957FF4F1182D7
:100B00001082F88AEF86FE01EF57FF4F0190F081C7
:100B1000E02D81E08083F282E182D482C382B582BB
:100B2000CE010E94B508C801DF91CF911F910F91AE
:100B3000FF90EF90DF90CF90BF900C94E303DC0127
:100B40001796ED91FC9118976581838194810C949F
:100B50008C04EAEBFAE020E03081332319F03150C5
:100B6000308321E035963BE0E43BF307A9F7211100
:100B70000C948D0A0895DC011796ED91FC9118975D
:100B80002081222319F0213041F403C00E9455092D
:100B900002C00E949F0581E0089580E00895EAEB7D
:100BA000FAE0108235968BE0E43BF807D1F784E653
:100BB00090E0A0E0B0E08093B60B9093B70BA093C9
:100BC000B80BB093B90B1092BA0B89EA95E09093E9
:100BD000BC0B8093BB0B6BEB75E080E00C94D402F4
:100BE000CF93DF93EC01E881F9818181883831F579
:100BF0008081813611F0813409F58A818031F0F0ED
:100C00000E94BB030097D1F020E2FC0120832A81DF
:100C100021832B81ED57FF4F20832C81FC01EC5762
:100C2000FF4F20839C012E5F3F4F4A81688179816D
:100C300050E0C901DF91CF910C940E0FDF91CF915D
:100C400008956F927F928F929F92AF92BF92CF92B0
:100C5000DF92EF92FF920F931F93CF93DF93CDB765
:100C6000DEB72C970FB6F894DEBF0FBECDBF00E005
:100C700010E094E2D92EEE24E394F12C35E0832E9B
:100C800042E2942E53E2B52EAA24A39465E1C62E27
:100C9000B2C1D8018C91823209F4D7C020F48032DD
:100CA00009F0A9C107C0833209F49EC1843209F05A
:100CB000A2C19EC1F801D08287859089019629F44E
:100CC000D8011B968C9180FD96C120919F0C30918C
:100CD000A00CF801858596852817390709F48BC182
:100CE00083858A7009F087C1C8010E94930480E05F
:100CF00090E060E070E0889EF001899EF00D112484
:100D0000EA54F54F2481222309F44BC0D8011D96E3
:100D10004D915C911E97208131814217530709F054
:100D200041C01C969C911C974281491B838148308D
:100D300060F5282F30E0042E02C0359527950A94DF
:100D4000E2F720FF19C020919F0C3091A00C17965C
:100D50008D919C9118972817390709F04CC11B9663
:100D60006C911B9763FB662760F91F968D919C9190
:100D700050970E948C043FC19701042E01C0220F9E
:100D80000A94EAF7822B83833EC1928390E04195D7
:100D900002C0880F991F4A95E2F781608383C4825D
:100DA00032C1BF0101968233910509F0A4CF6115CC
:100DB000710509F420C1F80185859685DB0111963E
:100DC0009C938E93848512968C9312971396AC9273
:100DD00013971496CC9280EB9BE00E948D0A13C16E
:100DE00020919F0C3091A00CF801878590892817DD
:100DF000390761F085819681019641F0D8011B96F3
:100E00008C9182FD03C0C8010E94090980919F0C4A
:100E10009091A00CF801278530898217930719F06B
:100E20002F3F3F4F19F4D8019C92E5C0F80127816C
:100E300030858217930709F0DEC08581968101967F
:100E400009F4D9C0D801BC92D6C01092BD0BF801EC
:100E5000218922952F70E22FF0E0EE0FFF1FEB5556
:100E6000F34F0190F081E02D309709F463C0D80171
:100E70001D968D919C911E979A8389831F964D9103
:100E80005C9150975C834B8351963C9151973F7096
:100E90003D832E83AF57BF4F6D917C9179876887D3
:100EA00098012E5F3F4F261B370BD80111963C91BE
:100EB0001197320F3A87AD57BF4F2C912B87D8012E
:100EC000AC57BF4F2C912C87D8011B962C91622FC9
:100ED000637022FF02C030E201C030E0632B23FFC9
:100EE00002C030E401C030E0362B4F3F5F4F11F4B9
:100EF00024E001C020E0432F422BD80119962D9108
:100F00003C911A978217930711F498E001C090E082
:100F1000242F292BD80115968D919C911697019617
:100F200011F480E101C080E0822B8F83CE01019615
:100F3000199501C080E0F801278130852F3F3F4F90
:100F400071F421E030E060919F0C7091A00CD80109
:100F50001F964D915C9150976417750711F020E032
:100F600030E02170F801938590FF02C0811102C02A
:100F70002223B9F10E94BB033C01009791F10E942A
:100F8000FD03D30111968C9111978D5F11968C936F
:100F90001197F301E957FF4F11821082F8019385F1
:100FA000969591701B968C911B9790FB81F91B96DF
:100FB0008C931B978585968550969C938E931F974F
:100FC000F301EF57FF4F0190F081E02D10828091E7
:100FD000BD0B8283D8011C968C918183C3010E9432
:100FE000B508F801D08207C0C8010E94420503C0BD
:100FF000C8010E94E303C8010E94E6038C01009728
:1010000009F047CE09C0D80117968D919C91189789
:10101000019609F0FBCEE4CE2C960FB6F894DEBF15
:101020000FBECDBFDF91CF911F910F91FF90EF9039
:10103000DF90CF90BF90AF909F908F907F906F90F8
:1010400008950F931F93CF93DF93EC0110E0E0E03E
:10105000F0E003E111C08081813171F4DF01AC5710
:10106000BF4F2D913C911197215031092D933C9305
:10107000232B09F4008311E0CF010E94E603FC0159
:10108000009749F7112339F0CE01DF91CF911F91DD
:101090000F910C948D0ADF91CF911F910F910895BC
:1010A000FF920F931F93CF93DF93EC0110E0E0E0EA
:1010B000F0E007E180E1F82E15C08081863191F4DF
:1010C000DF01AC57BF4F2D913C9111972150310951
:1010D0002D933C93232B29F40083DF01AD57BF4FA1
:1010E000FC9211E0CF010E94E603FC01009729F772
:1010F000112341F0CE01DF91CF911F910F91FF900D
:101100000C948D0ADF91CF911F910F91FF9008955C
:101110001092BF0B1092BE0B82E390E0A0E0B0E013
:101120008093C60B9093C70BA093C80BB093C90BC9
:101130001092CA0B80E598E09093CC0B8093CB0B78
:101140008AE090E0A0E0B0E08093D30B9093D40BC2
:10115000A093D50BB093D60B1092D70B81E298E0F9
:101160009093D90B8093D80B08950F931F93CF932F
:10117000DF93EC01FC01EA57FF4F208182E1888375
:10118000FE01ED57FF4F1082322F317020FF03C058
:101190008FEF9FEF04C08091A10C9091A20C9E83D1
:1011A0008D8322FD06C0311104C0CE010E942B05A3
:1011B00004C08F85988998878F8380919F0C909128
:1011C000A00C9A8789878091A40C8F5F8093A40CD0
:1011D0008C838F8198858E010C571F4F019669F47F
:1011E00081E498E89B838A830E94FF0E8770992789
:1011F0000196F8019183808307C081E698E89B837C
:101200008A83F80111821082DF91CF911F910F9193
:1012100008950F931F93CF93DF938C010E94BB031C
:10122000EC010097E9F182E18883F80181818983EB
:10123000FE01ED57FF4F10820E94FF0EFE01EC579A
:10124000FF4F87709927019691838083FE01E957AC
:10125000FF4F118210829E012E5F3F4FF8014181A6
:10126000C801029650E0BC01C9010E940E0F81E442
:1012700098E89B838A838FEF9FEF98878F83F8018D
:10128000858196819E838D8380919F0C9091A00C87
:101290009A8789878091A40C8F5F8093A40C8C839C
:1012A000DF91CF911F910F910895CF93DF93FC01B0
:1012B000C781D08580E090E00FC0FC0120812631FD
:1012C00059F434852981321307C027E120832A810C
:1012D000EA57FF4F208304C00E94E603009769F796
:1012E000DF91CF910895E091BE0BF091BF0B833059
:1012F00030F0833031F0853031F481E205C080E098
:1013000003C080E201C081E0DF01AD57BF4F8C9385
:1013100085E180831092BF0B1092BE0B0895BF929F
:10132000CF92DF92EF92FF920F931F93CF93DF93B1
:10133000C0E0D0E094E1E92E27E1F22E36E1D32E91
:1013400005E110E043E1C42E51E1B52E59C088817A
:101350008331C1F020F4823109F052C006C08531DA
:1013600001F1873109F04CC03BC0FE01EC57FF4F43
:1013700080819181892B21F0B8828DEC9BE02BC07C
:10138000C8823EC00E947D0181113AC0D093BF0B3C
:10139000C093BE0BE8826981CE0102960E94A5012E
:1013A0002FC0FE01ED57FF4F8081811117C02D85A1
:1013B0003E8580919F0C9091A00C2817390771F4FD
:1013C0008B8580FF0BC0D882FE01EC57FF4F118345
:1013D000008380EC9BE00E948D0A12C0F88210C04E
:1013E000CE010E94E804FE01E957FF4F0190F08111
:1013F000E02DCE01309719F40E94E30301C0199546
:10140000CE010E94E603EC01009709F0A0CFDF9126
:10141000CF911F910F91FF90EF90DF90CF90BF90F1
:1014200008950E94CB000E94770A0E942A010C9422
:10143000AE020E9407020E94F5020C949C0A0F93D0
:101440001F93CF93DF93FC018091DA0B9091DB0B1C
:10145000B681A781308521850097D1F14B2F5A2F76
:10146000632F722FDC01C0E0D0E001C0D9011296D9
:101470000D911D912D913C911597401751076207D1
:10148000730758F4041B150B260B370B12960D939C
:101490001D932D933C9315970BC0401B510B620B72
:1014A000730B2D913C911197ED0121153105F1F64A
:1014B0004283538364837583209739F088819981AF
:1014C00091838083F983E8830DC09183808306C074
:1014D00011821082B283A38334832583F093DB0BC4
:1014E000E093DA0BDF91CF911F910F910895109245
:1014F000DB0B1092DA0B0895E091DA0BF091DB0B25
:1015000006C0E817F90739F00190F081E02D309717
:10151000C1F780E0089581E00895CF93DF93EC0157
:101520000E947C0A811105C0CE01DF91CF910C94FD
:101530001F0ADF91CF910895CF92DF92EF92FF9231
:10154000CF93DF9380919E0C8823D1F18FB7F894CD
:1015500020919E0C10929E0C8FBF30E0AAE0B0E06C
:101560000E94A30E6B017C0114C0C41AD50AE60ABE
:10157000F70A888199819093DB0B8093DA0B8A8537
:10158000813019F4CE010E941F0AEB85FC85CE0143
:101590001995C091DA0BD091DB0B209789F04A8125
:1015A0005B816C817D81C416D506E606F706E8F6F8
:1015B0004C195D096E097F094A835B836C837D83C7
:1015C000DF91CF91FF90EF90DF90CF9008959B0136
:1015D000AC0184E0220F331F441F551F8A95D1F7B9
:1015E00060E074E284EF90E00E94810E21503109A6
:1015F00041095109BB27A52F942F832F8093CD003C
:101600002093CC0082E08093C80088E98093C900D1
:1016100086E08093CA0082EF9BE09093F10B809369
:10162000F00B84E690E09093ED0B8093EC0B10921E
:10163000EF0B1092EE0B1092E90B1092E80B109248
:10164000EB0B1092EA0B87E59CE09093E70B8093FD
:10165000E60B81E090E09093E30B8093E20B109215
:10166000E50B1092E40B1092DF0B1092DE0B109240
:10167000E10B1092E00B81E08093DD0B1092DC0B0C
:1016800008952091EE0B3091EF0B4091EC0B5091AF
:10169000ED0B24173507F9F06091EA0B7091EB0B15
:1016A000E091F00BF091F10BE60FF71F8083CB0177
:1016B00001968417950729F09093EB0B8093EA0B22
:1016C00004C01092EB0B1092EA0B2F5F3F4F309348
:1016D000EF0B2093EE0B08959FB7F894E091E60B83
:1016E000F091E70B2091DE0B3091DF0BE20FF31F3F
:1016F00080812F5F3F4F3093DF0B2093DE0B4091B3
:10170000DE0B5091DF0B2091E20B3091E30B42177F
:10171000530721F41092DF0B1092DE0B2091E40BA3
:101720003091E50B215031093093E50B2093E40B08
:101730009FBF08951F920F920FB60F9211240BB600
:101740000F928F93EF93FF9381E08093DD0BE9EC91
:10175000F0E080818F7D8083FF91EF918F910F90DA
:101760000BBE0F900FBE0F901F9018951F920F92F7
:101770000FB60F9211240BB60F922F933F934F93F6
:101780008F939F93EF93FF938091C8004091CE0079
:101790008C71B1F52091E40B3091E50B8091E20B57
:1017A0009091E30B2817390759F1E091E60BF0917E
:1017B000E70B8091E00B9091E10BE80FF91F40835C
:1017C00001969093E10B8093E00B2091E00B309118
:1017D000E10B8091E20B9091E30B2817390721F47C
:1017E0001092E10B1092E00B8091E40B9091E50BCD
:1017F00001969093E50B8093E40B81E08093DC0BE2
:10180000FF91EF919F918F914F913F912F910F9069
:101810000BBE0F900FBE0F901F9018958091EE0B8E
:101820009091EF0B009789F12091DD0B222369F154
:101830002091E80B3091E90BE091F00BF091F10B66
:10184000E20FF31F60812F5F3F4F3093E90B20932E
:10185000E80B4091EC0B5091ED0B2417350721F468
:101860001092E90B1092E80B01979093EF0B809385
:10187000EE0B9FB7F8946093CE008091C900806210
:101880008093C9001092DD0B9FBF3FB7F894209161
:10189000DC0B1092DC0B8091E40B9091E50B3FBFC9
:1018A00021110C943C0D08958091B6008F71E1F7E1
:1018B0000895FF920F931F93CF93DF9325E0660F58
:1018C000771F881F991F2A95D1F728EE33E040E053
:1018D00050E00E94810E211531054105510509F4A2
:1018E00052C0BB27A52F942F832F8C01F22E10926C
:1018F00070003091B60030623093B6001092B000A4
:101900001092B1001092B2000E94540C37E037BB25
:101910003093B100CFEFD7E001C0F12C1092590CF9
:101920000115110519F0C093B30016C0FF2019F07E
:10193000F092B30011C00E94540C109270001092EB
:10194000B10083B5826083BD0E94540C8091B600C3
:101950008F7D8093B60017C0309170003260309355
:1019600070000E94540CD3BF889513BE4FB7F894F3
:101970003091590C4FBF332389F20115110569F2DB
:1019800001501109CBCFDF91CF911F910F91FF90A3
:1019900008951F920F920FB60F9211248F9381E03A
:1019A0008093590C8F910F900FBE0F901F90189538
:1019B00080915A0C843021F481E080935A0C089570
:1019C0008BE59CE00C948D0AAF92BF92DF92EF9270
:1019D000FF920F931F93CF93DF931F92CDB7DEB784
:1019E000E82ED62E80E199830E94410B82E00E946E
:1019F000410BAE2C9981B92EF12C11C08501F50156
:101A00008081803121F40E94410BF0E1FF0EF5014D
:101A100081915F010E94410BF8018081F80E8A2DAF
:101A20008E198D1558F380E10E94410B83E00E94CE
:101A3000410B8F2D8B5D0F90DF91CF911F910F91F7
:101A4000FF90EF90DF90BF90AF900C94410BFC01A2
:101A5000A781B08585B190E2892785B9828559969D
:101A60008C93599783855A968C936185878190854D
:101A70000E94E40C81E008950F931F93CF93DF93AE
:101A80008C01C0E0D0E003C00E946C0B2196C0170F
:101A9000D107D1F785B190E4892785B9DF91CF913E
:101AA0001F910F9108950E94110A60E076E980E08D
:101AB00090E00E94E70A77247394C12CDD24D3942C
:101AC000ED2CFD2C812C90E8992EA12CB12CC4E397
:101AD000D2E12CE0422E30E2332E4BE0542E52E085
:101AE000252E64E0662E08ED1CE00E94190A0E9473
:101AF0000E0C80915A0C833009F4D8C028F4882346
:101B000061F0813091F799C0863009F4DEC08730EA
:101B100009F4EBC0853049F7D0C07092680C109280
:101B2000690C10926A0C10926B0C10926C0C109253
:101B30006D0C10926E0C10926F0C1092700C109233
:101B4000710C1092730C1092720CC092740CD092A3
:101B5000750CE092760CF092770C8092780C909253
:101B6000790CA0927A0CB0927B0CD0937D0CC09330
:101B70007C0C8FE080937E0C1092800C10927F0C76
:101B80001092810C1092820C7092830C4092840C03
:101B90001092850C1092860C1092870C1092880C73
:101BA0001092890C10928A0C10928B0C10928C0C53
:101BB00010928D0C10928E0C10928F0C1092900C33
:101BC0003092910C5092920CE4E0F2E0A3E9BCE078
:101BD000852D01900D928A95E1F723BA14BA60BA67
:101BE00061BA249A2C9A259A2D9A269A2E9A80E0E8
:101BF00090E00E94C80284E392E10E94CE028FE04E
:101C00000E94610181E00E94590167E27DE081E06C
:101C10000E94D40280ED97E0A0E0B0E08093610CD8
:101C20009093620CA093630CB093640C1092650CBB
:101C30001093670C0093660C60C060E080E090E059
:101C40000E9480049093800C80937F0C0E94FF0E72
:101C5000A0E0B0E08093850C9093860CA093870C55
:101C6000B093880C0E94FF0E8F779927AA2797FDC3
:101C7000A095BA2F8093890C90938A0CA0938B0C1B
:101C8000B0938C0C0E94FF0E9927AA2797FDA09570
:101C9000BA2F80938D0C90938E0CA0938F0CB093E1
:101CA000900C66E388E69CE00E94E40C8BE59CE0E7
:101CB0000E948D0A60925A0C18CF0E94DD02811199
:101CC00014CF0E94F10286E00DC024982C9825982C
:101CD0002D9826982E9860ED77E080E090E00E94A5
:101CE000590C87E080935A0C00CF0E94F302249A8B
:101CF0002C9A259A2D9A269A2E9A2C9870925A0CE4
:101D0000F4CEA1E21A2EAA1BBB1BFD010DC0AA1F17
:101D1000BB1FEE1FFF1FA217B307E407F50720F054
:101D2000A21BB30BE40BF50B661F771F881F991FCF
:101D30001A9469F760957095809590959B01AC0118
:101D4000BD01CF010895A29FB001B39FC001A39F21
:101D500001D0B29F700D811D1124911D08958F92A5
:101D60009F92AF92BF92CF92DF92EF92FF92CF936A
:101D7000DF93EC01688179818A819B81611571050E
:101D80008105910521F464E279ED8BE597E02DE181
:101D900033EF41E050E00E94170F49015A019B01C7
:101DA000AC01A7EAB1E40E94330F6B017C01ACEEF9
:101DB000B4EFA50194010E94410FC60ED71EE81E84
:101DC000F91EF7FE06C081E0C81AD108E10880E8D4
:101DD000F80AC882D982EA82FB82E894D7F8EE2416
:101DE000FF24C601DF91CF91FF90EF90DF90CF905D
:101DF000BF90AF909F908F9008950C94AF0E80E0AD
:101E000092E00C94AF0EA0E0B0E0809300029093BB
:101E10000102A0930202B09303020895FB01DC01CA
:101E200002C001900D9241505040D8F70895052E00
:101E300097FB16F4009407D057FD0DD00E94810E39
:101E400007FC09D07EF490958095709561957F4F41
:101E50008F4F9F4F089550954095309521953F4F56
:101E60004F4F5F4F08950E94A30EA59F900DB49F02
:101E7000900DA49F800D911D11240895B7FF0C941F
:101E8000330F0E94330F821B930B0895F894FFCFFA
:101E900001000000436F6F7264696E61746F7200BD
:00000001FF
