:1000000099C00000B8C00000B6C00000B4C0000035
:10001000B2C00000B0C00000AEC00000ACC0000024
:10002000AAC00000A8C00000A6C00000A4C0000034
:10003000A2C00000A0C000009EC000009CC0000044
:100040009AC0000098C0000096C0000094C0000054
:1000500092C0000090C000008EC000008CC0000064
:100060008AC0000088C0000086C0000084C0000074
:1000700082C0000080C000007EC000007CC0000084
:100080007AC0000078C0000076C0000074C0000094
:1000900072C000000C94C60A6EC000006CC0000064
:1000A0006AC0000068C000009AC0000064C0000080
:1000B00062C0000060C000005EC000005CC00000C4
:1000C0005AC0000058C0000056C0000054C00000D4
:1000D00052C0000050C000004EC000004CC00000E4
:1000E0004AC0000048C0000046C0000044C00000F4
:1000F00042C0000040C000003EC000003CC0000004
:100100003AC0000038C0000036C0000034C0000013
:1001100032C0000030C000002EC000002CC0000023
:100120002AC0000028C0000026C0000024C0000033
:1001300022C0000011241FBECFEFD1E8DEBFCDBF2B
:1001400000E00CBF12E0A0E0B2E0E2E4F8E100E081
:100150000BBF02C007900D92A830B107D9F728E075
:10016000A8E0B2E001C01D92AE34B207E1F70E94F0
:100170003D0B0C941F0C44CF14BE0FB6F894A895F9
:1001800080916000886180936000109260000FBED3
:10019000E1E6F0E080E88083108278940BD08FEF66
:1001A00082B985B988B98BB98EB981BB84BB249AD1
:1001B0002C9A08951092250880E197E29093A90067
:1001C0008093A800E1EAF0E088E08083808182608B
:1001D0008083E2E7F0E080818260808308951F924F
:1001E0000F920FB60F9211248F93809125088F5F85
:1001F000809325088F910F900FBE0F901F90189538
:1002000080910802982F9F7080915401807F892BE4
:10021000809354019091080280910902992319F06A
:100220008093530108958F7190914801907E892B9E
:1002300080934801089593E0909342019091410189
:100240009F719830D9F780934201909141019F713D
:100250008913FBCF089588E0EEDF8FEF80934F0185
:1002600080910A02882311F086E1E5CF0895E9E341
:10027000F1E080818160808310920A02109208026E
:1002800081E080938B0288E0D6DF8BEE809356016D
:10029000ECE4F1E0808180688083089580930A0215
:1002A000DACF80930902ACCFCF93DF931F921F92D6
:1002B000CDB7DEB79A838983809362018A81809368
:1002C00063010F900F90DF91CF910895CF93DF934B
:1002D0001F921F92CDB7DEB79A8389838093600106
:1002E0008A81809361019A818981890F80936D0150
:1002F0000F900F90DF91CF9108951F93CF93DF93CD
:100300001F921F92CDB7DEB7182F89E169839A83B8
:1003100092DF8FEF80934F01698182E0860F809397
:100320008001212FE12F9A81F92FA1E8B1E08E2FD2
:10033000821B861718F481918D93F9CF83E0809307
:100340008B0282E0809342010F900F90DF91CF915A
:100350001F910895CF93DF9300D000D0CDB7DEB7C3
:1003600080918B02823009F463C080914F0183FF3A
:100370003BC040917B0150E0242F30E0852F90E07E
:100380002817390754F0FC01E058FE4F6081FC014A
:10039000E55FFD4F60835F5FF1CF8BE092E09A8372
:1003A000898342504B83F901E55FFD4F80818C8347
:1003B000809147018A558D83CE01019682D3809129
:1003C00041018F718631D9F780914F018860809308
:1003D0004F0180914C018F7780934C0180914C01AB
:1003E000806880934C0124C080914F0186FF20C01B
:1003F000809141018F718931B1F4809142018295E0
:100400008695877049F0833021F0853021F083E0B4
:1004100003C081E001C082E08E831DDF91E09093F4
:100420008B028E81ADD680914F01806480934F0105
:1004300026960FB6F894DEBF0FBECDBFDF91CF91E9
:10044000089510922A0810922B08109227081092F3
:10045000260810924D0810924C08ECE2F8E0119238
:10046000119288E0EC34F807D1F7B5D508D3D2D093
:1004700032D042C1909327088093260827CF9093CB
:1004800029088093280810CFE82FF0E0EE0FFF1F17
:10049000E45DF74F7183608308953CD392D620C00A
:1004A000E0918C02F0918D023097A1F0228133818E
:1004B0002817390759F4DC01AD57BF4F2C91278716
:1004C00013962C91208B22E0248304C00190F081AC
:1004D000E02DEACFDEC010928D0210928C020895BA
:1004E0000F931F93CF93DF93E0918C02F0918D02D5
:1004F000EF01209709F489C08C81882321F0823094
:1005000009F459C07EC08DD08C01009721F482E09F
:100510008C838F877AC09B838A8381E08C83F801E8
:10052000E957FF4F80E592E0918380833197898579
:1005300082FB882780F98083F8018385998590FB69
:1005400080F98387998593FB992790F990FB82F92D
:10055000838780912A088F5F80932A0884878091FF
:10056000260890912708968785878D819E81908B9C
:1005700087878885982F9F708189807F892B818BC1
:100580009F819295907F8F70892B818BEF57FF4FC2
:100590004C8550E06A857B85808191810E94EA0BC1
:1005A000F80191818C85890F8183C801DF91CF91FA
:1005B0001F910F9133C5EC17FD0739F4888199819C
:1005C00090938D0280938C020BC0808191818C1757
:1005D0009D0711F0FC01F9CF888199819183808377
:1005E00080914C0890914D08019790934D0880930D
:1005F0004C08ED85FE85CE01DF91CF911F910F91C3
:1006000019940990D881C02D74CFDF91CF911F919B
:100610000F91089510928E02109217031092A0036A
:10062000089580918E02882359F0809117038823C2
:1006300051F08091A003811129C082E090E005C0B3
:1006400080E090E002C081E090E049E8489F90019E
:10065000499F300D1124C90182579D4FFC01119211
:100660004A95E9F740E1FC014183EF57FF4F2056DF
:100670003D4F3183208320914C0830914D082F5FEE
:100680003F4F30934D0820934C08089580E090E050
:100690000895FC011082E6E2F8E086A197A1019797
:1006A00097A386A30895009711F0FC0103C0EEE81C
:1006B000F2E002C0E757FF4F84E0E932F80728F480
:1006C00080818823B9F3CF01089580E090E00895F8
:1006D000FC01DC01AD57BF4F1C92A6E2B8E01496B6
:1006E0009C9114979F5F14969C93149794878D9177
:1006F0009C91968785870895E9E2F4E080E090E098
:100700004FEF5FEF37E052834183389FD001399F2D
:10071000B00D1124A75DBB4F2C912E7F2C93158219
:10072000019637968436910571F70895CF93DF933C
:10073000A9E2B4E020E030E0C7E070E01196ED916E
:10074000FC911297E817F90789F4C29FF001C39F43
:10075000F00D1124E75DFB4FD081D1FB442740F918
:1007600050E04617570711F4CF0108C02F5F3F4FE5
:1007700017962436310511F780E090E0DF91CF9194
:10078000089580E090E0E0E0F0E0DC01A75DBB4F81
:100790002C9120FD0BC015962C911597222361F00A
:1007A000309719F03581231708F4FD0107968C3B2B
:1007B00022E0920751F701C0FD0180818D708063B6
:1007C000808380E88583CF010895FC01808180FDCE
:1007D00005C08FEF9FEF9283818315820895A6DF76
:1007E000009721F0FC018381948108958FEF9FEFA2
:1007F00008959CDF009709F0E8CF0895EF92FF92EB
:100800000F931F93CF93DF93EC0109851A8517FF90
:1008100006C08D859E850817190709F045C08D8192
:100820009E81019609F440C060E08D859E857EDF43
:10083000FC01CE018D579F4F7C01309741F18F8194
:100840009885019679F491E080E0409126085091D6
:1008500027082F8538894217530709F090E0292F80
:10086000382F02C020E030E0838194818017910707
:1008700029F0D7019C918681891710F0232B89F0EC
:100880001483038390819F70906390830AC079DF03
:10089000FC018D859E859283818389859A859483C9
:1008A0008383D7018C918683DF91CF911F910F9124
:1008B000FF90EF900895CF93DF93EC018F85988997
:1008C0008F3F2FEF9207A1F16B8563FB662760F9DD
:1008D0002DDFFC01892B61F1908190FD29C0CD575E
:1008E000DF4F2881892F8F70211113C0806380838F
:1008F00085818F5F85838F3FD9F4EEE2F4E08081BC
:1009000086958F5F8083379686E0EA3EF807B9F7D1
:100910000FC092959F70915F9F70292F2295207F25
:10092000822B8083911104C0CF01DF91CF914DCFF5
:10093000DF91CF910895CF93DF93FC018785908954
:100940008F3F2FEF920719F0638562FF03C09087F6
:10095000878307C0EF0163FB662760F940DF988754
:100960008F83DF91CF910895AF92BF92CF92DF92A4
:10097000FF920F931F93CF93DF938C01FC01F384BD
:10098000F3FAFF24F0F8A784B0886F2DC50127DFA4
:10099000019699F0F801E957FF4F118210823197C3
:1009A00082E08083C801DF91CF911F910F91FF906A
:1009B000DF90CF90BF90AF9031C3F801C584D6844B
:1009C00030DEEC010097C1F083DE99819A5F998354
:1009D000FE01E957FF4F11821082D88ACF863697E1
:1009E0000190F081E02D81E08083D282C182B482C7
:1009F000A382F582CE0112D3C801DF91CF911F915E
:100A00000F91FF90DF90CF90BF90AF9042CEDC016E
:100A10001796ED91FC91189719968C91863031F4C8
:100A2000658183819481E5DE81E0089580E0089509
:100A3000AC01E7EFF6E020E09081992319F09150A6
:100A4000908321E0359687E0E932F807A9F7222361
:100A500011F0CA01B5C40895DC0119962C911997BB
:100A6000222359F01796ED91FC91189720812223AB
:100A700019F0213011F4CBCF62C380E0089580E0FB
:100A800090E0FC01ED50F94F1482059682339105F8
:100A9000C1F784E690E0A0E0B0E08093EB0690938D
:100AA000EC06A093ED06B093EE061092EF0688E1F7
:100AB00095E09093F1068093F0066CE275E080E09B
:100AC000E3CCCF93DF93EC01E881F9818181883811
:100AD000F1F480818F7D8134D1F48A818031B8F046
:100AE000A0DD0097A1F020E2FC0120832A81218370
:100AF0002B81ED57FF4F20832C81319620834A8133
:100B000050E0688179810296DF91CF9163C6DF91D1
:100B1000CF9108956F927F928F929F92AF92BF92E2
:100B2000CF92DF92EF92FF920F931F93CF93DF93B9
:100B3000CDB7DEB72C970FB6F894DEBF0FBECDBF92
:100B400000E010E094E2D92E8824839422E2C22EA1
:100B500033E2932E4FE1B42E55E0A52EEE24E3941C
:100B6000F12CC801A0DD8C01892B09F4BDC1D8018D
:100B70008C91823209F4D2C018F4803249F0F1CF5E
:100B8000833209F49AC1843261F7C80182DDE9CF6A
:100B9000F801D0822385822F8A7019F7458156810A
:100BA000878590894F3F5F4F59F4209126083091F7
:100BB00027082817390709F4AEC0019691F6ABC093
:100BC000019611F420FDCDCF209126083091270801
:100BD000F801858596852817390709F4C2CFC80121
:100BE0000DDEA3EFB6E080E090E060E070E01496E8
:100BF0002C911497222309F453C0F801458556859A
:100C00002D913C9111974217530709F04AC0248552
:100C1000A89EF001A99EF00D1124ED50F94F82819C
:100C2000821B883070F54381242F30E0082E02C0EB
:100C3000359527950A94E2F720FF19C020912608E0
:100C400030912708D80117968D919C9118972817F5
:100C5000390709F086CF1B966C911B9763FB6627BB
:100C600060F91F968D919C915097C3DD7ACF9701C3
:100C700002C0220F331F8A95E2F7C901842B8383B8
:100C80002BC02283238130E08195A90102C0440F4B
:100C9000551F8A95E2F7CA0181608383B4821CC024
:100CA000BD010196159657E0A532B50709F09FCF13
:100CB0006115710509F455CFD8011D968D919C9150
:100CC0001E97FB01918380831C968C918283838283
:100CD000B48285EE96E074D3D80117968D919C91DD
:100CE0001897019669F42091260830912708D801B9
:100CF0001F968D919C9150972817390709F0E0C0F5
:100D00008091260890912708F8012785308982175D
:100D1000930709F0DCC0D801CC9223CF1092F206E1
:100D2000D80151962C915197322F32953F70E32F75
:100D3000F0E0EE0FFF1FE45DF74F0190F081E02D32
:100D4000309709F45CC01D968D919C911E979A83F3
:100D500089831F964D915C9150975C834B832F70D4
:100D60002D833E83AF57BF4F6D917C917987688704
:100D700098012E5F3F4F261B370BD80111963C91EF
:100D80001197230F2A87AD57BF4F2C912B871196B0
:100D90002C912C87D8011B966C91262F237062FD15
:100DA00002C030E001C030E2232B63FD02C030E01E
:100DB00001C030E4322B4F3F5F4F11F020E001C003
:100DC00024E0232BD80119964D915C911A97841732
:100DD000950711F090E001C098E0922BD80115968C
:100DE0002D913C9116972F3F3F4F11F080E001C0AD
:100DF00080E1892B8F83CE010196199501C080E097
:100E0000F801938590FF80E0D80117964D915C9191
:100E1000189720912608309127084F3F5F4F41F4E3
:100E2000F801478550892417350711F493FF81E0B5
:100E3000D80115964D915C9116974F3F5F4F09F47D
:100E400080E02F3F3F4FB1F18823A1F1EADB3C0165
:100E5000009781F13DDCD30111968C9111978D5F44
:100E600011968C931197F301E957FF4F118210826D
:100E7000F8018385869581701B969C911B9780FB5A
:100E800091F91B969C931B978585968550969C930C
:100E90008E931F97F301EF57FF4F0190F081E02DE4
:100EA00010828091F2068283D8011C968C918183F6
:100EB000C301B4D0F801D08254CEC80155DD51CE63
:100EC0001B968C9182FD1CCFC801F4D019CF2F3F07
:100ED0003F4F09F420CFF80127813085821793070F
:100EE00009F03FCE90823DCE2C960FB6F894DEBF2F
:100EF0000FBECDBFDF91CF911F910F91FF90EF906B
:100F0000DF90CF90BF90AF909F908F907F906F9029
:100F100008950F931F93CF93DF938C01C0E0E0E01F
:100F2000F0E0D3E1CF01BFDBFC01892B91F08081A0
:100F30008131C1F7DF01AC57BF4F2D913C91119723
:100F4000215031092D933C93232B09F4D083C1E028
:100F5000E9CFCC2331F0C801DF91CF911F910F91E0
:100F60002FC2DF91CF911F910F910895FF920F93A0
:100F70001F93CF93DF938C01C0E0E0E0F0E0D7E176
:100F800080E1F82ECF018FDBFC01892BA9F0808155
:100F90008631C1F7DF01AC57BF4F2D913C911197BE
:100FA0002150310911963C932E93232B19F4D083B1
:100FB0001197FC92C1E0E6CFCC2339F0C801DF9154
:100FC000CF911F910F91FF90FBC1DF91CF911F91A6
:100FD0000F91FF9008951092400710923F07E2E3AF
:100FE000F7E082E390E0A0E0B0E086839783A087FB
:100FF000B187128686EB97E094878387E5E2F7E076
:101000008AE090E0A0E0B0E086839783A087B18774
:10101000128689E897E09487838708950F931F933A
:10102000CF93DF93EC01FC01EA57FF4F808192E1FF
:1010300098833397108280FF03C02FEF3FEF04C0E7
:1010400020912808309129083E832D83857019F45A
:10105000CE0171DC04C08F85988998878F83809139
:101060002608909127089A87898780912B088F5F9F
:1010700080932B088C838F8198858E010C571F4F8E
:10108000019661F481E498E89B838A8395D3877005
:1010900099270196F8019183808307C081E698E83B
:1010A0009B838A83F80111821082DF91CF911F9177
:1010B0000F9108950F931F93CF93DF938C01B1DAB3
:1010C000EC01892BB9F182E18883F8018181898360
:1010D000FE01ED57FF4F10826FD3FE01EC57FF4F1B
:1010E00087709927019691838083339611821082AD
:1010F000F801418150E0B8016E5F7F4FCE0102964A
:1011000069D381E498E89B838A838FEF9FEF988768
:101110008F83F801858196819E838D838091260837
:10112000909127089A87898780912B088F5F8093F9
:101130002B088C83DF91CF911F910F910895CF934E
:10114000DF93FC01C781D0858185833011F080E079
:1011500014C080E090E0A7DA0097C9F3FC01208179
:101160002631C9F7348529813213F5CF27E1208351
:101170002A81EA57FF4F208381E0DF91CF910895C4
:10118000A0913F07B0914007833030F4E82FF0E0A2
:10119000EC5FFD4F808101C081E0FD01ED57FF4F05
:1011A000808385E18C931092400710923F078091D5
:1011B0004C0890914D08019790934D0880934C08EE
:1011C0000895BF92CF92DF92EF92FF920F931F93F9
:1011D000CF93DF93C0E0D0E004E117E186E1D82EA1
:1011E00095E1E92EF12C23E1C22E31E1B32ECE019F
:1011F0005ADAEC01892B09F45EC088818331B9F099
:1012000018F4823139F0F3CF853151F1873109F487
:1012100043C0EDCFFE01EC57FF4F80819181892BB8
:1012200021F0B88285E297E033C0C882E0CF809198
:101230003F0790914007892BD1F6D0934007C09388
:101240003F0708836981CE01029657D880914C08E8
:1012500090914D08019690934D0880934C08C7CF0C
:10126000FE01ED57FF4F8081811114C02D853E8511
:1012700080912608909127082817390759F48B8503
:1012800080FF08C0D8823196F182E08282E397E045
:1012900097D0ADCF1883ABCFCE010DDBFE01E95760
:1012A000FF4F0190F081E02DCE01309711F4F1D97C
:1012B0009ECF19959CCFDF91CF911F910F91FF90F9
:1012C000EF90DF90CF90BF9008950E94BC0062D055
:1012D0000E943701B6C83ED8E0D87FC00F931F9355
:1012E000CF93DF93FC018091410790914207B68133
:1012F000A781308521850097F1F14B2F5A2F632F5D
:10130000722FDC01D0E0C0E012960D911D912D915D
:101310003C911597401751076207730768F4041B47
:10132000150B260B370B12960D931D932D933C93A3
:101330001597AD2FBC2F0EC0401B510B620B730BCA
:101340002D913C911197DA2FCB2F2115310511F0FA
:10135000D901DACF4283538364837583109741F0B8
:101360008D919C91119791838083ED93FC930DC097
:101370009183808306C011821082B283A383348359
:101380002583F0934207E0934107DF91CF911F91AE
:101390000F91089510924207109241070895E0912D
:1013A0004107F0914207309739F0E817F90731F01B
:1013B0000190F081E02DF7CF80E0089581E008955D
:1013C000CF93DF93EC01EBDF811104C0CE01DF91FD
:1013D000CF9184CFDF91CF910895CF92DF92EF929A
:1013E000FF92CF93DF93809125088823C1F18FB7B7
:1013F000F89420912508109225088FBF30E0AAE0CC
:10140000B0E084D16B017C01C0914107D0914207CB
:10141000209729F18A819B81AC81BD81C816D906AC
:10142000EA06FB06A0F0C81AD90AEA0AFB0A888174
:10143000998190934207809341078A85813011F406
:10144000CE014CDFEB85FC85CE011995DDCF8C19E3
:101450009D09AE09BF098A839B83AC83BD83DF915D
:10146000CF91FF90EF90DF90CF90089595B180E1FC
:10147000982795B92FEF30E792E021503040904007
:10148000E1F700C0000095B1892785B908959B0157
:10149000AC0184E0220F331F441F551F8A95D1F7FA
:1014A00060E074E284EF90E00FD1BA01A9014150ED
:1014B000510961097109BB27A72F962F852F8093AA
:1014C000CD004093CC00A8ECB0E082E08C9388E99A
:1014D0008093C90086E08093CA00EAE1F8E080E5E5
:1014E00097E091878087B583A48317821682118243
:1014F00010821382128281E080931908E3E4F7E0FE
:1015000048EE53E060E070E0468357836087718760
:10151000828786E39AE094878387CF0151CF4091F9
:1015200020085091210820911E0830911F08421771
:10153000530759F1409122085091230820911C082B
:1015400030911D08B9016F5F7F4F70931D08609344
:101550001C08FA01E20FF31F808320911C083091D0
:101560001D0880911E0890911F082817390721F443
:1015700010921D0810921C0880912008909121085B
:101580000196909321088093200808951F920F924E
:101590000FB60F9211240BB60F928F93EF93FF9318
:1015A00081E080931908E9ECF0E080818F7D8083F1
:1015B000FF91EF918F910F900BBE0F900FBE0F9088
:1015C0001F9018958091200890912108892BD9F1BE
:1015D000809119088823B9F12091220830912308BD
:1015E00080911A0890911B08AC014F5F5F4F509398
:1015F0001B0840931A08F901E80FF91F2081409158
:101600001A0850911B0880911E0890911F084817D6
:10161000590721F410921B0810921A088091200893
:1016200090912108019790932108809320089FB7FB
:10163000F8942093CE008091C90080628093C90005
:10164000109219089FBF08950F931F93CF938C0199
:10165000C0E0F8018185C81758F4D8011796ED91BC
:10166000FC911897EC0FF11D808159DFCF5FF1CF0E
:1016700081E0CF911F910F91089527DE60E076E918
:1016800080E090E004DF27DE9DDF80912408811157
:10169000FACF80E090E00E943A0287E695E40E944B
:1016A0003F028FE00E94510181E00E944E0164E2FE
:1016B0007BE081E00E944402829A8A9A999AA198DA
:1016C00081E080932408DFCFA1E21A2EAA1BBB1B66
:1016D000FD010DC0AA1FBB1FEE1FFF1FA217B307FE
:1016E000E407F50720F0A21BB30BE40BF50B661F14
:1016F000771F881F991F1A9469F7609570958095D8
:1017000090959B01AC01BD01CF010895A29FB0014E
:10171000B39FC001A39F700D811D1124911DB29F25
:10172000700D811D1124911D08958F929F92AF928B
:10173000BF92CF92DF92EF92FF92CF93DF93EC01B3
:10174000688179818A819B81611571058105910587
:1017500021F464E279ED8BE597E02DE133EF41E090
:1017600050E041D049015A019B01AC01A7EAB1E424
:1017700056D06B017C01ACEEB4EFA50194015BD0B7
:10178000DC01CB018C0D9D1DAE1DBF1DB7FF03C03D
:101790000197A109B04888839983AA83BB839F7767
:1017A000DF91CF91FF90EF90DF90CF90BF90AF90FF
:1017B0009F908F900895B9CF80E092E0B6CFA0E0DF
:1017C000B0E08093000290930102A0930202B093D4
:1017D00003020895FB01DC0102C001900D9241500B
:1017E0005040D8F70895052E97FB16F400940FD0BB
:1017F00057FD05D069DF07FC02D046F408C05095BC
:101800004095309521953F4F4F4F5F4F08959095EC
:101810008095709561957F4F8F4F9F4F089576DF2C
:10182000A59F900DB49F900DA49F800D911D112434
:101830000895B7FFF4CFF3DF821B930B0895F8945C
:02184000FFCFD8
:0818420001000000002021005C
:00000001FF
